:02000004080AE8
:1000000000000A0870260A08000006000600050124
:080010000402DB070000000000
:040018004C240A0862
:10001C0009480A4908B5884205D0094A824202D0EB
:10002C00121A02F0CBF90748074A0021121A02F003
:10003C00D3F9064808BD00BF00000020D4250A08EB
:10004C007400002078000020A8050020A8050020DE
:10005C0070B500F0C1FE0025054E064CA41BA4088B
:10006C00A54200D170BD56F8043B98470135F7E71F
:10007C00A8250A08C8250A0800F016B808B500F02B
:10008C009FF8BDE8084000F069BE00F049BD00F0E3
:10009C0047BD00F04DBD0078B0FA80F040097047C4
:1000AC00012303707047000008B50021032001F004
:1000BC00C3F9114B0121188801F0BEF90F4B012136
:1000CC00188801F0B9F90E4B0121188801F0B4F928
:1000DC00002309220B490C4800F012FD00230B49A8
:1000EC0002220B4800F00CFD00F076FFBDE8084042
:1000FC004FF4165100F056BF0800002004000020F9
:10010C0000000020C800002060240A08880000209D
:10011C0067240A0838B50C4B0C4C1B680C4D208816
:10012C00DB0000212B6001F098F90A490A482B7872
:10013C0009780078012201F0A9F920880121BDE895
:10014C00384001F08AB900BFBC0000200800002034
:10015C00C0000020000000200400002070B5002426
:10016C00124E0021304600F0FBFA0546304600F0F6
:10017C0013FB68B90134052CF3D100200C4B0D494D
:10018C00C3E9000100F028FF0B4900F052FD07E025
:10019C00042CF2D0284601F063FB054BC3E90001A7
:1001AC0000F048FB054B186070BD00BF98000020A4
:1001BC00900000200000F87F6F240A08B80000208F
:1001CC0010B500F037FB124B1B68C01A41F2873395
:1001DC00984207D9FFF7C2FF0E4BD3E900010E4B33
:1001EC00C3E900010D4B1C68012C10D10C4B0A49C2
:1001FC00D3E90023D1E9000101F0FCFD094B20B14A
:10020C001C60BDE81040FFF785BF1860F9E710BD12
:10021C00B800002090000020800000208800002002
:10022C00C8000020BC00002010B5064C012207219C
:10023C00204600F09CF92046BDE81040024A0349D4
:10024C0001F0A0B99800002078000020DB050A0816
:10025C001C23028853434268D118D3588A885A8386
:10026C00704738B504460D4600F09CFA00216060DA
:10027C00284601F0E1F82046258038BD70B50546CA
:10028C0000F010FF0021288800F094FA7D2400F083
:10029C000BFF013C14F0FF042FD0022000F0C2FA37
:1002AC00288800F09FFA10F0FF0FF2D000F0FAFE51
:1002BC002846FFF7CDFF0121288800F07BFA00F0DB
:1002CC00F3FE4FF4F07000F0ADFA00F0BBFA002131
:1002DC000646288800F06EFA462000F0A3FA28881B
:1002EC0000F080FAC4B2B4FA84F4304600F0B2FAEA
:1002FC004FF4CD70640900F095FA204670BD70B5CE
:10030C0011F00105044618D000F09CFA0546204671
:10031C00FFF79EFF0121208800F04CFA012000F02D
:10032C0081FA0021208800F045FA284600F092FA64
:10033C003B20BDE8704000F075BA00F083FA064629
:10034C002046FFF785FF0121208800F033FA412079
:10035C0000F068FA2946208800F02CFA304600F0AC
:10036C0079FA0520E5E738B5044600F06BFA054646
:10037C002046FFF76DFF0121208800F01BFA0120B9
:10038C0000F050FA0021208800F014FA0D2000F043
:10039C0049FA208800F026FA0446284600F05AFA5A
:1003AC002E2000F03FFAE0B238BD2DE9F0410446B2
:1003BC00884616460827012518EA050F14BF0121A7
:1003CC0000212046FFF79BFF6D00013FEDB2F3D1FA
:1003DC008EB100F067FE1C23228853436268D1184B
:1003EC00D3588A8801211A83208800F0E3F9BDE8EC
:1003FC00F04100F059BEBDE8F081F8B5074608267B
:10040C00002501243846FFF7AEFF00B125436400F8
:10041C00013EE4B2F6D12846F8BD70B500220C4678
:10042C0055210646FFF7C1FF651E073415F8011F5D
:10043C0000223046FFF7B9FFA542F7D170BD00226C
:10044C00CC21FFF7B2BF0023C0E9023303828374CF
:10045C0070472DE9F04790F8129004468846B9F1A0
:10046C00000F0ED000202082A07404F1080308F1C4
:10047C00FF38103413F8012BA34208F8012FF9D1DF
:10048C0004E0FFF7FBFE18B92082A074BDE8F087EA
:10049C0001264A46F0212046FFF787FFCA4635461B
:1004AC002046FFF760FF07462046FFF75CFF012F51
:1004BC000FD1012827D1402DD4D984F81090B9F14F
:1004CC00000F01D10123A374237A002BCAD0012081
:1004DC00CBE7874204EB0A030CD1227CAA420ED94B
:1004EC001A7A164214BF0127002767B9082D00D8C5
:1004FC006574A9461A7A22EA06021A7209E00CBF40
:10050C0001270027F1E7012704EB0A02137A334392
:10051C001372394620467600FFF7F1FE16F0FF06FF
:10052C0002BF0AF1010A5FFA8AFA01260135BAF113
:10053C00070FEDB2B4D9BEE702460144002030B536
:10054C008A4213D0082412F8015B80EA050313F0E9
:10055C00010F4FEA50001CBF80F08C03D8B2631E11
:10056C0013F0FF044FEA5505EFD1E9E730BD002346
:10057C0070B543608360C36003614361038340F2E1
:10058C00EE238276C361044614200E46FFF77DFDF0
:10059C00054610B13146FFF764FE2046256070BD5C
:1005AC0038B500F110050C4600682946FFF751FFDD
:1005BC00031E1FBF2B68012023606B6804BF002043
:1005CC002360636038BD00F11001FFF7E9BF10B57F
:1005DC000446006810B1142100F0D9FF204610BD6C
:1005EC000068FFF730BF00002DE9F041837E044620
:1005FC000D46164623B90B7813B95448BDE8F08163
:10060C002068FFF73BFEA37E002B5AD0002E58D15A
:10061C002068FFF714FF002244212068FFF7C5FE75
:10062C00E06900F045FB2068FFF728FEA37E002B55
:10063C004CD0002E4AD12068FFF701FF0022BE21CA
:10064C002068FFF7B2FE2B78262B04D100222068FD
:10065C001146FFF7AAFE261D374604F10D08206847
:10066C00FFF7CBFE06F8010B4645F8D108213846BA
:10067C00FFF762FF237B207698426376BDD12B78FF
:10068C00262B46D027D8102B27D0222BB5D1227A57
:10069C00237902F06002202A35D0402A36D012B9D4
:1006AC0023F0070323716379207940EA032000B219
:1006BC0001F0C4F80022264B01F02AF901F0C2FB2C
:1006CC009CE729462068FFF7A8FEA4E72946206886
:1006DC00FFF7A3FEB2E7282BD8E7E27AA088102A0E
:1006EC004FEAC00301BFA07A23F00F03C0F10C0046
:1006FC00C01814BF18B200B201F0AEFC4FF0765126
:10070C0001F0FEFC7AE723F00303CBE723F00103AF
:10071C00C8E7A579284601F091F80F46064660799E
:10072C00C00801F099FC01F09BF80A4B002201F083
:10073C00EFF82B0654BF084B084B002201F0E8F8E9
:10074C0032463B4600F02EFFB8E700BF0000C07FEA
:10075C000000B03F0000A03F0000F03F0000F0BFE1
:10076C0038B5837E04460D463BB92A46204604F133
:10077C001001BDE83840FFF737BF037C002BF4D1E4
:10078C00FFF72EFF2046FFF71EFF0028EDD1014892
:10079C0038BD00BF0000C07F027E407E131A584255
:1007AC005841704708B5024B1B681B68019308BD84
:1007BC00B001060808B5024B1B689B68019308BD85
:1007CC00B001060808B5024B1B68DB68019308BD35
:1007DC00B001060808B5024B1B681B69019308BDE4
:1007EC00B001060808B5024B1B685B69019308BD94
:1007FC00B001060808B5024B1B681B6A019308BDC3
:10080C00B001060808B5024B1B685B6A019308BD72
:10081C00B001060808B5024B1B685B68019308BD64
:10082C009C01060808B5024B1B68DB68019308BDE8
:10083C009C01060808B5024B1B685B69019308BD57
:10084C009C01060808B5024B1B689B6B019308BD05
:10085C009C01060808B5024B1B68DB6B019308BDB5
:10086C009C01060808B5024B1B685B6C019308BD24
:10087C00D001060808B5024B1B689B6C019308BDA0
:10088C00D001060808B5024B1B689B69019308BD93
:10089C00C401060808B5024B1B685B6A019308BDCE
:1008AC00C401060808B5024B1B689B6A019308BD7E
:1008BC00C401060808B5024B1B68DB6A019308BD2E
:1008CC00C401060808B5024B1B681B6B019308BDDD
:1008DC00C401060808B5024B1B685B6B019308BD8D
:1008EC00C401060808B5024B1B689B6B019308BD3D
:1008FC00C401060808B5024B1B681B6C019308BDAC
:10090C00C401060808B5024B1B681B6E019308BD99
:10091C00AC01060808B5024B1B685B6E019308BD61
:10092C00AC01060808B5024B1B689B6E019308BD11
:10093C00AC01060808B5024B1B68DB6E019308BDC1
:10094C00AC01060808B5024B1B681B6F019308BD70
:10095C00AC01060808B5024B1B685B6F019308BD20
:10096C00AC01060808B5034B1B68D3F88030019323
:10097C0008BD0000AC01060808B5024B1B68DB691A
:10098C00019308BDB401060808B5024B1B681B6A2D
:10099C00019308BDB401060808B5024B1B681B681F
:1009AC00019308BDD801060808B5024B1B685B68AB
:1009BC00019308BDD801060808B5024B1B681B69DA
:1009CC00019308BDD801060808B5024B1B685B698A
:1009DC00019308BDD801060808B5024B1B689B693A
:1009EC00019308BDD801060808B5024B1B68DB69EA
:1009FC00019308BDD801060808B5024B1B681B6A99
:100A0C00019308BDD801060808B5024B1B689B6C06
:100A1C00019308BDC001060808B5024B1B685B6852
:100A2C00019308BDA401060808B5024B1B685B695D
:100A3C00019308BDA401060808B5034B1B68D3F845
:100A4C009030019308BD0000A401060808B5034BC3
:100A5C001B68D3F89C30019308BD0000A401060864
:100A6C0008B5024B1B685B68019308BDC8010608FA
:100A7C0008B5024B1B689B68019308BDC8010608AA
:100A8C0008B5024B1B68DB68019308BDC80106085A
:100A9C0008B5024B1B681B69019308BDC801060809
:100AAC0008B5024B1B685B69019308BDC8010608B9
:100ABC0008B5024B1B689B69019308BDC801060869
:100ACC0008B5024B1B68DB69019308BDC801060819
:100ADC0008B5024B1B681B6A019308BDC8010608C8
:100AEC0008B5024B1B681B6B019308BDC8010608B7
:100AFC0008B5024B1B685B6B019308BDC801060867
:100B0C0008B5024B1B681B68019308BDCC01060895
:100B1C0008B5024B1B68DB6B019308BDCC010608C2
:100B2C0008B5024B1B681B68019308BDA0010608A1
:100B3C0008B5024B1B685B68019308BDA001060851
:100B4C0008B5024B1B685B6C019308BDA00106083D
:100B5C0070B5002604460D4640F8086FFFF782FE7C
:100B6C0028462570FFF708FF2046666070BD10B55B
:100B7C000446006818B1FFF7DBFF0023236010BDAB
:100B8C0010B50446FFF7F3FF204610BD02220020EB
:100B9C0010B5084B084C1A60084B2060A080A0715F
:100BAC00A360FFF739FF2046BDE81040044A054911
:100BBC0000F0E8BCDC000020D00000200000FFFFAB
:100BCC00780000208D0B0A08F8B506460D46002467
:100BDC008F18BD420CD0336830469B6815F8011B4A
:100BEC009847031E01DB1C44F3E7002C08BF1C468E
:100BFC002046F8BD70B505460C46084649B101F0D3
:100C0C0017FC2B68024621462846BDE87040DB687D
:100C1C00184770BD03689B68184738B50D21054609
:100C2C00FFF7F8FF0A2104462846FFF7F3FF20449C
:100C3C0038BD38B50546FFF7DDFF04462846FFF7FB
:100C4C00ECFF204438BD0023012A98BF0A2230B59E
:100C5C008BB00C468DF8243009A92546B4FBF2F470
:100C6C0004FB1253DBB2092B94BF30333733DBB2A6
:100C7C00AA4201F8013DF0D9FFF7BCFF0BB030BD23
:100C8C00002340681A461946FFF70ABF014B024A77
:100C9C001A607047E00000207F240A08024B1A6893
:100CAC00024B1A60704700BF0C000020E4000020CB
:100CBC000021FFF7B9BE10B58368044613B10322B7
:100CCC0001469847204610BD10B50446FFF7F3FFC8
:100CDC00204610BD00230348034A0449836000F0FA
:100CEC0051BC00BFE800002078000020D50C0A0899
:100CFC00014B1860704700BF1000002008B5134B63
:100D0C0043B100F069F903681B699847002801DDBD
:100D1C00AFF300800E4B43B100F01AFA03681B6965
:100D2C009847002801DDAFF300800A4B0BB1AFF3FD
:100D3C000080094B43B100F08DF903681B6998479B
:100D4C00002801DDAFF3008008BD00BF00000000EB
:100D5C0000000000000000000000000008B5FFF7D4
:100D6C00CDFFFFF767FD014B186008BD740500202F
:100D7C000248034A0349121A01F020BB004002400A
:100D8C0004400240D0250A08002307B51A466FF02C
:100D9C0077010093FFF75AFE03B05DF804FB0000E7
:100DAC0007B543880A2B08D0502B0BD1094B1B6875
:100DBC004BB103B05DF804EB1847FFF7E5FF03B048
:100DCC005DF804FB00231A466FF077010093FFF7E0
:100DDC003DFEF4E7FC00002038B5124C002112480F
:100DEC00FFF7AEFE114D2368AB420CBF012200226F
:100DFC000F4B1A7002D0FFF7BBFF2560FFF70AFDFF
:100E0C00044601F0F1FA0B4B13B12046AFF300800E
:100E1C0000210848FFF77CFEBDE838400021064859
:100E2C00FFF70ABE00400240FD0C0A081E1C279A60
:100E3C00F800002000000000AD0D0A08704710B546
:100E4C000446182100F0A3FB204610BDF8B50E4651
:100E5C00002400F10807051D17F8011D0A22304671
:100E6C00FFF7F1FEAF42044401D12046F8BD002C3F
:100E7C00F2D02E213046FFF7CDFE0444ECE7000003
:100E8C0010B50446044B1122002140F8043B01F03C
:100E9C00A3FA204610BD00BFA8240A080346074A3F
:100EAC0010B543F8042B01F1100251F8044B914298
:100EBC0043F8044BF9D10A781A7010BDA8240A081B
:100ECC00024AC0E90021042202757047A8240A08CE
:100EDC0010B59DF8084044EA0324042344EA024474
:100EEC0044EA01644460037510BD000037B5044D3D
:100EFC0005609DF818500095FFF7EAFF03B030BD70
:100F0C00A8240A0841747047704708B50021007C7A
:100F1C00FFF762FD40EAE07008BD08B50121007CD6
:100F2C00FFF75AFD40EAE07008BD08B5007CFFF7FA
:100F3C004BFD20EAE07008BD08B5007CFFF73CFDD6
:100F4C0020EAE07008BD38B50446007C0D46FFF77A
:100F5C003BFD002801DC607C28B12946207CFFF792
:100F6C0043FD20EAE07038BD007CFFF745BD10B5AD
:100F7C000446142100F00BFB204610BD10B54FF4B5
:100F8C007A73044608460021C4E90113044B20740B
:100F9C002360012311466374FFF7FEFC204610BD4D
:100FAC00BC240A080022007CFFF7FEBC10B50446E6
:100FBC001422002101F010FA054B20466360054B0A
:100FCC00E36040F2011323818123238210BD00BF13
:100FDC00300100203102002030B50F4D87B001A840
:100FEC00FFF7E4FF2978BFF35B8F11F0010410D1F8
:100FFC002846FFF750F860B1214601AA0748FFF7D1
:10100C00BDFF2846FFF74CF8054A0649034800F097
:10101C00B9FA024807B030BD0001002008010020D9
:10102C0078000020150F0A0810B504461422002180
:10103C0001F0D2F9054B20466360054BE36040F2AA
:10104C00011323818123238210BD00BFB202002033
:10105C00B303002010B50F4C86B001A8FFF7E4FFD6
:10106C002378BFF35B8FDB0710D42046FFF713F810
:10107C0060B1012101AA0848FFF780FF2046FFF765
:10108C000FF8064A0649044800F07CFA024806B0FC
:10109C0010BD00BF040100201C01002078000020BE
:1010AC00150F0A08FFF7AEBBFFF7A4BB70474174DE
:1010BC00704708B5007CFFF71DFC20EAE07008BD06
:1010CC0008B5007CFFF7EEFB20EAE07008BD08B520
:1010DC00007CFFF7F7FB40EAE07008BD08B5007C28
:1010EC00FFF7E8FB40EAE07008BD007CFFF7F2BBBD
:1010FC0070B5467C04460D462EB12946207CBDE8D1
:10110C007040FFF7C7BB007CFFF7F4FB0028F4DC52
:10111C00304670BD10B50446142100F038FA204654
:10112C0010BD00004FF0000C10B5044608461146E7
:10113C004FF47A72C4E901C2044A2074226001227D
:10114C0062741A46FFF79EFB204610BDEC240A0879
:10115C0038B50D4D2978BFF35B8F11F0010411D117
:10116C002846FEF798FF68B12146084A084B094803
:10117C00FFF7D8FF2846FEF793FF074A07490548B3
:10118C0000F000FA034838BD340400203804002075
:10119C00BC0400204005002078000020B9100A088B
:1011AC007047F8B5064615460C468F18BC4206D05B
:1011BC00336830469B6814F8011B9847F6E72846BD
:1011CC00F8BD0022007CFFF79DBB0021007CFFF7DF
:1011DC00A1BB0021007CFFF7A5BB0021007CFFF721
:1011EC00A9BB0021007CFFF7ADBB10B50446142150
:1011FC0000F0CDF9204610BD10B54FF47A730446BB
:10120C0008460021C4E90113034B114623602074E6
:10121C00FFF7A8FB204610BD1C250A0800224068D9
:10122C001146FFF735BCF0B5154689B011220E46B4
:10123C000446002103A801F0CFF8284601F0F8F885
:10124C00002781B273682846009703AAFFF7DCFBDE
:10125C0030B139462046FFF733FE204609B0F0BDC9
:10126C00204603A9FFF71AFEF7E700224068114653
:10127C00FFF72EBC002240681146FFF739BC002254
:10128C004068FFF72DBC0022406881F00101FFF798
:10129C0017BC002340681A461946FFF709BC002208
:1012AC0040681146FFF7E4BB002202214068FFF7BB
:1012BC00E7BB002340681A46FFF7D2BB0422024B5F
:1012CC005A60024A1A6070475405002044250A08E7
:1012DC00002340681A46FFF7C3BB00220221406876
:1012EC00FFF7CEBB002240681146FFF7C1BB0022BE
:1012FC0040681146FFF7CCBB002340681A461946DC
:10130C00FFF7CEBB002340681A461946FFF7D0BB47
:10131C000022406881F00101FFF7D2BB0022406837
:10132C00FFF7DEBB002240681146FFF7E1BB00224D
:10133C0040681146FFF7CCBB70B515468EB004461D
:10134C0008A8FFF79DFD1122002103A801F044F825
:10135C000026284601F06CF80A4B009681B25B68B7
:10136C00284603AAFFF750FB30B131462046FFF761
:10137C00A7FD20460EB070BD204603A9FFF78EFDD9
:10138C00F7E700BF54050020024B034A1A60002205
:10139C005A6070475C05002078250A0810B5044691
:1013AC00806808B1FFF766FA204610BD172870B5A3
:1013BC00044601D9002070BDA0F10D03022B0BD9FE
:1013CC00012826D800F0B6F80021007CFFF7C2FAFD
:1013DC0080F00100C0B2EEE7134E3178BFF35B8FA3
:1013EC0011F001050FD13046FEF755FE58B12946D4
:1013FC000E48FFF7ADFB3046FEF752FE0C4A0D4986
:10140C000A4800F0BFF8094B1878FFF7BDFA00281E
:10141C00D0D1123C012C05D8FFF79AFE007CFFF7C7
:10142C0061FAD5E70120C6E76405002068050020B5
:10143C0078000020A9130A08172838B504460D4671
:10144C000AD8FF2908D0FFF7B1FF28B1294620465A
:10145C00BDE83840FFF7AEB938BD38B504460D4687
:10146C00FFF7B0F9FF2810D0062804D84D2323FA33
:10147C0000F0C30709D42046FFF798FF28B129468E
:10148C002046BDE83840FFF7A5B938BD2DE9F0413D
:10149C0090461F46002406460D46B8F1000F13D1A6
:1014AC0047FA04F1304601F00101FFF7D6FF0121A4
:1014BC002846FFF7D2FF013400212846FFF7CDFF65
:1014CC00082CEAD1BDE8F081C4F1070147FA01F11B
:1014DC00E8E70000002313B5074C1A4619462046CE
:1014EC000093FFF703FD2046044A054902B0BDE80E
:1014FC00104000F047B800BF7805002078000020AD
:10150C00490E0A08002370B5202543801423084E89
:10151C0004460380314685600561284600F039F8A1
:10152C0031466060284600F034F8E060204670BD1B
:10153C00A4250A0830B50F4D87B02978BFF35B8F0F
:10154C0011F0010413D12846FEF7A5FD78B101A8CE
:10155C00FFF7D8FF214601AA0748FFF74DFE2846A2
:10156C00FEF79EFD054A0649034800F00BF80248B9
:10157C0007B030BD900500209405002078000020B5
:10158C00AD110A080B460146184600F009BFFEF7DC
:10159C0080BDFEF77CBD000081F0004102E000BF81
:1015AC0083F0004330B54FEA41044FEA430594EA17
:1015BC00050F08BF90EA020F1FBF54EA000C55EA52
:1015CC00020C7FEA645C7FEA655C00F0E2804FEA23
:1015DC005454D4EB5555B8BF6D420CDD2C4480EA05
:1015EC00020281EA030382EA000083EA010180EA35
:1015FC00020281EA0303362D88BF30BD11F0004F83
:10160C004FEA01314FF4801C4CEA113102D04042B8
:10161C0061EB410113F0004F4FEA03334CEA1333F3
:10162C0002D0524263EB430394EA050F00F0A7800B
:10163C00A4F10104D5F1200E0DDB02FA0EFC22FA06
:10164C0005F2801841F1000103FA0EF2801843FAFA
:10165C0005F359410EE0A5F120050EF1200E012AEB
:10166C0003FA0EFC28BF4CF0020C43FA05F3C01829
:10167C0051EBE37101F0004507D54FF0000EDCF1A2
:10168C00000C7EEB00006EEB0101B1F5801F1BD34B
:10169C00B1F5001F0CD349085FEA30004FEA3C0C4F
:1016AC0004F101044FEA445212F5800F80F09A8045
:1016BC00BCF1004F08BF5FEA500C50F1000041EB49
:1016CC00045141EA050130BD5FEA4C0C404141EB4D
:1016DC000101013C28BFB1F5801FE9D291F0000F48
:1016EC0004BF01460020B1FA81F308BF2033A3F1F7
:1016FC000B03B3F120020CDA0C3208DD02F1140CEE
:10170C00C2F10C0201FA0CF021FA02F10CE002F128
:10171C001402D8BFC2F1200C01FA02F120FA0CFC21
:10172C00DCBF41EA0C019040E41AA2BF01EB04516A
:10173C00294330BD6FEA04041F3C1CDA0C340EDC68
:10174C0004F11404C4F1200220FA04F001FA02F3AB
:10175C0040EA030021FA04F345EA030130BDC4F169
:10176C000C04C4F1200220FA02F001FA04F340EA5E
:10177C000300294630BD21FA04F0294630BD94F00F
:10178C00000F83F4801306BF81F480110134013DF6
:10179C004EE77FEA645C18BF7FEA655C29D094EA67
:1017AC00050F08BF90EA020F05D054EA000C04BFE5
:1017BC001946104630BD91EA030F1EBF00210020D0
:1017CC0030BD5FEA545C05D14000494128BF41F06F
:1017DC00004130BD14F580043CBF01F5801130BDD3
:1017EC0001F0004545F0FE4141F470014FF000005E
:1017FC0030BD7FEA645C1ABF194610467FEA655C0F
:10180C001CBF0B46024650EA013406BF52EA0335B0
:10181C0091EA030F41F4002130BD00BF90F0000F9E
:10182C0004BF0021704730B54FF4806404F13204DA
:10183C004FF000054FF0000150E700BF90F0000F93
:10184C0004BF0021704730B54FF4806404F13204BA
:10185C0010F0004548BF40424FF000013EE700BF8A
:10186C0042004FEAE2014FEA31014FEA02701FBF1A
:10187C0012F07F4393F07F4F81F06051704732F04C
:10188C007F4208BF704793F07F4F04BF41F40021A3
:10189C00704730B54FF4607401F0004521F0004101
:1018AC001CE700BF50EA010208BF704730B54FF08B
:1018BC0000050AE050EA010208BF704730B511F08C
:1018CC00004502D5404261EB41014FF4806404F1C4
:1018DC0032045FEA915C3FF4D8AE4FF003025FEA4A
:1018EC00DC0C18BF03325FEADC0C18BF033202EBCE
:1018FC00DC02C2F1200300FA03FC20FA02F001FA28
:10190C0003FE40EA0E0021FA02F11444BDE600BFCA
:10191C0070B54FF0FF0C4CF4E06C1CEA11541DBF79
:10192C001CEA135594EA0C0F95EA0C0F00F0DEF844
:10193C002C4481EA030621EA4C5123EA4C5350EA29
:10194C00013518BF52EA033541F4801143F480137A
:10195C0038D0A0FB02CE4FF00005E1FB02E506F00B
:10196C000042E0FB03E54FF00006E1FB03569CF060
:10197C00000F18BF4EF0010EA4F1FF04B6F5007F66
:10198C0064F5407404D25FEA4E0E6D4146EB0606D8
:10199C0042EAC62141EA55514FEAC52040EA5E5061
:1019AC004FEACE2EB4F1FD0C88BFBCF5E06F1ED80B
:1019BC00BEF1004F08BF5FEA500E50F1000041EB42
:1019CC00045170BD06F0004646EA010140EA0200EF
:1019DC0081EA0301B4EB5C04C2BFD4EB0C0541EA11
:1019EC00045170BD41F480114FF0000E013C00F326
:1019FC00AB8014F1360FDEBF002001F0004170BD4A
:101A0C00C4F10004203C35DA0C341BDC04F1140462
:101A1C00C4F1200500FA05F320FA04F001FA05F2EE
:101A2C0040EA020001F0004221F0004110EBD370BB
:101A3C0021FA04F642EB06015EEA430E08BF20EAE7
:101A4C00D37070BDC4F10C04C4F1200500FA04F38A
:101A5C0020FA05F001FA04F240EA020001F000411C
:101A6C0010EBD37041F100015EEA430E08BF20EA8F
:101A7C00D37070BDC4F1200500FA05F24EEA020ED7
:101A8C0020FA04F301FA05F243EA020321FA04F006
:101A9C0001F0004121FA04F220EA020000EBD370BD
:101AAC005EEA430E08BF20EAD37070BD94F0000FBD
:101ABC000FD101F00046400041EB010111F4801FF1
:101ACC0008BF013CF7D041EA060195F0000F18BFA2
:101ADC00704703F00046520043EB030313F4801FDE
:101AEC0008BF013DF7D043EA0603704794EA0C0F98
:101AFC000CEA135518BF95EA0C0F0CD050EA4106AE
:101B0C0018BF52EA4306D1D181EA030101F000412A
:101B1C004FF0000070BD50EA410606BF1046194652
:101B2C0052EA430619D094EA0C0F02D150EA01365E
:101B3C0013D195EA0C0F05D152EA03361CBF10469F
:101B4C0019460AD181EA030101F0004141F0FE413E
:101B5C0041F470014FF0000070BD41F0FE4141F4C2
:101B6C00780170BD70B54FF0FF0C4CF4E06C1CEAC2
:101B7C0011541DBF1CEA135594EA0C0F95EA0C0F77
:101B8C0000F0A7F8A4EB050481EA030E52EA033532
:101B9C004FEA013100F088804FEA03334FF0805553
:101BAC0045EA131343EA12634FEA022245EA111580
:101BBC0045EA10654FEA00260EF000419D4208BF31
:101BCC00964244F1FD0404F5407402D25B084FEADE
:101BDC003202B61A65EB03055B084FEA32024FF48A
:101BEC0080104FF4002CB6EB020E75EB030E22BFE7
:101BFC00B61A754640EA0C005B084FEA3202B6EBA7
:101C0C00020E75EB030E22BFB61A754640EA5C0055
:101C1C005B084FEA3202B6EB020E75EB030E22BFE5
:101C2C00B61A754640EA9C005B084FEA3202B6EBE6
:101C3C00020E75EB030E22BFB61A754640EADC00A5
:101C4C0055EA060E18D04FEA051545EA16754FEA07
:101C5C0006164FEAC30343EA52734FEAC2025FEA25
:101C6C001C1CC0D111F4801F0BD141EA00014FF0B4
:101C7C0000004FF0004CB6E711F4801F04BF014385
:101C8C000020B4F1FD0C88BFBCF5E06F3FF6AFAEA1
:101C9C00B5EB030C04BFB6EB020C5FEA500C50F131
:101CAC00000041EB045170BD0EF0004E4EEA1131B4
:101CBC0014EB5C04C2BFD4EB0C0541EA045170BDBB
:101CCC0041F480114FF0000E013C90E645EA060EFF
:101CDC008DE60CEA135594EA0C0F08BF95EA0C0F2D
:101CEC003FF43BAF94EA0C0F0AD150EA01347FF475
:101CFC0034AF95EA0C0F7FF425AF104619462CE74C
:101D0C0095EA0C0F06D152EA03353FF4FDAE1046AE
:101D1C00194622E750EA410618BF52EA43067FF4FF
:101D2C00C5AE50EA41047FF40DAF52EA43057FF48F
:101D3C00EBAE12E74FF0FF3C06E000BF4FF0010C9A
:101D4C0002E000BF4FF0010C4DF804CD4FEA410CFE
:101D5C007FEA6C5C4FEA430C18BF7FEA6C5C1BD0CB
:101D6C0001B050EA410C0CBF52EA430C91EA030F4C
:101D7C0002BF90EA020F0020704710F1000F91EAA9
:101D8C00030F58BF994208BF90422CBFD8176FEA77
:101D9C00E37040F0010070474FEA410C7FEA6C5C45
:101DAC0002D150EA013C07D14FEA430C7FEA6C5C4C
:101DBC00D6D152EA033CD3D05DF8040B704700BF78
:101DCC008446104662468C461946634600E000BFC6
:101DDC0001B5FFF7B7FF002848BF10F1000F01BD98
:101DEC004DF808EDFFF7F4FF0CBF012000205DF863
:101DFC0008FB00BF4DF808EDFFF7EAFF34BF0120E8
:101E0C0000205DF808FB00BF4DF808EDFFF7E0FF80
:101E1C0094BF012000205DF808FB00BF4DF808EDD1
:101E2C00FFF7CEFF94BF012000205DF808FB00BF38
:101E3C004DF808EDFFF7C4FF34BF012000205DF81A
:101E4C0008FB00BF4FEA4102B2F1E04324BFB3F5F7
:101E5C00001CDCF1FE5C0DD901F0004C4FEAC00215
:101E6C004CEA5070B2F1004F40EB830008BF20F0F9
:101E7C000100704711F0804F21D113F13872BCBFB3
:101E8C0001F00040704741F480114FEA5252C2F108
:101E9C001802C2F1200C10FA0CF320FA02F018BF51
:101EAC0040F001004FEAC1234FEAD32303FA0CFCA4
:101EBC0040EA0C0023FA02F34FEA4303CCE77FEA33
:101ECC00625307D150EA01331EBF4FF0FE4040F47D
:101EDC004000704701F0004040F0FE4040F400002C
:101EEC00704700BF80F0004002E000BF81F000416D
:101EFC0042001FBF5FEA410392EA030F7FEA226CA4
:101F0C007FEA236C6AD04FEA1262D2EB1363C1BF33
:101F1C00D218414048404140B8BF5B42192B88BFA2
:101F2C00704710F0004F40F4000020F07F4018BFC5
:101F3C00404211F0004F41F4000121F07F4118BFE5
:101F4C00494292EA030F3FD0A2F1010241FA03FC8D
:101F5C0010EB0C00C3F1200301FA03F100F0004375
:101F6C0002D5494260EB4000B0F5000F13D3B0F13D
:101F7C00807F06D340084FEA310102F10102FE2AAC
:101F8C0051D2B1F1004F40EBC25008BF20F001001C
:101F9C0040EA03007047490040EB0000013A28BFBB
:101FAC00B0F5000FEDD2B0FA80FCACF1080CB2EB3E
:101FBC000C0200FA0CF0AABF00EBC25052421843BC
:101FCC00BCBFD0401843704792F0000F81F4000161
:101FDC0006BF80F400000132013BB5E74FEA410334
:101FEC007FEA226C18BF7FEA236C21D092EA030FA0
:101FFC0004D092F0000F08BF0846704790EA010F1A
:10200C001CBF0020704712F07F4F04D1400028BF46
:10201C0040F00040704712F100723CBF00F5000028
:10202C00704700F0004343F0FE4040F4000070475E
:10203C007FEA226216BF08467FEA2363014642020A
:10204C0006BF5FEA412390EA010F40F4800070471D
:10205C004FF0000304E000BF10F0004348BF4042C3
:10206C005FEA000C08BF704743F0964301464FF0FF
:10207C0000001CE050EA010208BF70474FF000035B
:10208C000AE000BF50EA010208BF704711F000439C
:10209C0002D5404261EB41015FEA010C02BF84466C
:1020AC000146002043F0B64308BFA3F18053A3F5CB
:1020BC000003BCFA8CF2083AA3EBC25310DB01FA12
:1020CC0002FC634400FA02FCC2F12002BCF1004F96
:1020DC0020FA02F243EB020008BF20F00100704727
:1020EC0002F1200201FA02FCC2F1200250EA4C007B
:1020FC0021FA02F243EB020008BF20EADC707047C1
:10210C004FF0FF0C1CEAD0521EBF1CEAD15392EACE
:10211C000C0F93EA0C0F6FD01A4480EA010C4002AA
:10212C0018BF5FEA41211ED04FF0006343EA501004
:10213C0043EA5111A0FB01310CF00040B1F5000F46
:10214C003EBF490041EAD3715B0040EA010062F1F5
:10215C007F02FD2A1DD8B3F1004F40EBC25008BFDF
:10216C0020F00100704790F0000F0CF0004C08BFFD
:10217C0049024CEA502040EA51207F3AC2BFD2F1CA
:10218C00FF0340EAC250704740F400004FF00003D8
:10219C00013A5DDC12F1190FDCBF00F00040704712
:1021AC00C2F10002410021FA02F1C2F1200200FA50
:1021BC0002FC5FEA310040F1000053EA4C0308BF17
:1021CC0020EADC70704792F0000F00F0004C02BF68
:1021DC00400010F4000F013AF9D040EA0C0093F0E3
:1021EC00000F01F0004C02BF490011F4000F013B3D
:1021FC00F9D041EA0C018FE70CEAD15392EA0C0FAB
:10220C0018BF93EA0C0F0AD030F0004C18BF31F015
:10221C00004CD8D180EA010000F00040704790F0EB
:10222C00000F17BF90F0004F084691F0000F91F08F
:10223C00004F14D092EA0C0F01D142020FD193EA55
:10224C000C0F03D14B0218BF084608D180EA0100DD
:10225C0000F0004040F0FE4040F40000704740F0B9
:10226C00FE4040F4400070474FF0FF0C1CEAD05287
:10227C001EBF1CEAD15392EA0C0F93EA0C0F69D0E3
:10228C00A2EB030280EA010C49024FEA402037D04E
:10229C004FF0805343EA111143EA10130CF0004045
:1022AC008B4238BF5B0042F17D024FF4000C8B4235
:1022BC0024BF5B1A40EA0C00B3EB510F24BFA3EB15
:1022CC00510340EA5C00B3EB910F24BFA3EB9103E5
:1022DC0040EA9C00B3EBD10F24BFA3EBD10340EA3F
:1022EC00DC001B0118BF5FEA1C1CE0D1FD2A3FF685
:1022FC0050AF8B4240EBC25008BF20F0010070473A
:10230C000CF0004C4CEA50207F32C2BFD2F1FF03DC
:10231C0040EAC250704740F400004FF00003013A0D
:10232C0037E792F0000F00F0004C02BF400010F4B1
:10233C00000F013AF9D040EA0C0093F0000F01F0C5
:10234C00004C02BF490011F4000F013BF9D041EAE7
:10235C000C0195E70CEAD15392EA0C0F08D142021A
:10236C007FF47DAF93EA0C0F7FF470AF084676E7ED
:10237C0093EA0C0F04D14B023FF44CAF08466EE7C6
:10238C0030F0004C18BF31F0004CCAD130F0004294
:10239C007FF45CAF31F000437FF43CAF5FE700BFEC
:1023AC0010B504460448134620B10A4602202146C3
:1023BC00AFF3008010BD00BF000000000A44914242
:1023CC0000F1FF3300D1704710B511F8014B914269
:1023DC0003F8014FF9D110BD03460244934200D1DA
:1023EC00704703F8011BF9E738B50D4B04461D681F
:1023FC00AB6B7BB91820FEF793FB0A4A0A4BA86318
:10240C00C0E90023094B012283600B238381002345
:10241C00C0E904230022AB6B1C615A6138BD00BFBC
:10242C00100000200E33CDAB34126DE6ECDE05004F
:10243C00034613F8012B002AFBD1181A01387047F8
:10244C001D000A085D000A0885000A0889000A08B0
:10245C0000000000736F676C696100626F74746FC9
:10246C006E6500496E76616C6964207265616469A1
:10247C006E67006170700025592D256D2D256454F3
:10248C0025483A254D3A2553257A006173637469C2
:10249C006D6500000000000000000000590E0A08E5
:1024AC00490E0A084B0E0A0800000000000000004C
:1024BC00150F0A087B0F0A08530F0A08D50B0A08D8
:1024CC00450F0A08170F0A08270F0A08750F0A0884
:1024DC00370F0A08110F0A08000000000000000066
:1024EC00B9100A0821110A08FD100A08D50B0A08B0
:1024FC00CD100A08E9100A08DB100A08F7100A08C0
:10250C00BB100A08BF100A08000000000000000001
:10251C00AD110A08F7110A08CF110A08AF110A0801
:10252C00D7110A08DF110A08E7110A08EF110A0887
:10253C000000000000000000BF120A08B5120A08D3
:10254C00AB120A0829120A088D0C0A089F120A08F5
:10255C0093120A088B120A0881120A0877120A08C9
:10256C0033120A080000000000000000DD120A0807
:10257C00E7120A08F1120A08FB120A0805130A08E6
:10258C0011130A081D130A0829130A0831130A0823
:10259C003B130A0845130A080000000035020A081C
:1025AC00990B0A08990C0A08A90C0A08E10C0A08EC
:1025BC00C9120A0895130A08E1140A080000000061
:0425CC00000000000B
:0425D0000000000007
:1025D4000C0000000E0000000D00000097240A0803
:1025E40014000020000000000000000000000000B3
:1025F40000000000000000000000000000000000D7
:1026040000000000000000000000000000000000C6
:1026140000000000000000000000000000000000B6
:1026240000000000000000000000000000000000A6
:102634000000000000000000000000000000000096
:042644000000000092
:10264800FFFFFFFF00000102030405060708090A4F
:102658000B0C0D0E0F101112131415161718191A4A
:082668001B1C1D1E1F20280091
:042670007856341252
:04000005080A001CC9
:00000001FF
