:02000004080AE8
:1000000000000A08B4180A080000060006000501EE
:080010000402BD040000000021
:1000180038150A0809480A4908B5884205D0094A26
:10002800824202D0121A01F031FA0748074A002129
:10003800121A01F036FA064808BD00BF0003002076
:1000480024180A086803002068030020100900200B
:100058001009002070B500F011FD074B074C1E4633
:10006800E41AA4080025A54204D056F8253098477C
:100078000135F8E770BD00BFE0170A0818180A082C
:1000880000F012B808B500F021F8BDE8084000F00B
:10009800B7BC00F07FBB0078B0FA80F04009704729
:1000A800012303707047000008B500F0E7FD4FF426
:1000B800165100F0C9FD044800F0C0F9BDE8084039
:1000C8000021042000F0E4BF6C0300202DE9F74371
:1000D800042001F007F86C4E6C4B0128186008BF2B
:1000E80030606B4C00F0CAFD6A4900F0B5FB00F0C7
:1000F800C5FD0A22316800F010FC25684DB900F0F2
:1001080003FA654F3B68C01A41F28733984200F200
:100118008480D4F800905E4FB9F1010F23D100F02C
:10012800F3F9DFF87481D8F80030C01A40F6C31329
:10013800984218D903230093FC22882300215748AA
:10014800002500F032F92B46FF2249465348009516
:1001580000F02BF900F0D8F93368C8F80000012B3B
:100168006FD104233B602368022B08D100F0CCF93F
:10017800494F3B68C01A41F28733984266D8D4F891
:100188000090434FB9F1030F23D100F0BDF9DFF818
:100198000881D8F80030C01A40F6C313984218D91D
:1001A80000252B46FF2229463C48009500F0FDF823
:1001B8008823FC2201213948CDF8009000F0F5F899
:1001C80000F0A2F93368C8F80000012B54D10423C9
:1001D8003B602368042B54D100F096F92E4D2B6810
:1001E800C01A41F2873398424BD900242346FF2294
:1001F80021462A48009400F0D8F82346FF2201211E
:100208002648009400F0D1F800F07EF9244B2860CD
:100218001A681F4B34601A6033E0FF232A462946C8
:100228001E48009500F0C1F82B46FF2201211B480B
:10023800009500F0BAF800F067F9012338602360F0
:1002480067E702233B60164B1D608CE700252B46B1
:10025800FF2229461148009500F0A7F8FF232A46F7
:1002680001210E48009500F0A0F800F04DF9084B68
:10027800032238601A6082E7094B02221A603D6047
:10028800A7E703B0BDE8F0837803002080030020CF
:10029800840300204C150A08740300206C03002016
:1002A8007C03002010B5084C00F0E6F80223032276
:1002B8001946204600F00EF82046BDE81040034AD3
:1002C800034900F07DBF00BF6C03002068030020D5
:1002D800F7020A0810B504460170427083700121C4
:1002E80003EB430001F0BCF86060204610BD10B578
:1002F8000446406800F04EFA204610BD10B504468A
:100308000021007800F0D5FE142000F0F5F82078E0
:10031800012100F0CEFEBDE81040142000F0ECB83A
:1003280070B506460D46082415F0800F14BF01214C
:100338000021707800F0BDFE013C3046FFF7DEFF7B
:100348006D0014F0FF04EDB2EED170BDF8B516469D
:100358000D4604461F4613F0800F14BFC021E0214C
:100368005A0658BF41F01001330658BF41F0080142
:10037800700658BF41F004012A0658BF41F0020137
:100388006B0658BF41F001012046FFF7C9FF394607
:100398002046FFF7C5FF31462046FFF7C1FF294633
:1003A8002046BDE8F840FFF7BBBF2DE9F0470446FB
:1003B8000E460021904699469DF820A0FFF7B0FF11
:1003C80000212046FFF7ACFF00212046FFF7A8FFD9
:1003D80000212046FFF7A4FF002506EB4607A27878
:1003E800EBB29A4218D9B3420AD1626802F8078080
:1003F80062683A4482F8019062683A4482F802A03E
:10040800606803EB430142189378415C52782046B8
:10041800FFF79CFF0135E2E720460021FFF780FF48
:1004280020460021FFF77CFF20460021FFF778FFD8
:100438002046BDE8F0470021FFF772BF73B50446B8
:100448000121007800F024FE00250121607800F0E9
:100458001FFE2E46A378E9B28B4205F1010506D9A5
:10046800002300961A462046FFF79FFFF2E702B0E6
:1004780070BD00F001B8000008B5024B1B681B688E
:10048800019308BDB001060808B5024B1B689B68BC
:10049800019308BDB001060808B5024B1B68DB686C
:1004A800019308BDB001060808B5024B1B681B691B
:1004B800019308BDB001060808B5024B1B685B69CB
:1004C800019308BDB001060808B5024B1B68DB693B
:1004D800019308BDB401060808B5024B1B681B6AE6
:1004E800019308BDB401060808B5024B1B685B6898
:1004F800019308BD9C01060808B5024B1B68DB6820
:10050800019308BD9C01060808B5024B1B685B698E
:10051800019308BD9C01060808B5024B1B681B6BBC
:10052800019308BDD001060808B5024B1B689B69FA
:10053800019308BDC401060808B5024B1B685B6A35
:10054800019308BDC401060808B5024B1B689B6AE5
:10055800019308BDC401060808B5024B1B68DB6A95
:10056800019308BDC401060808B5024B1B681B6B44
:10057800019308BDC401060808B5024B1B685B6BF4
:10058800019308BDC401060808B5024B1B689B6BA4
:10059800019308BDC401060808B5024B1B681B6C13
:1005A800019308BDC401060808B5024B1B681B6E01
:1005B800019308BDAC01060808B5024B1B685B6EC9
:1005C800019308BDAC01060808B5024B1B689B6E79
:1005D800019308BDAC01060808B5024B1B68DB6E29
:1005E800019308BDAC01060808B5024B1B681B6FD8
:1005F800019308BDAC01060808B5024B1B685B6F88
:10060800019308BDAC01060808B5034B1B68D3F875
:100618008030019308BD0000AC01060808B5024B04
:100628001B681B68019308BDD801060808B5024B72
:100638001B685B68019308BDD801060808B5024B22
:100648001B681B69019308BDD801060808B5024B51
:100658001B685B69019308BDD801060808B5024B01
:100668001B689B69019308BDD801060808B5024BB1
:100678001B68DB69019308BDD801060808B5024B61
:100688001B681B6A019308BDD801060808B5024B10
:100698001B689B6C019308BDC001060808B5024B96
:1006A8001B685B68019308BDA401060808B5034BE5
:1006B8001B68D3F89030019308BD0000A401060818
:1006C80008B5034B1B68D3F89C30019308BD0000A4
:1006D800A401060808B5024B1B685B68019308BDB6
:1006E800C801060808B5024B1B689B68019308BD42
:1006F800C801060808B5024B1B68DB68019308BDF2
:10070800C801060808B5024B1B681B69019308BDA0
:10071800C801060808B5024B1B685B69019308BD50
:10072800C801060808B5024B1B689B69019308BD00
:10073800C801060808B5024B1B68DB69019308BDB0
:10074800C801060808B5024B1B681B6A019308BD5F
:10075800C801060808B5024B1B681B6B019308BD4E
:10076800C801060808B5024B1B685B6B019308BDFE
:10077800C801060808B5024B1B68DB6B019308BD6E
:10078800CC01060808B5024B1B681B68019308BD1D
:10079800A001060808B5024B1B685B68019308BDF9
:1007A800A001060808B5024B1B681B6B019308BD26
:1007B800A0010608704710B50446102100F005FD99
:1007C800204610BD70B504460E46074B0025036051
:1007D80040F80C5FFFF7A0FE30462671FFF774FE65
:1007E800A560204670BD00BF60150A080079FFF7B4
:1007F80073BE00004FF6FF72034B0020187058803C
:100808009A80FFF74BBF00BF88030020F8B5064663
:100818000D468F180024BD420CD0336815F8011B13
:100828009B6830469847002801DB0444F3E7002C16
:1008380008BF04462046F8BD70B505460C46084674
:1008480049B100F06DFE2B68024621462846BDE8F6
:100858007040DB68184770BD08B5FFF7EDFF08BDAD
:1008680003689B68184738B50D210546FFF7F8FF60
:100878000A2104462846FFF7F3FF204438BD012A21
:1008880098BF0A2230B50B468BB000218DF8241092
:100898000DF12304B3FBF2F505FB1233DBB2092B90
:1008A80094BF30333733DBB2214604F801392B4685
:1008B800002DEFD1FFF7C0FF0BB030BD10B422B947
:1008C8000368C9B29B6810BC1847D2B210BCFFF7C6
:1008D800D6BFFFF7F3BF2DE9F04107460E46154690
:1008E8002AB9BDE8F0410368C9B29B6818470A2ACB
:1008F80002D1002901DA04E0D2B2BDE8F041FFF7E5
:10090800BEBF2D21FFF7ACFF2A4604467142384688
:10091800FFF7B5FF2044BDE8F08138B50546FFF77D
:10092800DAFF04462846FFF79EFF204438BD00231F
:100938001A4619464068FFF7EDBE0000014A024B0F
:100948001A60704723160A0890030020024B1A68A1
:10095800024B1A60704700BF000300209403002078
:1009680010B58368044613B1032201469847204610
:1009780010BD10B50446FFF7F3FF204610BD000078
:10098800034800238360034A034900F019BC00BFF1
:1009980098030020680300207B090A0808B5144B57
:1009A80033B100F06BF903681B699847002816DC1F
:1009B800104B33B100F020FA03681B6998470028F0
:1009C80010DC0D4B0BB1AFF300800C4B7BB100F08A
:1009D80091F903681B699847002806DC08BDAFF346
:1009E8000080E5E7AFF30080EBE7AFF3008008BDD8
:1009F80000000000000000000000000000000000EF
:100A080008B5FFF7CBFFFFF77FFD014B186008BD66
:100A18003C0800200248034A0349121A00F036BD78
:100A2800004002400440024020180A0807B500238D
:100A380000931A466FF07701FFF742FE03B05DF8A6
:100A480004FB000007B543880A2B08D0502B09D1B6
:100A5800094B1B683BB103B05DF804EB1847FFF77F
:100A6800E5FF06E0002300931A466FF07701FFF7D1
:100A780027FE03B05DF804FBA803002038B5104C2E
:100A8800104D2368AB42104B0CBF012200221A7094
:100A980002D0FFF7BFFF2560FFF726FD044600F0F0
:100AA80017FD0A4B13B12046AFF300800021074819
:100AB800FFF760FEBDE8384000210548FFF7F6BDA6
:100AC800004002401E1C279AAC03002000000000D2
:100AD8004D0A0A08704710B50446182100F075FB46
:100AE800204610BDF8B50F4600F10806051D002484
:100AF80016F8011D0A223846FFF7EBFEAE42044401
:100B080007D0002CF4D02E213846FFF7A9FE044464
:100B1800EEE72046F8BD000010B50446044B11224C
:100B280040F8043B002100F0BCFC204610BD00BF8B
:100B380080160A080346074A10B543F8042B01F14A
:100B4800100251F8044B914243F8044BF9D10A784A
:100B58001A7010BD80160A08024A41600260042219
:100B68000275704780160A0810B59DF8084044EAD7
:100B7800032343EA024242EA016104234160037508
:100B880010BD000037B5044D05609DF8185000955C
:100B9800FFF7EAFF03B030BD80160A0841747047BA
:100BA800704708B50021007CFFF758FD30EA2000A7
:100BB80028BF4FF0FF3008BD08B50121007CFFF7C2
:100BC8004DFD30EA200028BF4FF0FF3008BD08B5C2
:100BD800007CFFF73BFD20EAE07008BD08B5007C0B
:100BE800FFF72CFD20EAE07008BD007CFFF746BD4A
:100BF80010B50446142100F0E8FA204610BD38B5B7
:100C08000446007C0D46FFF721FD002801DC607CCE
:100C180028B12946207CFFF729FD20EAE07038BD7D
:100C280010B50446002363604FF47A73A360054B44
:100C3800084623600123217463741146FFF7EEFC14
:100C4800204610BD94160A080022007CFFF7EEBC6F
:100C580010B504461422002100F023FC054B204661
:100C68006360054BE36040F20113238181232382F3
:100C780010BD00BF35040020B403002030B50E4D70
:100C880087B001A8FFF7E4FF296811F0010410D12B
:100C98002846FFF700FA60B101AA21460748FFF786
:100CA800BFFF2846FFF7FCF9054A0649034800F04C
:100CB80087FA024807B030BDB0030020380500208D
:100CC80068030020A90B0A0810B504461422002165
:100CD80000F0E7FB054B20466360054BE36040F2FC
:100CE800011323818123238210BD00BFE805002062
:100CF8005005002010B50E4C86B001A8FFF7E4FFA0
:100D08002368DB0710D42046FFF7C5F960B101AAB4
:100D180001210848FFF784FF2046FFF7C1F9064A7A
:100D28000649044800F04CFA024806B010BD00BF5E
:100D38004C050020D405002068030020A90B0A08F0
:100D480070474174704708B5007CFFF725FC20EA1E
:100D5800E07008BD08B5007CFFF7F6FB20EAE070FC
:100D680008BD08B5007CFFF7FFFB30EA200028BF6C
:100D78004FF0FF3008BD08B5007CFFF7EDFB30EA07
:100D8800200028BF4FF0FF3008BD007CFFF7F4BB00
:100D980010B50446142100F018FA204610BD70B5AD
:100DA800457C04460E4625B9007CFFF7F5FB002874
:100DB80005DD3146207CBDE87040FFF7BDBB284605
:100DC80070BD000010B50446084611460022626056
:100DD8004FF47A72A260054A20742260012262747C
:100DE8001A46FFF7A1FB204610BD00BFC4160A082B
:100DF800007CFFF7C9BB000038B50C4D296811F01D
:100E0800010411D12846FFF746F968B1084A21467E
:100E1800084B0948FFF7D6FF2846FFF741F9074A6C
:100E28000749054800F0CCF9034838BD840700207D
:100E38008807002000070020EC0600206803002037
:100E4800490D0A087047F8B5064615460C468F182E
:100E5800BC4206D0336814F8011B9B68304698479B
:100E6800F6E72846F8BD0022007CFFF79DBB00216D
:100E7800007CFFF7A1BB0021007CFFF7A5BB002188
:100E8800007CFFF7A9BB0021007CFFF7ADBB10B5C4
:100E98000446142100F099F9204610BD10B5044607
:100EA80008464FF47A73A360044B002120746160F4
:100EB8002360FFF7A9FB204610BD00BFF4160A08FF
:100EC8000021007CFFF798BB002211464068FFF71D
:100ED80019BCF0B5164689B011220F460446002108
:100EE80003A800F0DEFA304600F01AFB0025009552
:100EF80081B27B6803AA3046FFF7C8FB20B12946B8
:100F08002046FFF729FE03E003A92046FFF712FE5B
:100F1800204609B0F0BD002211464068FFF712BC18
:100F2800002211464068FFF71DBC00224068FFF709
:100F380011BC002281F001014068FFF7FBBB0023D0
:100F48001A4619464068FFF7EDBB00221146406873
:100F5800FFF7C8BB002202214068FFF7CBBB002384
:100F68001A464068FFF7B6BB024B04225A60024A91
:100F78001A6070470C0800201C170A0800231A463C
:100F88004068FFF7A7BB002202214068FFF7B2BB09
:100F9800002211464068FFF7A5BB002211464068B1
:100FA800FFF7B0BB00231A4619464068FFF7B2BBEB
:100FB80000231A4619464068FFF7B4BB002281F0A7
:100FC80001014068FFF7B6BB00224068FFF7C2BBCB
:100FD800002211464068FFF7C5BB00221146406851
:100FE800FFF7B0BB70B516468EB0044608A8FFF7E9
:100FF80093FD1122002103A800F053FA304600F0B7
:101008008FFA00250A4B009581B25B6803AA304627
:10101800FFF73CFB20B129462046FFF79DFD03E082
:1010280003A92046FFF786FD20460EB070BD00BF1D
:101038000C080020024B034A1A6000225A607047CD
:101048001408002050170A0810B504460F48FFF787
:10105800CDFB28B1A4F10D03022B01D8002010BD4F
:1010680000F08EF8FFF72CFF08B1012CF6D9FFF736
:10107800C3FEFFF7BDFE18B1A4F11203012BEDD991
:10108800172C8CBF0020012010BD00BF1C080020B9
:10109800172838B504460D460AD8FF2908D0FFF7A7
:1010A800D3FF28B129462046BDE83840FFF7ECB900
:1010B80038BD38B504460D46FFF7EEF9FF2810D0C5
:1010C800062804D84D2323FA00F0C30709D4204684
:1010D800FFF7BAFF28B129462046BDE83840FFF798
:1010E800E3B938BD10B50446FFF7D6F90438C0B2E5
:1010F800012808D92046FFF7A7FF20B12046BDE800
:101108001040FFF7D9B9002010BD000070B50C4C95
:101118000C4E0D4D00212046FFF754FB20460B4C8A
:101128003246294600F04CF801212046FFF74AFBD9
:10113800324629462046BDE8704000F041B800BF5D
:101148001C08002068030020BD070A082C0800209E
:1011580013B5084C00231A46194600932046FFF79A
:1011680011FD2046044A054902B0BDE8104000F0D0
:1011780027B800BF4008002068030020DD0A0A08DD
:1011880038B50B4D296811F001040FD12846FEF738
:1011980082FF58B121460748FFF780FE2846FEF730
:1011A8007FFF054A0549034800F00AF8014838BDA1
:1011B800580800205C080020680300204D0E0A082B
:1011C8000B460146184600F053B9FEF762BF00000F
:1011D800184B1A68D1075CBF01221A60164B1A68AF
:1011E800D2075CBF01221A60144B1A68D0075CBF93
:1011F80001221A60124B1A68D1075CBF01221A60DB
:10120800104B1A68D2075CBF01221A600E4B1A688D
:10121800D0075CBF01221A600C4B1A68D1075CBF6B
:1012280001221A600A4B1A68D2075CBF01221A60B1
:10123800704700BF8C080020880800208408002020
:10124800800800207C08002078080020740800200E
:1012580070080020244B1A68D0075CBF01221A606E
:10126800224B1A68D1075CBF01221A60204B1A680A
:10127800D2075CBF01221A601E4B1A68D0075CBFF8
:1012880001221A601C4B1A68D1075CBF01221A6040
:101298001A4B1A68D2075CBF01221A60184B1A68E9
:1012A800D0075CBF01221A60164B1A68D1075CBFD1
:1012B80001221A60144B1A68D2075CBF01221A6017
:1012C800124B1A68D0075CBF01221A60104B1A68CB
:1012D800D1075CBF01221A600E4B1A68D2075CBFA7
:1012E80001221A60704700BFBC080020B80800201F
:1012F800B4080020B0080020AC080020A80800208E
:10130800A4080020A00800209C08002098080020BD
:101318009408002090080020244B1A68D0075CBF6E
:1013280001221A60224B1A68D1075CBF01221A6099
:10133800204B1A68D2075CBF01221A601E4B1A683C
:10134800D0075CBF01221A601C4B1A68D1075CBF2A
:1013580001221A601A4B1A68D2075CBF01221A6070
:10136800184B1A68D0075CBF01221A60164B1A681E
:10137800D1075CBF01221A60144B1A68D2075CBF00
:1013880001221A60124B1A68D0075CBF01221A604A
:10139800104B1A68D1075CBF01221A600E4B1A68FD
:1013A800D2075CBF01221A60704700BFEC0800201A
:1013B800E8080020E4080020E0080020DC080020FD
:1013C800D8080020D4080020D0080020CC0800202D
:1013D800C8080020C4080020C0080020184B1A685C
:1013E800D1075CBF01221A60164B1A68D2075CBF8E
:1013F80001221A60144B1A68D0075CBF01221A60D8
:10140800124B1A68D1075CBF01221A60104B1A6888
:10141800D2075CBF01221A600E4B1A68D0075CBF66
:1014280001221A600C4B1A68D1075CBF01221A60AE
:101438000A4B1A68D2075CBF01221A60704700BFC6
:101448000C090020080900200409002000090020D8
:10145800FC080020F8080020F4080020F00800200C
:10146800024B0A460146186800F023B864030020BE
:1014780010B5054C13462CB10A4601460220AFF3BD
:10148800008010BD204610BD0000000010B5431EAE
:101498000A44914204D011F8014B03F8014FF8E7D0
:1014A80010BD03460244934202D003F8011BFAE739
:1014B800704738B502FB01F42146FFF773F905467A
:1014C80018B122460021FFF7ECFF284638BD00007E
:1014D80038B5124B05461C68A36BD3B91820FFF723
:1014E80051F943F20E33A06303804AF6CD334380AB
:1014F80041F2342383804EF26D63C3804DF6EC6372
:101508000381052343810B23838101220023C0E942
:101518000423A36B00221D615A6138BD64030020B7
:10152800034613F8012B002AFBD1181A013870471B
:101538001D000A085D000A0889000A088D000A08CB
:101548000000000050756C73616E7465203D2000CA
:101558000000000000000000BD070A08BF070A08D5
:1015680066006C6E00666E00636F64650064657487
:1015780061696C000D0A00253031307520005D204E
:10158800002564002C200028293A2000205B0063F5
:101598006F6465203D200025690064657461696C8D
:1015A80073203D2000626175640053657269616C47
:1015B8000055534253657269616C310074797065E6
:1015C80000706172616D00636D6400696400686E2B
:1015D80064007374726D0066696C74006C766C00DC
:1015E80061646448616E646C65720072656D6F76E3
:1015F8006548616E646C657200656E756D48616EF4
:10160800646C657273004A534F4E53747265616D12
:101618004C6F6748616E646C657200617070006E33
:101628006F6E6500747261636500696E666F00773E
:1016380061726E006572726F720070616E6963002C
:10164800616C6C005A00252B3033643A25303275B2
:101658000025592D256D2D25645425483A254D3AE8
:101668002553257A0061736374696D650000000075
:101678000000000000000000ED0A0A08DD0A0A0860
:10168800DF0A0A080000000000000000A90B0A0891
:10169800F90B0A08070C0A0815080A08E50B0A08D6
:1016A800AB0B0A08C10B0A08F30B0A08D70B0A0888
:1016B800A50B0A080000000000000000490D0A08F8
:1016C800990D0A08A70D0A0815080A085D0D0A08E9
:1016D8007F0D0A086B0D0A08930D0A084B0D0A08BE
:1016E8004F0D0A0800000000000000004D0E0A0817
:1016F800970E0A086F0E0A084F0E0A08770E0A0896
:101708007F0E0A08870E0A088F0E0A0800000000DC
:1017180000000000670F0A085D0F0A08530F0A0847
:10172800D10E0A0837090A08470F0A083B0F0A08AA
:10173800330F0A08290F0A081F0F0A08DB0E0A08C8
:101748000000000000000000850F0A088F0F0A083B
:10175800990F0A08A30F0A08AD0F0A08B90F0A085B
:10176800C50F0A08D10F0A08D90F0A08E30F0A089B
:10177800ED0F0A0800000000000000000000000053
:101788000000000000000000000000000000000051
:101798000000000000000000000000000000000041
:1017A8000000000000000000000000000000000031
:1017B8000000000000000000000000000000000021
:1017C8000000000000000000000000000000000011
:1017D8000000000043000000AD020A087B040A086C
:1017E800FD070A0845090A0855090A0889090A0867
:1017F800710F0A083D100A0815110A0859110A083C
:10180800D9110A085D120A0821130A08E5130A0803
:081818000000000000000000C8
:0418200000000000C4
:101824006D160A08000000007C170A089C170A08B5
:10183400BC170A08000000000000000000000000BF
:1018440000000000DC170A0800000000000000008F
:101854000000000000000000000000000000000084
:101864000000000000000000000000000000000074
:101874000000000000000000000000000000000064
:08188400000000000403002035
:10188C00FFFFFFFF00000102030405060708090A19
:10189C000B0C0D0E0F101112131415161718191A14
:0818AC001B1C1D1E1F2028005B
:0418B400785634121C
:04000005080A0018CD
:00000001FF
