:02000004080AE8
:1000000000000A08A4310A080000060006000501E5
:080010000402BD040000000021
:10001800E82C0A0809480A4908B5884205D0094A5F
:10002800824202D0121A02F087FD0748074A0021CF
:10003800121A02F08CFD064808BD00BF000300201C
:1000480004310A087803002078030020640900209E
:100058006409002070B501F0BBF8074B074C1E4639
:10006800E41AA4080025A54204D056F8253098477C
:100078000135F8E770BD00BFB8300A08F8300A0843
:1000880000F014B808B500F0C1F8BDE8084001F068
:1000980061B800F0E5BD00F0EBBD0078B0FA80F083
:1000A80040097047012303707047000008B500211C
:1000B800032001F0C7FB114B0121188801F0C2FB96
:1000C8000F4B0121188801F0BDFB0E4B0121188848
:1000D80001F0B8FB002302220B490C4800F0A8FDF0
:1000E8000B490C4A0C4801F0B5F801F09DF9BDE840
:1000F80008404FF4165101F07DB900BF08030020F5
:100108000403002000030020D8030020FC2C0A0868
:1001180091010A08042D0A0831120A0838B5124B51
:10012800124C1A68124B134D1B68208803EB4203CC
:10013800114A0021126803EB8203104A126803EB8C
:10014800C203DB002B6001F08EFB0D490D482B78B4
:1001580009780078012201F0B2FB20880121BDE86E
:10016800384001F080BB00BFA40300200803002032
:10017800A0030020C4030020A8030020AC03002033
:10018800000300200403002008B500F021FE034B03
:100198001860FFF7C3FF012008BD00BFA4030020BB
:1001A80038B500240021134800F078FB05461148B3
:1001B80000F090FBA0B90134052CF3D10E4B0F4988
:1001C8000022C1E900230E49C1E9002301F02CF9FE
:1001D8000C4900F037FE00F0DDFB0B4B186038BD12
:1001E800042CEBD0284601F09BFE054BC3E9000127
:1001F800F1E700BF800300200000F87FD003002053
:10020800B0030020102D0A08BC03002073B503209A
:1002180001F042FB3E4E3F4C3368206098423E4D11
:1002280003D1002000F044FF0EE03C4B1860FFF7BC
:1002380075FF2368336000F0ADFB286001F0F4F827
:100248000A22296800F056FE2B68334E002B07DD82
:1002580000F0A0FB3368C01A41F28733984234D8C3
:1002680000F098FB2E4B1B68C01A40F6C313984247
:1002780001D9FFF795FF00F08DFB2A4C2368C01ABF
:1002880041F2873398420BD901F0CEF8022300934C
:10029800254BD3E9002300F0E5FE00F07BFB20604E
:1002A800224C23682646C3B900F074FB204D2B6806
:1002B800C01A41F2873398420FD91E4A01231360AE
:1002C800236000F067FB28601BE01B4B22681A6064
:1002D800FFF724FF00233360C2E73368012B15D1F1
:1002E80000F058FB124C2368C01A41F28733984239
:1002F8000CD9104A002313600C4A136000F04AFB23
:10030800206002B0BDE87040FFF708BF02B070BDC2
:10031800B8030020D8030020C8030020A003002051
:10032800BC0300207C030020B0030020C003002091
:10033800CC030020AC030020A803002010B5074C14
:1003480000F0D0FA01220721204600F0AFF920463C
:10035800BDE81040024A034901F02EBB800300208B
:100368007803002019070A0802881C2353434268AF
:10037800D118D3588A885A83704738B504460D4631
:1003880000F0B0FA00216060284601F05BFA258091
:10039800204638BD70B5054601F0A8F80021288828
:1003A80000F0A8FA01F0A4F87D24013C14F0FF0441
:1003B8002FD0022000F0E6FA288800F0B3FA10F0F7
:1003C800FF0FF2D001F092F82846FFF7CDFF012188
:1003D800288800F08FFA01F08BF84FF4F07000F0E5
:1003E800D1FA00F0DFFA00210646288800F082FAE8
:1003F800462000F0C7FA288800F094FAC0B2B0FA94
:1004080080F4304600F0D6FA4FF4CD70640900F05D
:10041800B9FA204670BD70B511F00106044615D032
:1004280000F0C0FA05462046FFF79EFF012120880C
:1004380000F060FA012000F0A5FA0021208800F001
:1004480059FA284600F0B6FA3B2014E000F0AAFA60
:1004580005462046FFF788FF0121208800F04AFA68
:10046800412000F08FFA3146208800F043FA2846F0
:1004780000F0A0FA0520BDE8704000F083BA38B556
:10048800044600F08FFA05462046FFF76DFF01216C
:10049800208800F02FFA012000F074FA002120884B
:1004A80000F028FA0D2000F06DFA208800F03AFAE2
:1004B8000446284600F07EFA2E2000F063FAE0B2E7
:1004C80038BD2DE9F041054688461746082601241F
:1004D80018EA040F14BF012100212846FFF79BFFEB
:1004E8006400013EE4B2F3D18FB100F0FFFF2A8827
:1004F8001C2353436A68D118D3588A8801211A8368
:10050800288800F0F7F9BDE8F04100F0F1BFBDE838
:10051800F081F8B507460826002501243846FFF77C
:10052800AEFF00B125436400013EE4B2F6D128468F
:10053800F8BD70B500220C4655210646FFF7C1FFED
:10054800651E073415F8011F00223046FFF7B9FF72
:10055800A542F7D170BD0022CC21FFF7B2BF00231E
:1005680003748374437400F11002083002F8013DEB
:100578008242FBD170472DE9F047857C04468846C6
:10058800002D5ED1FFF706FF20B92074A0746074B7
:10059800BDE8F0872A46F02120460126FFF791FFA3
:1005A800AA4637462046FFF76AFF81462046FFF7EE
:1005B80066FFB9F1010F02D101281BD137E081454F
:1005C80004EB05031ED1227C974207D21A7A164201
:1005D80014BF4FF001094FF0000904E00CBF4FF0C1
:1005E80001094FF00009B9F1000F03D1082F08D80D
:1005F800677406E06219137A4FF0010933431372E6
:1006080004E0BA461A7A22EA06021A7249462046D5
:100618007600FFF700FF16F0FF0604BF0135EDB2C4
:1006280007F1010708BF0126072DFFB2BAD9402FED
:1006380007D984F810A0BAF1000F12D10123A374CE
:100648000FE000202074A0746074E31D08F1FF38E7
:100658000F3413F8012FA34208F8012FF9D1BDE890
:10066800F087237A002BECD00120EEE730B5054661
:1006780000200139C9B2FF2913D015F8014B08220F
:1006880080EA040313F0010F4FEA50001CBF80F00A
:100698008C03D8B2531E13F0FF024FEA5404EFD173
:1006A800E7E730BD00F01EB900F01CB970B504468C
:1006B80000236360A360E36023616361237663764C
:1006C80040F2EE23A276E36114200E46FFF7E1FC28
:1006D800054610B13146FFF750FE2560204670BD33
:1006E80038B500F110050C4600682946FFF743FFAE
:1006F800031E17BF2B68236023606B6818BF012097
:10070800636008BF002038BD00F11001FFF7E8BFA3
:1007180010B504461421006801F053F9204610BDB5
:100728000068FFF71CBF0000F8B5837E04460D463D
:1007380016461BB90B78002B00F0A3802068FFF742
:1007480029FEA37E23B11EB92068FFF704FF03E04A
:1007580029462068FFF7EDFE002244212068FFF7B4
:10076800B0FEE06900F0A4FC2068FFF713FEA37E4A
:1007780023B11EB92068FFF7EEFE03E02946206882
:10078800FFF7D7FE0022BE212068FFF79AFE2B78DC
:10079800262B04D1002211462068FFF792FEE61CA2
:1007A80004F10C072068FFF7B4FE06F8010FBE42FB
:1007B800F8D10821201DFFF759FF237B20769842A6
:1007C80063765ED12B78222B1BD016D8102B58D1EC
:1007D800E37AA088102B08BFA37A4FEAC00002BFB3
:1007E80020F00F00C3F10C03C01800B201F0EEFFB7
:1007F8004FF0765102F03EF8F8BD262B1FD0282B7B
:100808003FD1227A237902F06002202A05D0402ABB
:1008180006D042B923F0070304E023F0030301E004
:1008280023F0010323712379607943EA002000B2A1
:1008380001F064FB0022144B01F0C6FB1EE0A57911
:10084800284601F05BFB064660790F46C00801F0B8
:10085800BDFF01F065FB00220C4B01F0B5FB0B4618
:100868002906024648BF0A494FF0000058BF094907
:1008780001F0AAFB32463B4601F0F4F901F09CFE78
:10088800F8BD0548F8BD00BF0000B03F0000A03F1C
:100898000000F0BF0000F03F0000C07F38B5837E45
:1008A80004460D463BB92A4604F110012046BDE82E
:1008B8003840FFF739BF037C002BF4D1FFF730FF36
:1008C8002046FFF721FF0028EDD1014838BD00BFC1
:1008D8000000C07F027E407E131A5842584170477C
:1008E80000F000B808B5024B1B681B68019308BDEF
:1008F800B001060808B5024B1B689B68019308BD48
:10090800B001060808B5024B1B68DB68019308BDF7
:10091800B001060808B5024B1B681B69019308BDA6
:10092800B001060808B5024B1B685B69019308BD56
:10093800B001060808B5024B1B681B6A019308BD85
:10094800B001060808B5024B1B685B6A019308BD35
:10095800B001060808B5024B1B68DB69019308BDA6
:10096800B401060808B5024B1B681B6A019308BD51
:10097800B401060808B5024B1B685B68019308BD03
:100988009C01060808B5024B1B68DB68019308BD8B
:100998009C01060808B5024B1B685B69019308BDFA
:1009A8009C01060808B5024B1B689B6B019308BDA8
:1009B8009C01060808B5024B1B68DB6B019308BD58
:1009C8009C01060808B5024B1B681B6B019308BD08
:1009D800D001060808B5024B1B689B69019308BD46
:1009E800C401060808B5024B1B685B6A019308BD81
:1009F800C401060808B5024B1B689B6A019308BD31
:100A0800C401060808B5024B1B68DB6A019308BDE0
:100A1800C401060808B5024B1B681B6B019308BD8F
:100A2800C401060808B5024B1B685B6B019308BD3F
:100A3800C401060808B5024B1B689B6B019308BDEF
:100A4800C401060808B5024B1B681B6C019308BD5E
:100A5800C401060808B5024B1B681B6E019308BD4C
:100A6800AC01060808B5024B1B685B6E019308BD14
:100A7800AC01060808B5024B1B689B6E019308BDC4
:100A8800AC01060808B5024B1B68DB6E019308BD74
:100A9800AC01060808B5024B1B681B6F019308BD23
:100AA800AC01060808B5024B1B685B6F019308BDD3
:100AB800AC01060808B5034B1B68D3F880300193D6
:100AC80008BD0000AC01060808B5024B1B681B688E
:100AD800019308BDD801060808B5024B1B685B687E
:100AE800019308BDD801060808B5024B1B681B69AD
:100AF800019308BDD801060808B5024B1B685B695D
:100B0800019308BDD801060808B5024B1B689B690C
:100B1800019308BDD801060808B5024B1B68DB69BC
:100B2800019308BDD801060808B5024B1B681B6A6B
:100B3800019308BDD801060808B5024B1B689B6CD9
:100B4800019308BDC001060808B5024B1B685B6825
:100B5800019308BDA401060808B5024B1B685B6930
:100B6800019308BDA401060808B5034B1B68D3F818
:100B78009030019308BD0000A401060808B5034B96
:100B88001B68D3F89C30019308BD0000A401060837
:100B980008B5024B1B685B68019308BDC8010608CD
:100BA80008B5024B1B689B68019308BDC80106087D
:100BB80008B5024B1B68DB68019308BDC80106082D
:100BC80008B5024B1B681B69019308BDC8010608DC
:100BD80008B5024B1B685B69019308BDC80106088C
:100BE80008B5024B1B689B69019308BDC80106083C
:100BF80008B5024B1B68DB69019308BDC8010608EC
:100C080008B5024B1B681B6A019308BDC80106089A
:100C180008B5024B1B681B6B019308BDC801060889
:100C280008B5024B1B685B6B019308BDC801060839
:100C380008B5024B1B681B68019308BDCC01060868
:100C480008B5024B1B685B68019308BDCC01060818
:100C580008B5024B1B68DB6B019308BDCC01060885
:100C680008B5024B1B681B68019308BDA001060864
:100C780008B5024B1B685B68019308BDA001060814
:100C880008B5024B1B689B68019308BDA0010608C4
:100C9800704710B50446102100F093FE204610BDA1
:100CA80070B504460E46074B0025036040F80C5FFC
:100CB800FFF788FE30462671FFF74CFEA5602046F8
:100CC80070BD00BF282D0A080079FFF74BBE000051
:100CD8004FF6FF72034B0020187058809A80FFF778
:100CE80033BF00BFDC03002010B504460068FFF7DF
:100CF800BFFF204610BD10B50446006808B1FFF7D5
:100D0800B7FF00232360A360636010BD38B50446B5
:100D18000D4600680131FFF7B3FF10B184E82100E8
:100D2800012038BD10B50368044613B143688B42EF
:100D380007D22046FFF7EAFF20B1A3680BB9226863
:100D48001370012010BD70B50E46114604461546B5
:100D5800FFF7E8FF18B92046FFF7CDFF09E02A465C
:100D68003146A560206801F0E7FE2268A3680021EB
:100D7800D154204670BD38B5002304460360436053
:100D8800836003730D4639B1084601F011FF294607
:100D980002462046FFF7D7FF204638BD884210B5E7
:100DA8000B46044607D0096819B19A68FFF7CBFFCC
:100DB80001E0FFF7A0FF204610BD10B50446002350
:100DC8000360436083600373FFF7E8FF204610BDAC
:100DD800006808B101F09EBE7047F8B506460D469A
:100DE8008F180024BD420CD0336815F8011B9B688E
:100DF80030469847002801DB0444F3E7002C08BF7D
:100E080004462046F8BD70B505460C46084649B16B
:100E180001F0CEFE2B68024621462846BDE8704008
:100E2800DB68184770BD03689B68184738B50D2103
:100E38000546FFF7F8FF0A2104462846FFF7F3FFA7
:100E4800204438BD38B50546FFF7DDFF044628467F
:100E5800FFF7ECFF204438BD012A98BF0A2230B5BD
:100E68000B468BB000218DF824100DF12304B3FB41
:100E7800F2F505FB1233DBB2092B94BF303337335D
:100E8800DBB2214604F801392B46002DEFD1FFF7DC
:100E9800BAFF0BB030BD10B422B90368C9B29B6861
:100EA80010BC1847D2B210BCFFF7D6BFFFF7F3BF8C
:100EB8002DE9F04107460E4615462AB9BDE8F0412E
:100EC8000368C9B29B6818470A2A02D1002901DAC7
:100ED80004E0D2B2BDE8F041FFF7BEBF2D21FFF715
:100EE800A2FF2A46044671423846FFF7B5FF204460
:100EF800BDE8F08138B50546FFF7DAFF0446284615
:100F0800FFF794FF204438BD2DE9F8431946804681
:100F1800104617461E469DF8205001F0EFFA08B11A
:100F2800474912E026F000444FF0FF32454B38465F
:100F3800214601F0E3FA68B94FF0FF32414B3846D9
:100F4800214601F0BDFA28B93F494046FFF75BFF4B
:100F5800BDE8F8834FF060423C4B3846314601F01B
:100F6800C3FA08B13A49F0E74FF06042394B3846C6
:100F7800314601F09BFA0028F4D1002200233846BC
:100F8800314601F093FA38B12D214046FFF74BFF67
:100F980006F10046044600E004462F494FF00009D8
:100FA80000205FFA89F39D4206D900222B4B01F0FD
:100FB80035F909F10109F4E73A46334600F052FEE3
:100FC8000F46064601F0D8FA0A22014681464046F5
:100FD800FFF742FF04447DB3484600F07FFF024616
:100FE8000B463046394600F03BFE06460F46404663
:100FF8001B49FFF708FF0444184B002230463946C6
:1010080000F0E2FF0F46064601F08EFA0A2201467A
:1010180081464046FFF74CFF0444484600F06EFF07
:1010280002460B463046394600F01AFE013D15F0DF
:10103800FF0506460F46DFD12046BDE8F88300BF0E
:10104800302D0A08FFFFEF7F3A2D0A08FFFFEF4116
:10105800342D0A08FFFFEFC10000E03F00002440E4
:10106800382D0A0837B59DF8181005460091FFF786
:101078004BFF04462846FFF7D9FE204403B030BD95
:1010880000231A4619464068FFF7A2BD014A024BE1
:101098001A607047F72D0A08E4030020024B1A680B
:1010A800024B1A60704700BF0C030020E8030020C1
:1010B8000021FFF751BD10B58368044613B1032220
:1010C80001469847204610BD10B50446FFF7F3FFC8
:1010D800204610BD034800238360034A034900F0FB
:1010E8006BBC00BFEC03002078030020D1100A0875
:1010F80008B5144B33B100F097F903681B6998479A
:10110800002816DC104B33B100F050FA03681B6955
:101118009847002810DC0D4B0BB1AFF300800C4B47
:101128007BB100F0BDF903681B699847002806DC0D
:1011380008BDAFF30080E5E7AFF30080EBE7AFF35E
:10114800008008BD00000000000000000000000052
:101158000000000008B5FFF7CBFFFFF71BFC014BB1
:10116800186008BD900800200248034A0349121A73
:1011780001F0E2BC004002400440024000310A088D
:1011880007B5002300931A466FF07701FFF7F6FCC6
:1011980003B05DF804FB000007B543880A2B08D0AC
:1011A800502B09D1094B1B683BB103B05DF804EB28
:1011B8001847FFF7E5FF06E0002300931A466FF093
:1011C8007701FFF7DBFC03B05DF804FBFC030020AC
:1011D80038B5104C104D2368AB42104B0CBF0122A0
:1011E80000221A7002D0FFF7BFFF2560FFF7C2FB8D
:1011F800044601F0B5FC0A4B13B12046AFF300805A
:1012080000210748FFF724FDBDE8384000210548C4
:10121800FFF7AABC004002401E1C279A00040020C9
:1012280000000000A1110A0810B588B004466846FD
:10123800FFF7A1FD694604A8FFF7BFFD04A8A04772
:10124800044604A8FFF750FD6846FFF74DFD204609
:1012580008B010BDF0B507460E46154685B01024F7
:1012680022460021684601F072FC002269461046B9
:10127800ADF80040029703960195FFF7E1FC05B031
:10128800F0BD704710B50446182100F09AFB2046BF
:1012980010BDF8B50F4600F10806051D002416F824
:1012A800011D0A223846FFF701FEAE42044407D06A
:1012B800002CF4D02E213846FFF7B5FD0444EEE7A4
:1012C8002046F8BD10B50446044B112240F8043BF3
:1012D800002101F03CFC204610BD00BF542E0A0836
:1012E8000346074A10B543F8042B01F1100251F8E0
:1012F800044B914243F8044BF9D10A781A7010BD97
:10130800542E0A08024A416002600422027570479E
:10131800542E0A0810B59DF8084044EA032343EA0E
:10132800024242EA016104234160037510BD0000D6
:1013380037B5044D05609DF818500095FFF7EAFF92
:1013480003B030BD542E0A0841747047704708B581
:101358000021007CFFF7D8FB30EA200028BF4FF0BF
:10136800FF3008BD08B50121007CFFF7CDFB30EA4E
:10137800200028BF4FF0FF3008BD08B5007CFFF7FC
:10138800BBFB20EAE07008BD08B5007CFFF7ACFBAA
:1013980020EAE07008BD007CFFF7C6BB10B5044624
:1013A800142100F00EFB204610BD38B50446007C21
:1013B8000D46FFF7A1FB002801DC607C28B1294617
:1013C800207CFFF7A9FB20EAE07038BD10B5044681
:1013D800002363604FF47A73A360054B08462360CB
:1013E8000123217463741146FFF76EFB204610BD7C
:1013F800682E0A080022007CFFF76EBB10B5044671
:101408001422002101F0A3FB054B20466360054B25
:10141800E36040F2011323818123238210BD00BFC2
:10142800890400200804002030B50E4D87B001A8BB
:10143800FFF7E4FF296811F0010410D12846FEF7F0
:101448002CFE60B101AA21460748FFF7BFFF2846D6
:10145800FEF728FE054A0649034800F0ADFA02489F
:1014680007B030BD040400208C050020780300205C
:1014780055130A0810B504461422002101F067FB31
:10148800054B20466360054BE36040F2011323815E
:101498008123238210BD00BF3C060020A405002044
:1014A80010B50E4C86B001A8FFF7E4FF2368DB07F0
:1014B80010D42046FEF7F1FD60B101AA01210848C9
:1014C800FFF784FF2046FEF7EDFD064A064904486B
:1014D80000F072FA024806B010BD00BFA005002057
:1014E800280600207803002055130A08FFF72ABAB7
:1014F800FFF720BA70474174704708B5007CFFF7C2
:10150800A1FA20EAE07008BD08B5007CFFF772FA7E
:1015180020EAE07008BD08B5007CFFF77BFA30EAE6
:10152800200028BF4FF0FF3008BD08B5007CFFF74A
:1015380069FA30EA200028BF4FF0FF3008BD007C70
:10154800FFF770BA10B50446142100F03AFA2046A5
:1015580010BD70B5457C04460E4625B9007CFFF7E2
:1015680071FA002805DD3146207CBDE87040FFF7A0
:1015780039BA284670BD000010B504460846114621
:10158800002262604FF47A72A260054A20742260D9
:10159800012262741A46FFF71DFA204610BD00BFEB
:1015A800982E0A08007CFFF745BA000038B50C4DA4
:1015B800296811F0010411D12846FEF76EFD68B1C3
:1015C800084A2146084B0948FFF7D6FF2846FEF788
:1015D80069FD074A0749054800F0EEF9034838BD98
:1015E800D8070020DC07002054070020400700200F
:1015F80078030020FD140A087047F8B5064615461A
:101608000C468F18BC4206D0336814F8011B9B683F
:1016180030469847F6E72846F8BD0022007CFFF7D9
:1016280019BA0021007CFFF71DBA0021007CFFF7E2
:1016380021BA0021007CFFF725BA0021007CFFF7C2
:1016480029BA10B50446142100F0BBF9204610BD94
:1016580010B5044608464FF47A73A360044B002182
:10166800207461602360FFF725FA204610BD00BF93
:10167800C82E0A080021007CFFF714BA0022114680
:101688004068FFF79DBAF0B5164689B011220F469B
:101698000446002103A801F05AFA304601F088FAFE
:1016A8000025009581B27B6803AA3046FFF744FA0B
:1016B80020B129462046FFF725FE03E003A920466E
:1016C800FFF70EFE204609B0F0BD00221146406823
:1016D800FFF796BA002211464068FFF7A1BA002228
:1016E8004068FFF795BA002281F001014068FFF7D2
:1016F8007FBA00231A4619464068FFF771BA0022DC
:1017080011464068FFF74CBA002202214068FFF7F3
:101718004FBA00231A464068FFF73ABA024B042230
:101728005A60024A1A60704760080020F02E0A08C2
:1017380000231A464068FFF72BBA002202214068AE
:10174800FFF736BA002211464068FFF729BA00228F
:1017580011464068FFF734BA00231A461946406814
:10176800FFF736BA00231A4619464068FFF738BA19
:10177800002281F001014068FFF73ABA0022406870
:10178800FFF746BA002211464068FFF749BA00221F
:1017980011464068FFF734BA70B516468EB0044655
:1017A80008A8FFF78FFD1122002103A801F0CFF947
:1017B800304601F0FDF900250A4B009581B25B68BF
:1017C80003AA3046FFF7B8F920B129462046FFF7AB
:1017D80099FD03E003A92046FFF782FD20460EB0DD
:1017E80070BD00BF60080020024B034A1A60002247
:1017F8005A60704768080020242F0A0810B504466C
:101808000F48FFF761FA28B1A4F10D03022B01D8A4
:10181800002010BD00F0B0F8FFF72CFF08B1012C34
:10182800F6D9FFF7C3FEFFF7BDFE18B1A4F1120306
:10183800012BEDD9172C8CBF0020012010BD00BF53
:1018480070080020172838B504460D460AD8FF2925
:1018580008D0FFF7D3FF28B129462046BDE8384015
:10186800FFF748B838BD38B504460D46FFF74AF8C3
:10187800FF2810D0062804D84D2323FA00F0C30708
:1018880009D42046FFF7BAFF28B129462046BDE80B
:101898003840FFF73FB838BD10B50446FFF732F8B7
:1018A8000438C0B2012808D92046FFF7A7FF20B1A5
:1018B8002046BDE81040FFF735B8002010BD2DE9DF
:1018C800F04190461E4607460D460724B8F1000F22
:1018D80004D1C4F1070146FA01F101E046FA04F126
:1018E80001F001013846FFF7BEFF01212846FFF746
:1018F800BAFF00212846FFF7B6FF14F1FF34E5D2FE
:10190800BDE8F08170B50C4C0C4E0D4D0021204601
:10191800FFF7C6F920460B4C3246294600F04CF832
:1019280001212046FFF7BCF9324629462046BDE88A
:10193800704000F041B800BF700800207803002014
:10194800990C0A088008002013B5084C00231A4691
:10195800194600932046FFF7EBFC2046044A054948
:1019680002B0BDE8104000F027B800BF940800207E
:10197800780300208B120A0838B50B4D296811F03E
:1019880001040FD12846FEF788FB58B121460748C5
:10199800FFF75EFE2846FEF785FB054A0549034822
:1019A80000F00AF8014838BDAC080020B008002053
:1019B8007803002001160A080B460146184601F074
:1019C800ADB8FEF768BB0000184B1A68D1075CBFBA
:1019D80001221A60164B1A68D2075CBF01221A60EE
:1019E800144B1A68D0075CBF01221A60124B1A68A0
:1019F800D1075CBF01221A60104B1A68D2075CBF7E
:101A080001221A600E4B1A68D0075CBF01221A60C7
:101A18000C4B1A68D1075CBF01221A600A4B1A687E
:101A2800D2075CBF01221A60704700BFE00800209F
:101A3800DC080020D8080020D4080020D0080020A6
:101A4800CC080020C8080020C4080020244B1A68CD
:101A5800D0075CBF01221A60224B1A68D1075CBF0D
:101A680001221A60204B1A68D2075CBF01221A6053
:101A78001E4B1A68D0075CBF01221A601C4B1A68FB
:101A8800D1075CBF01221A601A4B1A68D2075CBFE3
:101A980001221A60184B1A68D0075CBF01221A602D
:101AA800164B1A68D1075CBF01221A60144B1A68DA
:101AB800D2075CBF01221A60124B1A68D0075CBFBC
:101AC80001221A60104B1A68D1075CBF01221A6004
:101AD8000E4B1A68D2075CBF01221A60704700BF1C
:101AE800100900200C090020080900200409002022
:101AF80000090020FC080020F8080020F408002055
:101B0800F0080020EC080020E8080020E408002085
:101B1800244B1A68D0075CBF01221A60224B1A684E
:101B2800D1075CBF01221A60204B1A68D2075CBF3C
:101B380001221A601E4B1A68D0075CBF01221A6086
:101B48001C4B1A68D1075CBF01221A601A4B1A682D
:101B5800D2075CBF01221A60184B1A68D0075CBF15
:101B680001221A60164B1A68D1075CBF01221A605D
:101B7800144B1A68D2075CBF01221A60124B1A680C
:101B8800D0075CBF01221A60104B1A68D1075CBFEE
:101B980001221A600E4B1A68D2075CBF01221A6034
:101BA800704700BF400900203C0900203809002088
:101BB80034090020300900202C09002028090020C1
:101BC80024090020200900201C09002018090020F1
:101BD80014090020184B1A68D1075CBF01221A604B
:101BE800164B1A68D2075CBF01221A60144B1A6898
:101BF800D0075CBF01221A60124B1A68D1075CBF7C
:101C080001221A60104B1A68D2075CBF01221A60C1
:101C18000E4B1A68D0075CBF01221A600C4B1A6879
:101C2800D1075CBF01221A600A4B1A68D2075CBF51
:101C380001221A60704700BF600900205C0900207B
:101C48005809002054090020500900204C090020A0
:101C5800480900204409002081F0004102E000BF4B
:101C680083F0004330B54FEA41044FEA430594EA54
:101C7800050F08BF90EA020F1FBF54EA000C55EA8F
:101C8800020C7FEA645C7FEA655C00F0E2804FEA60
:101C98005454D4EB5555B8BF6D420CDD2C4480EA42
:101CA800020281EA030382EA000083EA010180EA72
:101CB800020281EA0303362D88BF30BD11F0004FC0
:101CC8004FEA01314FF4801C4CEA113102D04042F6
:101CD80061EB410113F0004F4FEA03334CEA133331
:101CE80002D0524263EB430394EA050F00F0A78049
:101CF800A4F10104D5F1200E0DDB02FA0EFC22FA44
:101D080005F2801841F1000103FA0EF2801843FA37
:101D180005F359410EE0A5F120050EF1200E012A28
:101D280003FA0EFC28BF4CF0020C43FA05F3C01866
:101D380051EBE37101F0004507D54FF0000EDCF1DF
:101D4800000C7EEB00006EEB0101B1F5801F1BD388
:101D5800B1F5001F0CD349085FEA30004FEA3C0C8C
:101D680004F101044FEA445212F5800F80F09A8082
:101D7800BCF1004F08BF5FEA500C50F1000041EB86
:101D8800045141EA050130BD5FEA4C0C404141EB8A
:101D9800010111F4801FA4F10104E9D191F0000FB1
:101DA80004BF01460020B1FA81F308BF2033A3F134
:101DB8000B03B3F120020CDA0C3208DD02F1140C2B
:101DC800C2F10C0201FA0CF021FA02F10CE002F166
:101DD8001402D8BFC2F1200C01FA02F120FA0CFC5F
:101DE800DCBF41EA0C019040E41AA2BF01EB0451A8
:101DF800294330BD6FEA04041F3C1CDA0C340EDCA6
:101E080004F11404C4F1200220FA04F001FA02F3E8
:101E180040EA030021FA04F345EA030130BDC4F1A6
:101E28000C04C4F1200220FA02F001FA04F340EA9B
:101E38000300294630BD21FA04F0294630BD94F04C
:101E4800000F83F4801306BF81F480110134013D33
:101E58004EE77FEA645C18BF7FEA655C29D094EAA4
:101E6800050F08BF90EA020F05D054EA000C04BF22
:101E78001946104630BD91EA030F1EBF002100200D
:101E880030BD5FEA545C05D14000494128BF41F0AC
:101E9800004130BD14F580043CBF01F5801130BD10
:101EA80001F0004545F0FE4141F470014FF000009B
:101EB80030BD7FEA645C1ABF194610467FEA655C4C
:101EC8001CBF0B46024650EA013406BF52EA0335EE
:101ED80091EA030F41F4002130BD00BF90F0000FDC
:101EE80004BF0021704730B54FF4806404F1320418
:101EF8004FF000054FF0000150E700BF90F0000FD1
:101F080004BF0021704730B54FF4806404F13204F7
:101F180010F0004548BF40424FF000013EE700BFC7
:101F280042004FEAE2014FEA31014FEA02701FBF57
:101F380012F07F4393F07F4F81F06051704792F029
:101F4800000F14BF93F07F4F704730B54FF46074A3
:101F580001F0004521F0004120E700BF50EA0102EE
:101F680008BF704730B54FF000050AE050EA01029B
:101F780008BF704730B511F0004502D5404261EB0B
:101F880041014FF4806404F132045FEA915C3FF44C
:101F9800DCAE4FF003025FEADC0C18BF03325FEAE5
:101FA800DC0C18BF033202EBDC02C2F1200300FA9A
:101FB80003FC20FA02F001FA03FE40EA0E0021FABF
:101FC80002F11444C1E600BF70B54FF0FF0C4CF4A9
:101FD800E06C1CEA11541DBF1CEA135594EA0C0F5F
:101FE80095EA0C0F00F0DEF82C4481EA030621EA9A
:101FF8004C5123EA4C5350EA013518BF52EA0335D5
:1020080041F4801143F4801338D0A0FB02CE4FF086
:102018000005E1FB02E506F00042E0FB03E54FF0B6
:102028000006E1FB03569CF0000F18BF4EF0010EAE
:10203800A4F1FF04B6F5007F64F5407404D25FEAAA
:102048004E0E6D4146EB060642EAC62141EA55515D
:102058004FEAC52040EA5E504FEACE2EB4F1FD0C9F
:1020680088BFBCF5E06F1ED8BEF1004F08BF5FEA1D
:10207800500E50F1000041EB045170BD06F00046CF
:1020880046EA010140EA020081EA0301B4EB5C047C
:10209800C2BFD4EB0C0541EA045170BD41F4801174
:1020A8004FF0000E013C00F3AB8014F1360FDEBF99
:1020B800002001F0004170BDC4F10004203C35DA75
:1020C8000C341BDC04F11404C4F1200500FA05F3F8
:1020D80020FA04F001FA05F240EA020001F0004299
:1020E80021F0004110EBD37021FA04F642EB06010F
:1020F8005EEA430E08BF20EAD37070BDC4F10C0439
:10210800C4F1200500FA04F320FA05F001FA04F2FC
:1021180040EA020001F0004110EBD37041F10001E8
:102128005EEA430E08BF20EAD37070BDC4F12005F3
:1021380000FA05F24EEA020E20FA04F301FA05F25B
:1021480043EA020321FA04F001F0004121FA04F203
:1021580020EA020000EBD3705EEA430E08BF20EAD3
:10216800D37070BD94F0000F0FD101F0004640000D
:1021780041EB010111F4801F08BF013CF7D041EA8F
:10218800060195F0000F18BF704703F00046520093
:1021980043EB030313F4801F08BF013DF7D043EA64
:1021A8000603704794EA0C0F0CEA135518BF95EA1A
:1021B8000C0F0CD050EA410618BF52EA4306D1D1A1
:1021C80081EA030101F000414FF0000070BD50EAC0
:1021D800410606BF1046194652EA430619D094EA4A
:1021E8000C0F02D150EA013613D195EA0C0F05D134
:1021F80052EA03361CBF104619460AD181EA030188
:1022080001F0004141F0FE4141F470014FF000003F
:1022180070BD41F0FE4141F4780170BD70B54FF0DA
:10222800FF0C4CF4E06C1CEA11541DBF1CEA13555A
:1022380094EA0C0F95EA0C0F00F0A7F8A4EB05043C
:1022480081EA030E52EA03354FEA013100F0888033
:102258004FEA03334FF0805545EA131343EA1263FC
:102268004FEA022245EA111545EA10654FEA0026B1
:102278000EF000419D4208BF964244F1FD0404F56A
:10228800407402D25B084FEA3202B61A65EB0305C6
:102298005B084FEA32024FF480104FF4002CB6EB83
:1022A800020E75EB030E22BFB61A754640EA0C0003
:1022B8005B084FEA3202B6EB020E75EB030E22BF43
:1022C800B61A754640EA5C005B084FEA3202B6EB84
:1022D800020E75EB030E22BFB61A754640EA9C0043
:1022E8005B084FEA3202B6EB020E75EB030E22BF13
:1022F800B61A754640EADC0055EA060E18D04FEAD1
:10230800051545EA16754FEA06164FEAC30343EA70
:1023180052734FEAC2025FEA1C1CC0D111F4801F3D
:102328000BD141EA00014FF000004FF0004CB6E736
:1023380011F4801F04BF01430020B4F1FD0C88BFD5
:10234800BCF5E06F3FF6AFAEB5EB030C04BFB6EBE0
:10235800020C5FEA500C50F1000041EB045170BDD3
:102368000EF0004E4EEA113114EB5C04C2BFD4EB00
:102378000C0541EA045170BD41F480114FF0000E84
:10238800013C90E645EA060E8DE60CEA135594EA00
:102398000C0F08BF95EA0C0F3FF43BAF94EA0C0F03
:1023A8000AD150EA01347FF434AF95EA0C0F7FF478
:1023B80025AF104619462CE795EA0C0F06D152EACC
:1023C80003353FF4FDAE1046194622E750EA4106B0
:1023D80018BF52EA43067FF4C5AE50EA41047FF4C1
:1023E8000DAF52EA43057FF4EBAE12E74FF0FF3C26
:1023F80006E000BF4FF0010C02E000BF4FF0010CF7
:102408004DF804CD4FEA410C7FEA6C5C4FEA430C6F
:1024180018BF7FEA6C5C1BD001B050EA410C0CBFBE
:1024280052EA430C91EA030F02BF90EA020F002020
:10243800704710F1000F91EA030F58BF994208BF87
:1024480090422CBFD8176FEAE37040F00100704744
:102458004FEA410C7FEA6C5C02D150EA013C07D19B
:102468004FEA430C7FEA6C5CD6D152EA033CD3D0E6
:102478005DF8040B704700BF8446104662468C46E0
:102488001946634600E000BF01B5FFF7B7FF002813
:1024980048BF10F1000F01BD4DF808EDFFF7F4FF3C
:1024A8000CBF012000205DF808FB00BF4DF808EDC7
:1024B800FFF7EAFF34BF012000205DF808FB00BFEA
:1024C8004DF808EDFFF7E0FF94BF012000205DF80C
:1024D80008FB00BF4DF808EDFFF7CEFF94BF0120C1
:1024E80000205DF808FB00BF4DF808EDFFF7C4FFBA
:1024F80034BF012000205DF808FB00BF4FEA410C03
:102508007FEA6C5C02D150EA013C0AD14FEA430CE5
:102518007FEA6C5C02D152EA033C02D14FF0000022
:1025280070474FF0010070474FEA410212F5001260
:1025380015D211D56FF47873B3EB625212D94FEA02
:10254800C12343F0004343EA505311F0004F23FAEC
:1025580002F018BF404270474FF00000704750EA41
:10256800013005D111F0004008BF6FF000407047FE
:102578004FF00000704700BF4A0011D212F5001258
:1025880011D20DD56FF47873B3EB62520ED44FEAC3
:10259800C12343F0004343EA505323FA02F0704743
:1025A8004FF00000704750EA013002D14FF0FF3081
:1025B80070474FF0000070474FEA4102B2F1E04324
:1025C80024BFB3F5001CDCF1FE5C0DD901F0004C12
:1025D8004FEAC0024CEA5070B2F1004F40EB830062
:1025E80008BF20F00100704711F0804F21D113F18E
:1025F8003872BCBF01F00040704741F480114FEAC7
:102608005252C2F11802C2F1200C10FA0CF320FA4F
:1026180002F018BF40F001004FEAC1234FEAD3236C
:1026280003FA0CFC40EA0C0023FA02F34FEA4303D6
:10263800CCE77FEA625307D150EA01331EBF4FF05F
:10264800FE4040F44000704701F0004040F0FE407A
:1026580040F40000704700BF80F0004002E000BF77
:1026680081F0004142001FBF5FEA410392EA030F75
:102678007FEA226C7FEA236C6AD04FEA1262D2EBBF
:102688001363C1BFD218414048404140B8BF5B42C4
:10269800192B88BF704710F0004F40F4000020F05D
:1026A8007F4018BF404211F0004F41F4000121F073
:1026B8007F4118BF494292EA030F3FD0A2F10102BD
:1026C80041FA03FC10EB0C00C3F1200301FA03F1FB
:1026D80000F0004302D5494260EB4000B0F5000F1E
:1026E80013D3B0F1807F06D340084FEA310102F1DD
:1026F8000102FE2A51D2B1F1004F40EBC25008BF8F
:1027080020F0010040EA03007047490040EB000058
:1027180010F4000FA2F10102EDD1B0FA80FCACF187
:10272800080CB2EB0C0200FA0CF0AABF00EBC25086
:1027380052421843BCBFD0401843704792F0000F74
:1027480081F4000106BF80F400000132013BB5E7C7
:102758004FEA41037FEA226C18BF7FEA236C21D03D
:1027680092EA030F04D092F0000F08BF08467047A2
:1027780090EA010F1CBF0020704712F07F4F04D170
:10278800400028BF40F00040704712F100723CBF83
:1027980000F50000704700F0004343F0FE4040F4AD
:1027A800000070477FEA226216BF08467FEA23636B
:1027B8000146420206BF5FEA412390EA010F40F456
:1027C800800070474FF0000304E000BF10F00043A2
:1027D80048BF40425FEA000C08BF704743F0964389
:1027E80001464FF000001CE050EA010208BF7047A4
:1027F8004FF000030AE000BF50EA010208BF70472B
:1028080011F0004302D5404261EB41015FEA010C3F
:1028180002BF84460146002043F0B64308BFA3F137
:102828008053A3F50003BCFA8CF2083AA3EBC25319
:1028380010DB01FA02FC634400FA02FCC2F1200238
:10284800BCF1004F20FA02F243EB020008BF20F06F
:102858000100704702F1200201FA02FCC2F12002D5
:1028680050EA4C0021FA02F243EB020008BF20EACA
:10287800DC7070474FF0FF0C1CEAD0521EBF1CEAF8
:10288800D15392EA0C0F93EA0C0F6FD01A4480EAE6
:10289800010C400218BF5FEA41211ED04FF00063CF
:1028A80043EA501043EA5111A0FB01310CF00040FB
:1028B800B1F5000F3EBF490041EAD3715B0040EA21
:1028C800010062F17F02FD2A1DD8B3F1004F40EBF1
:1028D800C25008BF20F00100704790F0000F0CF0C4
:1028E800004C08BF49024CEA502040EA51207F3A88
:1028F800C2BFD2F1FF0340EAC250704740F4000063
:102908004FF00003013A5DDC12F1190FDCBF00F053
:1029180000407047C2F10002410021FA02F1C2F101
:10292800200200FA02FC5FEA310040F1000053EA9D
:102938004C0308BF20EADC70704792F0000F00F0EB
:10294800004C02BF400010F4000F013AF9D040EAF1
:102958000C0093F0000F01F0004C02BF490011F485
:10296800000F013BF9D041EA0C018FE70CEAD15383
:1029780092EA0C0F18BF93EA0C0F0AD030F0004C03
:1029880018BF31F0004CD8D180EA010000F00040B7
:10299800704790F0000F17BF90F0004F084691F075
:1029A800000F91F0004F14D092EA0C0F01D14202AF
:1029B8000FD193EA0C0F03D14B0218BF084608D178
:1029C80080EA010000F0004040F0FE4040F40000C2
:1029D800704740F0FE4040F4400070474FF0FF0C55
:1029E8001CEAD0521EBF1CEAD15392EA0C0F93EA9C
:1029F8000C0F69D0A2EB030280EA010C49024FEAEE
:102A0800402037D04FF0805343EA111143EA1013A6
:102A18000CF000408B4238BF5B0042F17D024FF45E
:102A2800000C8B4224BF5B1A40EA0C00B3EB510F39
:102A380024BFA3EB510340EA5C00B3EB910F24BF22
:102A4800A3EB910340EA9C00B3EBD10F24BFA3EBA7
:102A5800D10340EADC001B0118BF5FEA1C1CE0D16F
:102A6800FD2A3FF650AF8B4240EBC25008BF20F022
:102A7800010070470CF0004C4CEA50207F32C2BF76
:102A8800D2F1FF0340EAC250704740F400004FF013
:102A98000003013A37E792F0000F00F0004C02BF44
:102AA800400010F4000F013AF9D040EA0C0093F00E
:102AB800000F01F0004C02BF490011F4000F013B68
:102AC800F9D041EA0C0195E70CEAD15392EA0C0FD0
:102AD80008D142027FF47DAF93EA0C0F7FF470AF08
:102AE800084676E793EA0C0F04D14B023FF44CAF4B
:102AF80008466EE730F0004C18BF31F0004CCAD1E0
:102B080030F000427FF45CAF31F000437FF43CAF1B
:102B18005FE700BF0A22002100F0D8B810B5054CC5
:102B280013462CB10A4601460220AFF3008010BDBF
:102B3800204610BD0000000010B5431E0A44914213
:102B480004D011F8014B03F8014FF8E710BD034614
:102B58000244934202D003F8011BFAE770470000D1
:102B680038B5124B05461C68A36BD3B91820FEF77D
:102B780077F843F20E33A06303804AF6CD334380DF
:102B880041F2342383804EF26D63C3804DF6EC63CB
:102B98000381052343810B23838101220023C0E99C
:102BA8000423A36B00221D615A6138BD7403002001
:102BB800034613F8012B002AFBD1181A0138704775
:102BC8002DE9F0470F4680463F48D0F800903D4633
:102BD80015F8014B09EB0400407800F0080000F0FC
:102BE800FF0608B12F46F2E72D2C03D1BD1C7C78D7
:102BF800012603E02B2C04BF7C78BD1C13B1102BDD
:102C08000AD15BE0302C57D1287800F0DF00582833
:102C18004DD16C7810230235002E14BF4FF0004CB4
:102C28006FF0004CBCFBF3FA0027384603FB1ACCC4
:102C380009EB040E9EF801E01EF0040F01D0303CB1
:102C48000BE01EF0030E1BD0BEF1010F0CBF4FF0BE
:102C5800370E4FF0570ECEEB0404A34210DDB7F148
:102C6800FF3F0AD0504506D801D1644503DC03FB79
:102C78000040012701E04FF0FF3715F8014BD7E777
:102C88007B1C0CD1002E4FF0220314BF4FF00040E4
:102C98006FF00040C8F800302AB9BDE8F08706B1E7
:102CA800404272B107B1691E1160BDE8F087302457
:102CB800002BB1D10823AFE70A23ADE7302CA3D00E
:102CC800AAE7BDE8F08700BF1003002013460A46B4
:102CD800014602480068FFF773BF00BF7403002075
:102CE8001D000A085D000A0889000A088D000A0804
:102CF80000000000626F74746F6E6500617474691F
:102D0800766152656C617900496E76616C69642000
:102D180072656164696E67000000000000000000D1
:102D2800990C0A089B0C0A086E616E006F766600A3
:102D38002E00696E66006C6E00666E00636F6465D7
:102D48000064657461696C000D0A002530313075C6
:102D580020005D20002564002C200028293A20004E
:102D6800205B00636F6465203D2000256900646571
:102D78007461696C73203D2000626175640053655D
:102D88007269616C0055534253657269616C310018
:102D98007479706500706172616D00636D640069BB
:102DA8006400686E64007374726D0066696C740008
:102DB8006C766C0061646448616E646C6572007264
:102DC800656D6F766548616E646C657200656E75D9
:102DD8006D48616E646C657273004A534F4E53744C
:102DE8007265616D4C6F6748616E646C65720061F5
:102DF8007070006E6F6E6500747261636500696E55
:102E0800666F007761726E006572726F7200706132
:102E18006E696300616C6C005A00252B3033643A8C
:102E2800253032750025592D256D2D2564542548EA
:102E38003A254D3A2553257A0061736374696D65A7
:102E48000000000000000000000000009B120A08BB
:102E58008B120A088D120A0800000000000000000A
:102E680055130A08A5130A08B3130A08E30D0A083C
:102E780091130A0857130A086D130A089F130A08C2
:102E880083130A0851130A0800000000000000001C
:102E9800FD140A084D150A085B150A08E30D0A080F
:102EA80011150A0833150A081F150A0847150A08D4
:102EB800FF140A0803150A080000000000000000BB
:102EC80001160A084B160A0823160A0803160A08E8
:102ED8002B160A0833160A083B160A0843160A086E
:102EE80000000000000000001B170A0811170A085C
:102EF80007170A0885160A0889100A08FB160A081F
:102F0800EF160A08E7160A08DD160A08D3160A0893
:102F18008F160A08000000000000000039170A0890
:102F280043170A084D170A0857170A0861170A08AD
:102F38006D170A0879170A0885170A088D170A08ED
:102F480097170A08A1170A0800202020202020200F
:102F58002020282828282820202020202020202041
:102F68002020202020202020208810101010101051
:102F7800101010101010101010040404040404049D
:102F88000404041010101010101041414141414137
:102F98000101010101010101010101010101010119
:102FA8000101010110101010101042424242424229
:102FB80002020202020202020202020202020202E9
:102FC8000202020210101010200000000000000091
:102FD80000000000000000000000000000000000E9
:102FE80000000000000000000000000000000000D9
:102FF80000000000000000000000000000000000C9
:1030080000000000000000000000000000000000B8
:1030180000000000000000000000000000000000A8
:103028000000000000000000000000000000000098
:103038000000000000000000000000000000000088
:103048000000000000000000000000000000000078
:103058000000000000000000000000000000000068
:103068000000000000000000000000000000000058
:103078000000000000000000000000000000000048
:103088000000000000000000000000000000000038
:103098000000000000000000000000000000000028
:1030A80000000000000000000000000043000000D5
:1030B80045030A08AD060A08B1060A08E9080A081D
:1030C800D90C0A0895100A08A5100A08DD100A0884
:1030D80025170A08F1170A080D190A0851190A08CC
:1030E800D1190A08551A0A08191B0A08DD1B0A080B
:0830F8000000000000000000D0
:0431000000000000CB
:103104000C0000000E0000000D000000412E0A0813
:10311400502F0A080000000054300A0874300A08CE
:1031240094300A08000000000000000000000000C5
:1031340000000000B4300A08000000000000000095
:10314400000000000000000000000000000000007B
:10315400000000000000000000000000000000006B
:10316400000000000000000000000000000000005B
:0831740000000000140300201C
:10317C00FFFFFFFF00000102030405060708090A10
:10318C000B0C0D0E0F101112131415161718191A0B
:08319C001B1C1D1E1F20280052
:0431A4007856341213
:04000005080A0018CD
:00000001FF
