:02000004080AE8
:1000000000000A0838490A08000006000600050139
:080010000402BD040000000021
:10001800E0430A0809480A4908B5884205D0094A50
:10002800824202D0121A02F041FC0748074A002116
:10003800121A02F046FC064808BD00BF0003002063
:1000480064480A08AC030020B00300208809002097
:100058008809002070B500F087FF074B074C1E4643
:10006800E41AA4080025A54204D056F8253098477C
:100078000135F8E770BD00BF1C480A085C480A084B
:1000880000F020B808B500F0C7F8BDE8084000F057
:100098002DBF00F08BBD00F091BD0078B0FA80F064
:1000A80040097047012303707047000008B500F04D
:1000B8003DFE01F001FE024BC3E90001012008BD2D
:1000C800C003002008B50021032001F087FA1A4B6D
:1000D8000121188801F082FA184B0121188801F0D3
:1000E8007DFA174B0121188801F078FA00230222C3
:1000F8001449154800F042FD002309221349144809
:1001080000F03CFD002309221249134800F036FD97
:10011800124A1349134800F069FF002312490222CA
:10012800124800F02BFD01F04BF8BDE808404FF4F1
:10013800165101F02BB800BF00030020080300206F
:1001480004030020FC030020F4430A08C003002035
:10015800FC430A08B803002003440A0817440A08A5
:10016800B5000A08C90F0A08F403002021440A0848
:1001780038B50C4B0C4C1B680C4DDB00208800215B
:100188002B6001F03CFA0A490A482B780978007874
:10019800012201F060FA20880121BDE8384001F011
:1001A8002EBA00BFF403002000030020F80300204B
:1001B800040300200803002038B50024002111485A
:1001C80000F012FB05460F4800F02AFB88B90134FD
:1001D800052CF3D10C490D4B0020C3E9000100F0B8
:1001E800EFFF0B4900F0E1FD00F07AFB094B1860C6
:1001F80038BD042CEED0284601F05EFD034BC3E960
:100208000001F1E7C80300200000F87FE8030020A0
:1002180027440A08F003002038B5032001F008FA43
:10022800134C206000F05CFB124B1B68C01A41F2B3
:100238008733984207D9FFF7BFFF0F4BD3E9000177
:100248000E4BC3E9000125680D4C012D0AD10D4B59
:100258000A49D3E90023D1E9000101F0F3FF08B10D
:10026800256001E000232360BDE83840FFF780BF28
:10027800FC030020F0030020E8030020B80300205E
:10028800F4030020C003002010B5074C00F0D0FA9A
:1002980001220721204600F0AFF92046BDE81040B2
:1002A800024A034901F054BAC8030020B0030020F1
:1002B80065060A0802881C2353434268D118D3589C
:1002C8008A885A83704738B504460D4600F0B0FA5C
:1002D80000216060284601F081F92580204638BD5C
:1002E80070B5054600F0CEFF0021288800F0A8FA76
:1002F80000F0CAFF7D24013C14F0FF042FD0022037
:1003080000F0E6FA288800F0B3FA10F0FF0FF2D0F8
:1003180000F0B8FF2846FFF7CDFF0121288800F03C
:100328008FFA00F0B1FF4FF4F07000F0D1FA00F04E
:10033800DFFA00210646288800F082FA462000F0FD
:10034800C7FA288800F094FAC0B2B0FA80F43046B0
:1003580000F0D6FA4FF4CD70640900F0B9FA2046DF
:1003680070BD70B511F00106044615D000F0C0FA52
:1003780005462046FFF79EFF0121208800F060FA1D
:10038800012000F0A5FA0021208800F059FA28463B
:1003980000F0B6FA3B2014E000F0AAFA0546204621
:1003A800FFF788FF0121208800F04AFA412000F079
:1003B8008FFA3146208800F043FA284600F0A0FA68
:1003C8000520BDE8704000F083BA38B5044600F057
:1003D8008FFA05462046FFF76DFF0121208800F0BF
:1003E8002FFA012000F074FA0021208800F028FA82
:1003F8000D2000F06DFA208800F03AFA04462846ED
:1004080000F07EFA2E2000F063FAE0B238BD2DE944
:10041800F0410546884617460826012418EA040FC5
:1004280014BF012100212846FFF79BFF6400013E0D
:10043800E4B2F3D18FB100F025FF2A881C2353437F
:100448006A68D118D3588A8801211A83288800F04D
:10045800F7F9BDE8F04100F017BFBDE8F081F8B545
:1004680007460826002501243846FFF7AEFF00B1ED
:1004780025436400013EE4B2F6D12846F8BD70B5C4
:1004880000220C4655210646FFF7C1FF651E0734BA
:1004980015F8011F00223046FFF7B9FFA542F7D132
:1004A80070BD0022CC21FFF7B2BF00230374837410
:1004B800437400F11002083002F8013D8242FBD17A
:1004C80070472DE9F047857C04468846002D5ED1AB
:1004D800FFF706FF20B92074A0746074BDE8F087A8
:1004E8002A46F02120460126FFF791FFAA46374603
:1004F8002046FFF76AFF81462046FFF766FFB9F1FD
:10050800010F02D101281BD137E0814504EB050317
:100518001ED1227C974207D21A7A164214BF4FF096
:1005280001094FF0000904E00CBF4FF001094FF03A
:100538000009B9F1000F03D1082F08D8677406E045
:100548006219137A4FF001093343137204E0BA4673
:100558001A7A22EA06021A72494620467600FFF7FE
:1005680000FF16F0FF0604BF0135EDB207F10107E1
:1005780008BF0126072DFFB2BAD9402F07D984F842
:1005880010A0BAF1000F12D10123A3740FE00020CC
:100598002074A0746074E31D08F1FF380F3413F859
:1005A800012FA34208F8012FF9D1BDE8F087237A7B
:1005B800002BECD00120EEE730B5054600200139CC
:1005C800C9B2FF2913D015F8014B082280EA0403A9
:1005D80013F0010F4FEA50001CBF80F08C03D8B213
:1005E800531E13F0FF024FEA5404EFD1E7E730BD82
:1005F80000F01EB900F01CB970B504460023636012
:10060800A360E360236163612376637640F2EE239F
:10061800A276E36114200E46FFF73BFD054610B1B4
:100628003146FFF750FE2560204670BD38B500F111
:1006380010050C4600682946FFF743FF031E17BF45
:100648002B68236023606B6818BF0120636008BFB4
:10065800002038BD00F11001FFF7E8BF10B50446CF
:100668001421006801F079F8204610BD0068FFF7F2
:100678001CBF0000F8B5837E04460D4616461BB91C
:100688000B78002B00F0A3802068FFF729FEA37EDB
:1006980023B11EB92068FFF704FF03E0294620684C
:1006A800FFF7EDFE002244212068FFF7B0FEE06965
:1006B80000F0CAFB2068FFF713FEA37E23B11EB922
:1006C8002068FFF7EEFE03E029462068FFF7D7FE13
:1006D8000022BE212068FFF79AFE2B78262B04D132
:1006E800002211462068FFF792FEE61C04F10C0771
:1006F8002068FFF7B4FE06F8010FBE42F8D10821C2
:10070800201DFFF759FF237B2076984263765ED140
:100718002B78222B1BD016D8102B58D1E37AA0881F
:10072800102B08BFA37A4FEAC00002BF20F00F00C9
:10073800C3F10C03C01800B201F0FEFE4FF0765171
:1007480001F04EFFF8BD262B1FD0282B3FD1227A6F
:10075800237902F06002202A05D0402A06D042B947
:1007680023F0070304E023F0030301E023F001036F
:1007780023712379607943EA002000B201F08AFAF4
:100788000022144B01F0ECFA1EE0A579284601F08E
:1007980081FA064660790F46C00801F0CDFE01F0E7
:1007A8008BFA00220C4B01F0DBFA0B4629060246B5
:1007B80048BF0A494FF0000058BF094901F0D0FA74
:1007C80032463B4601F01AF901F0ACFDF8BD054888
:1007D800F8BD00BF0000B03F0000A03F0000F0BF20
:1007E8000000F03F0000C07F38B5837E04460D4608
:1007F8003BB92A4604F110012046BDE83840FFF70E
:1008080039BF037C002BF4D1FFF730FF2046FFF7F8
:1008180021FF0028EDD1014838BD00BF0000C07F8E
:10082800027E407E131A58425841704700F000B8C3
:1008380008B5024B1B681B68019308BDB001060888
:1008480008B5024B1B689B68019308BDB0010608F8
:1008580008B5024B1B68DB68019308BDB0010608A8
:1008680008B5024B1B681B69019308BDB001060857
:1008780008B5024B1B685B69019308BDB001060807
:1008880008B5024B1B681B6A019308BDB001060836
:1008980008B5024B1B685B6A019308BDB0010608E6
:1008A80008B5024B1B68DB69019308BDB401060853
:1008B80008B5024B1B681B6A019308BDB401060802
:1008C80008B5024B1B685B68019308BD9C010608CC
:1008D80008B5024B1B68DB68019308BD9C0106083C
:1008E80008B5024B1B685B69019308BD9C010608AB
:1008F80008B5024B1B689B6B019308BD9C01060859
:1009080008B5024B1B68DB6B019308BD9C01060808
:1009180008B5024B1B681B6B019308BDD001060884
:1009280008B5024B1B689B69019308BDC401060802
:1009380008B5024B1B685B6A019308BDC401060831
:1009480008B5024B1B689B6A019308BDC4010608E1
:1009580008B5024B1B68DB6A019308BDC401060891
:1009680008B5024B1B681B6B019308BDC401060840
:1009780008B5024B1B685B6B019308BDC4010608F0
:1009880008B5024B1B689B6B019308BDC4010608A0
:1009980008B5024B1B681B6C019308BDC40106080F
:1009A80008B5024B1B681B6E019308BDAC01060815
:1009B80008B5024B1B685B6E019308BDAC010608C5
:1009C80008B5024B1B689B6E019308BDAC01060875
:1009D80008B5024B1B68DB6E019308BDAC01060825
:1009E80008B5024B1B681B6F019308BDAC010608D4
:1009F80008B5024B1B685B6F019308BDAC01060884
:100A080008B5034B1B68D3F88030019308BD00007C
:100A1800AC01060808B5024B1B681B68019308BDAA
:100A2800D801060808B5024B1B685B68019308BD2E
:100A3800D801060808B5024B1B681B69019308BD5D
:100A4800D801060808B5024B1B685B69019308BD0D
:100A5800D801060808B5024B1B689B69019308BDBD
:100A6800D801060808B5024B1B68DB69019308BD6D
:100A7800D801060808B5024B1B681B6A019308BD1C
:100A8800D801060808B5024B1B689B6C019308BD8A
:100A9800C001060808B5024B1B685B68019308BDD6
:100AA800A401060808B5024B1B685B69019308BDE1
:100AB800A401060808B5034B1B68D3F890300193CE
:100AC80008BD0000A401060808B5034B1B68D3F84D
:100AD8009C30019308BD0000A401060808B5024B2C
:100AE8001B685B68019308BDC801060808B5024B7E
:100AF8001B689B68019308BDC801060808B5024B2E
:100B08001B68DB68019308BDC801060808B5024BDD
:100B18001B681B69019308BDC801060808B5024B8C
:100B28001B685B69019308BDC801060808B5024B3C
:100B38001B689B69019308BDC801060808B5024BEC
:100B48001B68DB69019308BDC801060808B5024B9C
:100B58001B681B6A019308BDC801060808B5024B4B
:100B68001B681B6B019308BDC801060808B5024B3A
:100B78001B685B6B019308BDC801060808B5024BEA
:100B88001B681B68019308BDCC01060808B5024B19
:100B98001B685B68019308BDCC01060808B5024BC9
:100BA8001B68DB6B019308BDCC01060808B5024B36
:100BB8001B681B68019308BDA001060808B5024B15
:100BC8001B685B68019308BDA001060808B5024BC5
:100BD8001B689B68019308BDA001060808B5024B75
:100BE8001B681B6B019308BDA0010608704710B570
:100BF8000446102100F0B1FD204610BD70B5044632
:100C08000E46074B0025036040F80C5FFFF780FE97
:100C180030462671FFF744FEA560204670BD00BF30
:100C280040440A080079FFF743BE00004FF6FF7200
:100C3800034B0020187058809A80FFF72BBF00BF25
:100C48000004002010B504460068FFF7B7FF2046EF
:100C580010BD10B50446006808B1FFF7AFFF0023C8
:100C68002360A360636010BD38B504460D46006874
:100C78000131FFF7ABFF10B184E82100012038BD36
:100C880010B50368044613B143688B4207D2204667
:100C9800FFF7EAFF20B1A3680BB92268137001209F
:100CA80010BD70B50E46114604461546FFF7E8FF1D
:100CB80018B92046FFF7CDFF09E02A463146A5605E
:100CC800206801F0F3FD2268A3680021D154204672
:100CD80070BD38B500230446036043608360037326
:100CE8000D4639B1084601F01DFE29460246204648
:100CF800FFF7D7FF204638BD884210B50B4604469B
:100D080007D0096819B19A68FFF7CBFF01E0FFF730
:100D1800A0FF204610BD10B50446002303604360C1
:100D280083600373FFF7E8FF204610BD08B500682D
:100D380020B101F0A5FD01F0F5FA08BD002008BDBD
:100D4800F8B506460D468F180024BD420CD033680E
:100D580015F8011B9B6830469847002801DB0444BE
:100D6800F3E7002C08BF04462046F8BD70B50546D9
:100D78000C46084649B101F0D5FD2B6802462146CC
:100D88002846BDE87040DB68184770BD03689B685B
:100D9800184738B50D210546FFF7F8FF0A21044624
:100DA8002846FFF7F3FF204438BD38B50546FFF75E
:100DB800DDFF04462846FFF7ECFF204438BD012A32
:100DC80098BF0A2230B50B468BB000218DF824104D
:100DD8000DF12304B3FBF2F505FB1233DBB2092B4B
:100DE80094BF30333733DBB2214604F801392B4640
:100DF800002DEFD1FFF7BAFF0BB030BD10B422B908
:100E08000368C9B29B6810BC1847D2B210BCFFF780
:100E1800D6BFFFF7F3BF00231A4619464068FFF70D
:100E28007DBE0000014A024B1A60704701450A085E
:100E380008040020024B1A68024B1A60704700BF72
:100E48000C0300200C0400200021FFF72BBE10B576
:100E58008368044613B1032201469847204610BD13
:100E680010B50446FFF7F3FF204610BD03480023E2
:100E78008360034A034900F06BBC00BF10040020E4
:100E8800B0030020690E0A0808B5144B33B100F00E
:100E980097F903681B699847002816DC104B33B193
:100EA80000F050FA03681B699847002810DC0D4BC6
:100EB8000BB1AFF300800C4B7BB100F0BDF90368B8
:100EC8001B699847002806DC08BDAFF30080E5E7FA
:100ED800AFF30080EBE7AFF3008008BD000000002F
:100EE80000000000000000000000000008B5FFF747
:100EF800CBFFFFF7F5FC014B186008BDB4080020D4
:100F08000248034A0349121A01F0D0BC00400240CB
:100F18000440024060480A0807B5002300931A46B7
:100F28006FF07701FFF7D0FD03B05DF804FB000018
:100F380007B543880A2B08D0502B09D1094B1B68E9
:100F48003BB103B05DF804EB1847FFF7E5FF06E097
:100F5800002300931A466FF07701FFF7B5FD03B041
:100F68005DF804FB2004002038B5104C104D2368B0
:100F7800AB42104B0CBF012200221A7002D0FFF7BF
:100F8800BFFF2560FFF79CFC044601F0A3FC0A4B59
:100F980013B12046AFF3008000210748FFF7FEFD9C
:100FA800BDE8384000210548FFF784BD00400240F5
:100FB8001E1C279A2404002000000000390F0A088C
:100FC80010B588B004466846FFF783FE694604A852
:100FD800FFF7A1FE04A8A047044604A8FFF732FEC5
:100FE8006846FFF72FFE204608B010BDF0B507464B
:100FF8000E46154685B0102422460021684601F0A9
:1010080060FC002269461046ADF80040029703963E
:101018000195FFF7BBFD05B0F0BD704710B504465C
:10102800182100F09AFB204610BDF8B50F4600F1D4
:101038000806051D002416F8011D0A223846FFF788
:10104800E8FEAE42044407D0002CF4D02E213846E6
:10105800FFF79CFE0444EEE72046F8BD10B50446B1
:10106800044B112240F8043B002101F02AFC2046E1
:1010780010BD00BF5C450A080346074A10B543F88F
:10108800042B01F1100251F8044B914243F8044B30
:10109800F9D10A781A7010BD5C450A08024A416005
:1010A80002600422027570475C450A0810B59DF875
:1010B800084044EA032343EA024242EA0161042366
:1010C8004160037510BD000037B5044D05609DF8FB
:1010D80018500095FFF7EAFF03B030BD5C450A08D9
:1010E80041747047704708B50021007CFFF7B2FCD7
:1010F80030EA200028BF4FF0FF3008BD08B50121B5
:10110800007CFFF7A7FC30EA200028BF4FF0FF3033
:1011180008BD08B5007CFFF795FC20EAE07008BD23
:1011280008B5007CFFF786FC20EAE07008BD007C6B
:10113800FFF7A0BC10B50446142100F00EFB2046B2
:1011480010BD38B50446007C0D46FFF77BFC00282F
:1011580001DC607C28B12946207CFFF783FC20EA6B
:10116800E07038BD10B50446002363604FF47A730D
:10117800A360054B0846236001232174637411465C
:10118800FFF748FC204610BD70450A080022007C85
:10119800FFF748BC10B504461422002101F091FB6A
:1011A800054B20466360054BE36040F20113238141
:1011B8008123238210BD00BFAD0400202C04002031
:1011C80030B50E4D87B001A8FFF7E4FF296811F08C
:1011D800010410D12846FEF760FF60B101AA21463C
:1011E8000748FFF7BFFF2846FEF75CFF054A064998
:1011F800034800F0ADFA024807B030BD28040020CB
:10120800B0050020B0030020ED100A0810B5044610
:101218001422002101F055FB054B20466360054B65
:10122800E36040F2011323818123238210BD00BFB4
:1012380060060020C805002010B50E4C86B001A835
:10124800FFF7E4FF2368DB0710D42046FEF725FFED
:1012580060B101AA01210848FFF784FF2046FEF784
:1012680021FF064A0649044800F072FA024806B00F
:1012780010BD00BFC40500204C060020B0030020AC
:10128800ED100A08FFF704BBFFF7FABA704741747C
:10129800704708B5007CFFF77BFB20EAE07008BDCB
:1012A80008B5007CFFF74CFB20EAE07008BD08B5E4
:1012B800007CFFF755FB30EA200028BF4FF0FF30D5
:1012C80008BD08B5007CFFF743FB30EA200028BFC3
:1012D8004FF0FF3008BD007CFFF74ABB10B504464D
:1012E800142100F03AFA204610BD70B5457C04463A
:1012F8000E4625B9007CFFF74BFB002805DD31467B
:10130800207CBDE87040FFF713BB284670BD000085
:1013180010B5044608461146002262604FF47A72FE
:10132800A260054A20742260012262741A46FFF7FF
:10133800F7FA204610BD00BFA0450A08007CFFF759
:101348001FBB000038B50C4D296811F0010411D1FC
:101358002846FEF7A2FE68B1084A2146084B09480C
:10136800FFF7D6FF2846FEF79DFE074A07490548BE
:1013780000F0EEF9034838BDFC0700200008002003
:101388007807002064070020B003002095120A089F
:101398007047F8B5064615460C468F18BC4206D06D
:1013A800336814F8011B9B6830469847F6E72846CF
:1013B800F8BD0022007CFFF7F3BA0021007CFFF79C
:1013C800F7BA0021007CFFF7FBBA0021007CFFF789
:1013D800FFBA0021007CFFF703BB10B504461421B7
:1013E80000F0BBF9204610BD10B5044608464FF47E
:1013F8007A73A360044B0021207461602360FFF7B7
:10140800FFFA204610BD00BFD0450A080021007C25
:10141800FFF7EEBA002211464068FFF777BBF0B538
:10142800164689B011220F460446002103A801F090
:1014380048FA304601F076FA0025009581B27B68BB
:1014480003AA3046FFF71EFB20B129462046FFF7C6
:1014580025FE03E003A92046FFF70EFE204609B04B
:10146800F0BD002211464068FFF770BB002211460C
:101478004068FFF77BBB00224068FFF76FBB002284
:1014880081F001014068FFF759BB00231A4619464D
:101498004068FFF74BBB002211464068FFF726BBA8
:1014A800002202214068FFF729BB00231A46406842
:1014B800FFF714BB024B04225A60024A1A607047B5
:1014C80084080020F8450A0800231A464068FFF7F8
:1014D80005BB002202214068FFF710BB002211461D
:1014E8004068FFF703BB002211464068FFF70EBBB8
:1014F80000231A4619464068FFF710BB00231A4616
:1015080019464068FFF712BB002281F001014068CC
:10151800FFF714BB00224068FFF720BB00221146EA
:101528004068FFF723BB002211464068FFF70EBB57
:1015380070B516468EB0044608A8FFF78FFD112235
:10154800002103A801F0BDF9304601F0EBF90025B0
:101558000A4B009581B25B6803AA3046FFF792FAFE
:1015680020B129462046FFF799FD03E003A920464C
:10157800FFF782FD20460EB070BD00BF8408002032
:10158800024B034A1A6000225A6070478C080020F8
:101598002C460A0810B504460F48FFF743FB28B14C
:1015A800A4F10D03022B01D8002010BD00F0B0F803
:1015B800FFF72CFF08B1012CF6D9FFF7C3FEFFF7A0
:1015C800BDFE18B1A4F11203012BEDD9172C8CBF65
:1015D8000020012010BD00BF94080020172838B54E
:1015E80004460D460AD8FF2908D0FFF7D3FF28B1D3
:1015F80029462046BDE83840FFF722B938BD38B53E
:1016080004460D46FFF724F9FF2810D0062804D811
:101618004D2323FA00F0C30709D42046FFF7BAFF89
:1016280028B129462046BDE83840FFF719B938BD2A
:1016380010B50446FFF70CF90438C0B2012808D9E0
:101648002046FFF7A7FF20B12046BDE81040FFF76E
:101658000FB9002010BD2DE9F04190461E460746FF
:101668000D460724B8F1000F04D1C4F1070146FA6A
:1016780001F101E046FA04F101F001013846FFF7F3
:10168800BEFF01212846FFF7BAFF00212846FFF7D1
:10169800B6FF14F1FF34E5D2BDE8F08170B50C4C0B
:1016A8000C4E0D4D00212046FFF7A8FA20460B4CA2
:1016B8003246294600F04CF801212046FFF79EFAF1
:1016C800324629462046BDE8704000F041B800BFC8
:1016D80094080020B0030020F50B0A08A408002095
:1016E80013B5084C00231A46194600932046FFF705
:1016F800EBFC2046044A054902B0BDE8104000F062
:1017080027B800BFB8080020B003002023100A083B
:1017180038B50B4D296811F001040FD12846FEF7A2
:10172800BCFC58B121460748FFF75EFE2846FEF785
:10173800B9FC054A0549034800F00AF8014838BDD4
:10174800D0080020D4080020B003002099130A080C
:101758000B460146184601F097B8FEF79CBC0000FE
:10176800184B1A68D1075CBF01221A60164B1A6819
:10177800D2075CBF01221A60144B1A68D0075CBFFD
:1017880001221A60124B1A68D1075CBF01221A6045
:10179800104B1A68D2075CBF01221A600E4B1A68F8
:1017A800D0075CBF01221A600C4B1A68D1075CBFD6
:1017B80001221A600A4B1A68D2075CBF01221A601C
:1017C800704700BF0409002000090020FC08002021
:1017D800F8080020F4080020F0080020EC08002099
:1017E800E8080020244B1A68D0075CBF01221A6061
:1017F800224B1A68D1075CBF01221A60204B1A6875
:10180800D2075CBF01221A601E4B1A68D0075CBF62
:1018180001221A601C4B1A68D1075CBF01221A60AA
:101828001A4B1A68D2075CBF01221A60184B1A6853
:10183800D0075CBF01221A60164B1A68D1075CBF3B
:1018480001221A60144B1A68D2075CBF01221A6081
:10185800124B1A68D0075CBF01221A60104B1A6835
:10186800D1075CBF01221A600E4B1A68D2075CBF11
:1018780001221A60704700BF340900203009002097
:101888002C09002028090020240900202009002014
:101898001C09002018090020140900201009002044
:1018A8000C09002008090020244B1A68D0075CBFE7
:1018B80001221A60224B1A68D1075CBF01221A6004
:1018C800204B1A68D2075CBF01221A601E4B1A68A7
:1018D800D0075CBF01221A601C4B1A68D1075CBF95
:1018E80001221A601A4B1A68D2075CBF01221A60DB
:1018F800184B1A68D0075CBF01221A60164B1A6889
:10190800D1075CBF01221A60144B1A68D2075CBF6A
:1019180001221A60124B1A68D0075CBF01221A60B4
:10192800104B1A68D1075CBF01221A600E4B1A6867
:10193800D2075CBF01221A60704700BF640900200B
:10194800600900205C090020580900205409002083
:10195800500900204C0900204809002044090020B3
:10196800400900203C09002038090020184B1A685B
:10197800D1075CBF01221A60164B1A68D2075CBFF8
:1019880001221A60144B1A68D0075CBF01221A6042
:10199800124B1A68D1075CBF01221A60104B1A68F3
:1019A800D2075CBF01221A600E4B1A68D0075CBFD1
:1019B80001221A600C4B1A68D1075CBF01221A6019
:1019C8000A4B1A68D2075CBF01221A60704700BF31
:1019D80084090020800900207C0900207809002063
:1019E80074090020700900206C0900206809002093
:1019F80081F0004102E000BF83F0004330B54FEAB8
:101A080041044FEA430594EA050F08BF90EA020F24
:101A18001FBF54EA000C55EA020C7FEA645C7FEAB7
:101A2800655C00F0E2804FEA5454D4EB5555B8BFDA
:101A38006D420CDD2C4480EA020281EA030382EA4B
:101A4800000083EA010180EA020281EA0303362DDD
:101A580088BF30BD11F0004F4FEA01314FF4801CB0
:101A68004CEA113102D0404261EB410113F0004FC2
:101A78004FEA03334CEA133302D0524263EB430379
:101A880094EA050F00F0A780A4F10104D5F1200E17
:101A98000DDB02FA0EFC22FA05F2801841F1000172
:101AA80003FA0EF2801843FA05F359410EE0A5F146
:101AB80020050EF1200E012A03FA0EFC28BF4CF077
:101AC800020C43FA05F3C01851EBE37101F000452D
:101AD80007D54FF0000EDCF1000C7EEB00006EEB3A
:101AE8000101B1F5801F1BD3B1F5001F0CD34908C4
:101AF8005FEA30004FEA3C0C04F101044FEA44521B
:101B080012F5800F80F09A80BCF1004F08BF5FEAA1
:101B1800500C50F1000041EB045141EA050130BD81
:101B28005FEA4C0C404141EB010111F4801FA4F124
:101B38000104E9D191F0000F04BF01460020B1FA79
:101B480081F308BF2033A3F10B03B3F120020CDAB1
:101B58000C3208DD02F1140CC2F10C0201FA0CF08F
:101B680021FA02F10CE002F11402D8BFC2F1200CF4
:101B780001FA02F120FA0CFCDCBF41EA0C019040AA
:101B8800E41AA2BF01EB0451294330BD6FEA0404F3
:101B98001F3C1CDA0C340EDC04F11404C4F12002DE
:101BA80020FA04F001FA02F340EA030021FA04F3F0
:101BB80045EA030130BDC4F10C04C4F1200220FA47
:101BC80002F001FA04F340EA0300294630BD21FA85
:101BD80004F0294630BD94F0000F83F4801306BF4B
:101BE80081F480110134013D4EE77FEA645C18BF3F
:101BF8007FEA655C29D094EA050F08BF90EA020FD6
:101C080005D054EA000C04BF1946104630BD91EACD
:101C1800030F1EBF0021002030BD5FEA545C05D1D0
:101C28004000494128BF41F0004130BD14F580040F
:101C38003CBF01F5801130BD01F0004545F0FE4183
:101C480041F470014FF0000030BD7FEA645C1ABFB8
:101C5800194610467FEA655C1CBF0B46024650EAEF
:101C6800013406BF52EA033591EA030F41F400211B
:101C780030BD00BF90F0000F04BF0021704730B5A1
:101C88004FF4806404F132044FF000054FF0000176
:101C980050E700BF90F0000F04BF0021704730B537
:101CA8004FF4806404F1320410F0004548BF40420C
:101CB8004FF000013EE700BF42004FEAE2014FEA61
:101CC80031014FEA02701FBF12F07F4393F07F4F3C
:101CD80081F06051704792F0000F14BF93F07F4F6E
:101CE800704730B54FF4607401F0004521F00041B1
:101CF80020E700BF50EA010208BF704730B54FF037
:101D080000050AE050EA010208BF704730B511F03B
:101D1800004502D5404261EB41014FF4806404F173
:101D280032045FEA915C3FF4DCAE4FF003025FEAF5
:101D3800DC0C18BF03325FEADC0C18BF033202EB7D
:101D4800DC02C2F1200300FA03FC20FA02F001FAD7
:101D580003FE40EA0E0021FA02F11444C1E600BF76
:101D680070B54FF0FF0C4CF4E06C1CEA11541DBF29
:101D78001CEA135594EA0C0F95EA0C0F00F0DEF8F4
:101D88002C4481EA030621EA4C5123EA4C5350EAD9
:101D9800013518BF52EA033541F4801143F480132A
:101DA80038D0A0FB02CE4FF00005E1FB02E506F0BB
:101DB8000042E0FB03E54FF00006E1FB03569CF010
:101DC800000F18BF4EF0010EA4F1FF04B6F5007F16
:101DD80064F5407404D25FEA4E0E6D4146EB060688
:101DE80042EAC62141EA55514FEAC52040EA5E5011
:101DF8004FEACE2EB4F1FD0C88BFBCF5E06F1ED8BB
:101E0800BEF1004F08BF5FEA500E50F1000041EBF1
:101E1800045170BD06F0004646EA010140EA02009E
:101E280081EA0301B4EB5C04C2BFD4EB0C0541EAC0
:101E3800045170BD41F480114FF0000E013C00F3D5
:101E4800AB8014F1360FDEBF002001F0004170BDF9
:101E5800C4F10004203C35DA0C341BDC04F1140412
:101E6800C4F1200500FA05F320FA04F001FA05F29E
:101E780040EA020001F0004221F0004110EBD3706B
:101E880021FA04F642EB06015EEA430E08BF20EA97
:101E9800D37070BDC4F10C04C4F1200500FA04F33A
:101EA80020FA05F001FA04F240EA020001F00041CC
:101EB80010EBD37041F100015EEA430E08BF20EA3F
:101EC800D37070BDC4F1200500FA05F24EEA020E87
:101ED80020FA04F301FA05F243EA020321FA04F0B6
:101EE80001F0004121FA04F220EA020000EBD3706D
:101EF8005EEA430E08BF20EAD37070BD94F0000F6D
:101F08000FD101F00046400041EB010111F4801FA0
:101F180008BF013CF7D041EA060195F0000F18BF51
:101F2800704703F00046520043EB030313F4801F8D
:101F380008BF013DF7D043EA0603704794EA0C0F47
:101F48000CEA135518BF95EA0C0F0CD050EA41065D
:101F580018BF52EA4306D1D181EA030101F00041DA
:101F68004FF0000070BD50EA410606BF1046194602
:101F780052EA430619D094EA0C0F02D150EA01360E
:101F880013D195EA0C0F05D152EA03361CBF10464F
:101F980019460AD181EA030101F0004141F0FE41EE
:101FA80041F470014FF0000070BD41F0FE4141F472
:101FB800780170BD70B54FF0FF0C4CF4E06C1CEA72
:101FC80011541DBF1CEA135594EA0C0F95EA0C0F27
:101FD80000F0A7F8A4EB050481EA030E52EA0335E2
:101FE8004FEA013100F088804FEA03334FF0805503
:101FF80045EA131343EA12634FEA022245EA111530
:1020080045EA10654FEA00260EF000419D4208BFE0
:10201800964244F1FD0404F5407402D25B084FEA8D
:102028003202B61A65EB03055B084FEA32024FF439
:1020380080104FF4002CB6EB020E75EB030E22BF96
:10204800B61A754640EA0C005B084FEA3202B6EB56
:10205800020E75EB030E22BFB61A754640EA5C0005
:102068005B084FEA3202B6EB020E75EB030E22BF95
:10207800B61A754640EA9C005B084FEA3202B6EB96
:10208800020E75EB030E22BFB61A754640EADC0055
:1020980055EA060E18D04FEA051545EA16754FEAB7
:1020A80006164FEAC30343EA52734FEAC2025FEAD5
:1020B8001C1CC0D111F4801F0BD141EA00014FF064
:1020C80000004FF0004CB6E711F4801F04BF014335
:1020D8000020B4F1FD0C88BFBCF5E06F3FF6AFAE51
:1020E800B5EB030C04BFB6EB020C5FEA500C50F1E1
:1020F800000041EB045170BD0EF0004E4EEA113164
:1021080014EB5C04C2BFD4EB0C0541EA045170BD6A
:1021180041F480114FF0000E013C90E645EA060EAE
:102128008DE60CEA135594EA0C0F08BF95EA0C0FDC
:102138003FF43BAF94EA0C0F0AD150EA01347FF424
:1021480034AF95EA0C0F7FF425AF104619462CE7FB
:1021580095EA0C0F06D152EA03353FF4FDAE10465E
:10216800194622E750EA410618BF52EA43067FF4AF
:10217800C5AE50EA41047FF40DAF52EA43057FF43F
:10218800EBAE12E74FF0FF3C06E000BF4FF0010C4A
:1021980002E000BF4FF0010C4DF804CD4FEA410CAE
:1021A8007FEA6C5C4FEA430C18BF7FEA6C5C1BD07B
:1021B80001B050EA410C0CBF52EA430C91EA030FFC
:1021C80002BF90EA020F0020704710F1000F91EA59
:1021D800030F58BF994208BF90422CBFD8176FEA27
:1021E800E37040F0010070474FEA410C7FEA6C5CF5
:1021F80002D150EA013C07D14FEA430C7FEA6C5CFC
:10220800D6D152EA033CD3D05DF8040B704700BF27
:102218008446104662468C461946634600E000BF75
:1022280001B5FFF7B7FF002848BF10F1000F01BD47
:102238004DF808EDFFF7F4FF0CBF012000205DF812
:1022480008FB00BF4DF808EDFFF7EAFF34BF012097
:1022580000205DF808FB00BF4DF808EDFFF7E0FF30
:1022680094BF012000205DF808FB00BF4DF808ED81
:10227800FFF7CEFF94BF012000205DF808FB00BFE8
:102288004DF808EDFFF7C4FF34BF012000205DF8CA
:1022980008FB00BF4FEA410212F5001215D211D512
:1022A8006FF47873B3EB625212D94FEAC12343F04B
:1022B800004343EA505311F0004F23FA02F018BFCD
:1022C800404270474FF00000704750EA013005D196
:1022D80011F0004008BF6FF0004070474FF0000059
:1022E800704700BF4A0011D212F5001211D20DD565
:1022F8006FF47873B3EB62520ED44FEAC12343F004
:10230800004343EA505323FA02F070474FF00000AD
:10231800704750EA013002D14FF0FF3070474FF05C
:10232800000070474FEA4102B2F1E04324BFB3F521
:10233800001CDCF1FE5C0DD901F0004C4FEAC00234
:102348004CEA5070B2F1004F40EB830008BF20F018
:102358000100704711F0804F21D113F13872BCBFD2
:1023680001F00040704741F480114FEA5252C2F127
:102378001802C2F1200C10FA0CF320FA02F018BF70
:1023880040F001004FEAC1234FEAD32303FA0CFCC3
:1023980040EA0C0023FA02F34FEA4303CCE77FEA52
:1023A800625307D150EA01331EBF4FF0FE4040F49C
:1023B8004000704701F0004040F0FE4040F400004B
:1023C800704700BF80F0004002E000BF81F000418C
:1023D80042001FBF5FEA410392EA030F7FEA226CC3
:1023E8007FEA236C6AD04FEA1262D2EB1363C1BF53
:1023F800D218414048404140B8BF5B42192B88BFC2
:10240800704710F0004F40F4000020F07F4018BFE4
:10241800404211F0004F41F4000121F07F4118BF04
:10242800494292EA030F3FD0A2F1010241FA03FCAC
:1024380010EB0C00C3F1200301FA03F100F0004394
:1024480002D5494260EB4000B0F5000F13D3B0F15C
:10245800807F06D340084FEA310102F10102FE2ACB
:1024680051D2B1F1004F40EBC25008BF20F001003B
:1024780040EA03007047490040EB000010F4000FE9
:10248800A2F10102EDD1B0FA80FCACF1080CB2EB7C
:102498000C0200FA0CF0AABF00EBC25052421843DB
:1024A800BCBFD0401843704792F0000F81F4000180
:1024B80006BF80F400000132013BB5E74FEA410353
:1024C8007FEA226C18BF7FEA236C21D092EA030FBF
:1024D80004D092F0000F08BF0846704790EA010F39
:1024E8001CBF0020704712F07F4F04D1400028BF66
:1024F80040F00040704712F100723CBF00F5000048
:10250800704700F0004343F0FE4040F4000070477D
:102518007FEA226216BF08467FEA23630146420229
:1025280006BF5FEA412390EA010F40F4800070473C
:102538004FF0000304E000BF10F0004348BF4042E2
:102548005FEA000C08BF704743F0964301464FF01E
:1025580000001CE050EA010208BF70474FF000037A
:102568000AE000BF50EA010208BF704711F00043BB
:1025780002D5404261EB41015FEA010C02BF84468B
:102588000146002043F0B64308BFA3F18053A3F5EA
:102598000003BCFA8CF2083AA3EBC25310DB01FA31
:1025A80002FC634400FA02FCC2F12002BCF1004FB5
:1025B80020FA02F243EB020008BF20F00100704746
:1025C80002F1200201FA02FCC2F1200250EA4C009A
:1025D80021FA02F243EB020008BF20EADC707047E0
:1025E8004FF0FF0C1CEAD0521EBF1CEAD15392EAEE
:1025F8000C0F93EA0C0F6FD01A4480EA010C4002CA
:1026080018BF5FEA41211ED04FF0006343EA501023
:1026180043EA5111A0FB01310CF00040B1F5000F65
:102628003EBF490041EAD3715B0040EA010062F114
:102638007F02FD2A1DD8B3F1004F40EBC25008BFFE
:1026480020F00100704790F0000F0CF0004C08BF1C
:1026580049024CEA502040EA51207F3AC2BFD2F1E9
:10266800FF0340EAC250704740F400004FF00003F7
:10267800013A5DDC12F1190FDCBF00F00040704731
:10268800C2F10002410021FA02F1C2F1200200FA6F
:1026980002FC5FEA310040F1000053EA4C0308BF36
:1026A80020EADC70704792F0000F00F0004C02BF87
:1026B800400010F4000F013AF9D040EA0C0093F002
:1026C800000F01F0004C02BF490011F4000F013B5C
:1026D800F9D041EA0C018FE70CEAD15392EA0C0FCA
:1026E80018BF93EA0C0F0AD030F0004C18BF31F035
:1026F800004CD8D180EA010000F00040704790F00B
:10270800000F17BF90F0004F084691F0000F91F0AE
:10271800004F14D092EA0C0F01D142020FD193EA74
:102728000C0F03D14B0218BF084608D180EA0100FC
:1027380000F0004040F0FE4040F40000704740F0D8
:10274800FE4040F4400070474FF0FF0C1CEAD052A6
:102758001EBF1CEAD15392EA0C0F93EA0C0F69D002
:10276800A2EB030280EA010C49024FEA402037D06D
:102778004FF0805343EA111143EA10130CF0004064
:102788008B4238BF5B0042F17D024FF4000C8B4254
:1027980024BF5B1A40EA0C00B3EB510F24BFA3EB34
:1027A800510340EA5C00B3EB910F24BFA3EB910304
:1027B80040EA9C00B3EBD10F24BFA3EBD10340EA5E
:1027C800DC001B0118BF5FEA1C1CE0D1FD2A3FF6A4
:1027D80050AF8B4240EBC25008BF20F00100704759
:1027E8000CF0004C4CEA50207F32C2BFD2F1FF03FC
:1027F80040EAC250704740F400004FF00003013A2D
:1028080037E792F0000F00F0004C02BF400010F4D0
:10281800000F013AF9D040EA0C0093F0000F01F0E4
:10282800004C02BF490011F4000F013BF9D041EA06
:102838000C0195E70CEAD15392EA0C0F08D1420239
:102848007FF47DAF93EA0C0F7FF470AF084676E70C
:1028580093EA0C0F04D14B023FF44CAF08466EE7E5
:1028680030F0004C18BF31F0004CCAD130F00042B3
:102878007FF45CAF31F000437FF43CAF5FE700BF0B
:10288800002100F08DBE000010B5054C13462CB198
:102898000A4601460220AFF3008010BD204610BD55
:1028A80000000000004870477403002010B5431E64
:1028B8000A44914204D011F8014B03F8014FF8E79C
:1028C80010BD03460244934202D003F8011BFAE705
:1028D8007047000038B5124B05461C68A36BD3B986
:1028E8001820FEF763F943F20E33A06303804AF61B
:1028F800CD33438041F2342383804EF26D63C3802D
:102908004DF6EC630381052343810B238381012268
:102918000023C0E90423A36B00221D615A6138BD5E
:1029280070030020034613F8012B002AFBD1181A64
:102938000138704730B582B1451E013915F8013F9D
:1029480011F8014FA34206D1EC431444E04201D0F0
:10295800002BF3D11C46181B30BD104630BD2DE9A5
:10296800F0410F46904601F005FC04460D46B8F1CB
:10297800000F11D0C7F30A53C3F16B03002B0BDD13
:102988001B0503F17F55002405F5401522462B460B
:10299800FFF7E6F9BDE8F08120462946BDE8F08159
:1029A8002DE9F04F82460C469DB0002313921893F0
:1029B8004FF000084FF000091791179B1A780D2A5D
:1029C80005D8092A13D2002A00F0AD8112E02B2A7B
:1029D80004D02D2A04D0202A0CD108E0002200E0DF
:1029E80001220C925A1C17925B782BB99BE1013398
:1029F8001793E2E700230C93179D2B78302B5CD1BB
:102A08006B78582B01D0782B4CD10C9BA84A01939A
:102A180018AB009317A919AB504600F014FE10F03C
:102A28000706044600F08585062E05D101350023EA
:102A380017950C9300F07DBD189A3AB135211AA864
:102A480001F07FFC1899504601F004F9062E22D8AF
:102A5800DFE806F0040D08181D0D04004FF000090A
:102A6800C84618E0DDF86880DDF86C9013E01B9B21
:102A7800199A23F4801302F23342DDF8688043EA9E
:102A8800025908E0DFF82C924FF0000803E06FF0DD
:102A980000494FF0FF38210740F14B8549F00049C4
:102AA80000F047BD179B5A1C17925B78302BF9D062
:102AB800002B00F03E85012300E000230593179BBF
:102AC8000A22069300239B4602930493179D2E78AF
:102AD800A6F13003D9B2092911D8BBF1080FD5BF27
:102AE8000499029902FB013302FB013305F1010548
:102AF800D4BF049302930BF1010B1795E6E75046F8
:102B0800FFF7D0FE07685046FFF7CCFE0068FFF7D6
:102B180009FF394602462846FFF70CFF074628B149
:102B2800002033465D46024601465AE05046FFF70C
:102B3800B9FE0068FFF7F6FE179B1A1817921B5C80
:102B4800BBF1000F45D15846302B05D1179B0130FA
:102B58005A1C17925B78F7E7A3F13102082A46D886
:102B6800179A0692024600200546303B00F1010103
:102B780029D00A44294605EB000C0A2661450FD0E6
:102B8800013101F1FF3EBEF1080F03DC049F7743DA
:102B98000497F3E71029DEBF029F77430297EDE71A
:102BA8002844082800F1010505DC04980A2101FBE6
:102BB8000033049306E0102DDFBF02980A2101FBC1
:102BC800003302930021179B581C17905B78084626
:102BD80002E05D4638463A46A3F130010929C4D9D6
:102BE8000121652B01D0452B4FD16DB904E0652B30
:102BF80040F0AD840022012128B9059B002B00F08C
:102C08009280054600E00025179C631C17936378A3
:102C18002B2B06D02D2B02D00026039606E001238D
:102C280000E000230393A31C1793A378A3F13006B5
:102C3800092E29D8302B04D1179B5E1C17965B7878
:102C4800F8E7A3F13106082E1FD8A3F1300E179B21
:102C58001F46179B5E1C17965B78A3F1300CBCF1DE
:102C6800090F05D80A2606FB0E3EAEF1300EF0E736
:102C7800F61B082E44F61F6602DC7645A8BF76468A
:102C8800039F1FB1764201E017940026002D52D110
:102C9800002840F04E84059A002A40F04A84002912
:102CA80041D14E2B20D007DC492B0AD03BE000BF96
:102CB800C4460A080000F07F692B02D06E2B13D09F
:102CC80031E0AA4917A800F0EFFE60B3179BA849A6
:102CD800013B17A8179300F0E7FE10B9179B0133C3
:102CE8001793DFF8A8921AE0A24917A800F0DCFEB3
:102CF800C8B1179B1B78282B0FD11AAA9E4917A871
:102D080000F0E5FE052808D11B9BDDF8688043F03C
:102D1800FF4949F4E00900F00CBCDFF874924FF069
:102D2800000800F006BC139B1794002B00F00C84DD
:102D380000230C93FFE32C46BBF1000F08BFAB4602
:102D48000498102DA8BF1024B71AFEF793FF092C7A
:102D58008046894613DD894B03EBC40353E91223EC
:102D6800FEF7FEFF804602988946FEF783FF02467B
:102D78000B4640464946FEF741FE804689460F2DE0
:102D880033DC002F00F0D58322DD162F07DC7B4DC6
:102D9800424605EBC7014B46D1E9000113E0C5F1F6
:102DA80025039F4221DC754CC5F10F0504EBC501D5
:102DB8007D1B4246D1E900014B4604EBC504FEF7F2
:102DC800CFFFD4E90023FEF7CBFF80468946B0E366
:102DD80017F1160F09DB694D4046A5EBC703D3E988
:102DE80000234946FFF7E6F8EFE72C1B3C44002C8C
:102DF8005DDD14F00F010AD0604B424603EBC101C0
:102E0800D1E900014B46FEF7ABFF8046894634F016
:102E18000F0400F0C180B4F59A7F0FDD4FF0000B6E
:102E2800CDF808B0CDF814B0CDF810B02223CAF808
:102E38000030DFF858914FF0000889E140464946D4
:102E480000234F4E24110293012C0CDDE20704D518
:102E5800D6E90023FEF784FF0123029A64100132A9
:102E680002920836F0E70BB180468946444B029A35
:102E7800A9F1547903EBC201D1E9000142464B465E
:102E8800FEF76EFF21F0004389460A461B0D3D49B7
:102E98001B058B428046C1D8A1F580118B4286BFA5
:102EA800DFF8F0904FF0FF3802F1547974E073D0F6
:102EB800644214F00F020AD0304B404603EBC203C1
:102EC8004946D3E90023FFF775F88046894624115F
:102ED80062D01F2C08DD4FF0000BCDF808B0CDF8FC
:102EE80014B0CDF810B02CE14046494614F0100F4C
:102EF8000CBF00236A23244E03930023002C09DD12
:102F0800E20704D5D6E90023FEF72AFF012364105F
:102F18000836F3E70BB180468946039BEBB1C9F34A
:102F28000A53C3F16B03002B494616DD1F2B0EDD38
:102F3800342BDEBF203B4FF0FF3202FA03F34FF091
:102F48000008CCBF4FF05C7903EA010905E04FF0B7
:102F5800FF3202FA03F303EA08080022002340467E
:102F68004946FFF765F90028B5D117E0D8460A08A1
:102F7800DB460A08E1460A08E4460A0820470A0828
:102F8800E8470A080000A07CF8460A080000F07F1D
:102F98000000F8FFFFFFEF7F00230393049B5A46CE
:102FA800009306992B46504600F0A6FE059000288F
:102FB8003FF434AF002FC7F10003A8BF00230D93DF
:102FC8004FF0000B27EAE7731293CDF808B0059B82
:102FD8005046596800F009FE049000283FF426AFD7
:102FE800059B0C301A6903F10C0102329200FFF7BD
:102FF8005DFC1AAB019319AB009342464B46504611
:10300800CDE9088901F027F9189000283FF40EAFA0
:103018000121504600F0FBFE029000283FF406AF65
:10302800199B0399002BACBF0D9A129A1A9CACBF3E
:10303800D618D21AA3EB01032344B14903F1FF3395
:10304800ACBF129A0D9E8B42C4F1360480F2858083
:10305800C91A1F29C8BFAB4D4FF00107D4BF07FAE3
:1030680001F3ED1AA4EB0104D9BF0793002507FA71
:1030780005F507973719039BBE4214441C44334691
:10308800A8BF3B46A342A8BF2346002BC2BFFF1AD6
:10309800E41AF61A0D9B002B63D1002F7ADC129BE1
:1030A800002B40F08180002C00F38880002E00F374
:1030B8008F80049A1899504600F0FDFF8346002837
:1030C8003FF4B4AEC3680024C4600299069300F0CC
:1030D800D6FFA04280F28B80069B002B40F0028234
:1030E800B8F1000F40F0FE81C9F31303002B40F044
:1030F800F98129F000431B0D1B05B3F1D66F40F28F
:10310800F181DBF81430002B6CD05946012250466F
:1031180000F064FF0299834600F0B1FF002840F3F5
:10312800E18129F00043039A1B0D1B05002A00F0DA
:103138008D80B3F1D66F00F38980B3F15C7F00F323
:10314800D38122234FF000084FF00009CAF800305D
:10315800059B002B40F0D981EBE101230025079363
:1031680088E71A460299504600F0EAFE02900028C5
:103178003FF45CAE0146189A504600F051FE0690A6
:1031880000283FF453AE1899504600F063FD069BA3
:10319800189382E73A461899504600F01FFF189096
:1031A80000287FF47CAF41E6129A0499504600F05B
:1031B800C7FE049000287FF476AF37E622460499CC
:1031C800504600F00BFF049000287FF46FAF2DE607
:1031D80032460299504600F001FF029000287FF421
:1031E80068AF23E6DBF81030012B8EDC7AE161D181
:1031F800069AC9F3130322B343494A468B422ED198
:10320800039B414663B1414B1340B3F1D46F07D8D8
:103218001B0DC3F16B034FF0FF3000FA03F301E01D
:103228004FF0FF338B421AD139498A4202D1013318
:103238003FF4FCAD354B4FF00008134003F58019FF
:1032480050E163B9B8F1000F09D16AE7A3F580131B
:103258006FEA13594FF0FF386FEA095942E115B187
:1032680015EA090F02E0079B13EA080F00F03A81FC
:10327800069B039A4046494653B1FFF770FB024646
:103288000B46DDE90801FEF7B9FB8046894629E1CE
:10329800FFF765FB02460B46DDE90801FEF7ACFBCC
:1032A8000022002380468946FEF7C2FF00287FF4EB
:1032B80048AF17E10299584601F01BF800224FF079
:1032C800804306460F46FEF7C7FF00283FD0069BFF
:1032D80013B100260F4F10E0B8F1000F03D1C9F366
:1032E80013033BB91AE0B8F1010F03D1B9F1000F8C
:1032F8003FF427AF084F00260024064D3CE000BFEE
:1033080002FCFFFFE2FBFFFFFFFF0F000000F07F62
:10331800FFFFEF7F0000F03F0000F0BF00229A4B54
:1033280030463946FEF78EFF40B90022974B3046AB
:103338003946FEF715FD04460D4601E0069C934DFF
:1033480005F1004314941593DDE9146714E08F4BDD
:10335800002230463946FEF703FD069B04460D461B
:1033680023B901F100430E900F9303E002460B4688
:10337800CDE90E23DDE90E6729F000431B0D1B057F
:103388000793079A824B9A422BD1DDE90823A9F1CA
:10339800547940464946CDE90A2300F0EBFE02463F
:1033A8000B4630463946FEF7DBFC42464B46FEF7F5
:1033B80025FB21F000431B0D764A1B0593428046EE
:1033C8000CD9754B0B9A9A4203D10A9B01333FF4EF
:1033D8002DADDFF8C4914FF0FF3872E001F1547958
:1033E80039E0039B3BB3079BB3F1D46F23D85EA3AB
:1033F800D3E9002320462946FEF72EFFB8B1294617
:103408002046FEF76FFF002808BF0120FEF732FCB8
:10341800069B04460D4623B901F100431090119311
:1034280003E002460B46CDE91023DDE91067079A51
:1034380007F1D6639F1ADDE9080100F09BFE0246FA
:103448000B4630463946FEF78BFCDDE90823FEF7CC
:10345800D5FA80468946039B9BBB29F000431B0D88
:10346800079A1B059A424E462BD129462046FEF75D
:1034780011FFFEF70FFC0B46024629462046FEF7D1
:10348800BBFA069B04460D462BB9B8F1000F02D1D2
:10349800C9F313067EB136A3D3E900232046294693
:1034A800FEF7D0FE88BB34A3D3E900232046294683
:1034B800FEF7E6FE04E032A3D3E90023FEF7C2FEDE
:1034C80018BB1899504600F0C5FB0499504600F007
:1034D800C1FB0299504600F0BDFB5946504600F02A
:1034E800B9FB74E5039B83B12C4B40460B93002337
:1034F8000A934946DDE90A23FEF732FC80468946ED
:1035080019B910B92223CAF800301899504600F0AA
:10351800A1FB0499504600F09DFB0299504600F02B
:1035280099FB0599504600F095FB5946504600F026
:1035380091FB139B13B1179B139A13600C9B1BB140
:10354800424609F1004307E042464B4604E00025A5
:103558002A460121FFF747BB104619461DB0BDE8B2
:10356800F08F00BFAFF300800000C0FFFFFFDF4116
:103578009535A094FFFFDF3F35E5AF350000E03F0C
:103588009535A094FFFFCF3F0000F03F0000E03FDB
:103598000000E07FFFFF9F7CFFFFEF7F00005039B6
:1035A800024B0A4601461868FFF7FAB97003002073
:1035B800F0B506694B11B34200F1140527DA11F092
:1035C8001F0105EB860605EB830201D1294616E0AB
:1035D800141D55F823202B46C1F1200ECA40B442D1
:1035E80009D2276807FA0EF73A4343F8042B54F830
:1035F800042BCA40F3E71A6052B1043308E0B24220
:103608000B4605D252F8043B41F8043BF7E72B463A
:103618005B1B9B10036103B94361F0BDA0F130034C
:10362800092B01D820380AE0A0F16103052B01D845
:10363800473804E0A0F14103052B02D82738C0B26F
:103648007047002070472DE9F04F8BB08A469046AE
:1036580006930290FFF726F903684FF0000B18460F
:103668000393FFF75FF9039B0190034413F8013CB0
:103678000793DAF8003002331F4613F8010B30289D
:1036880002D10BF1010BF7E7FFF7C8FF0446E0B9D9
:10369800019A03993846FFF74DF9002834D1019B68
:1036A800F85CFE18FFF7BAFF80B3334618781F4658
:1036B800302803F10103F9D0FFF7B0FFB0FA80F525
:1036C80034466D094FF0010B01E000252C463A46BF
:1036D800164630780132FFF7A1FF0028F8D1019A89
:1036E80003993046FFF726F950B954B9019BF418ED
:1036F8002246164630780132FFF790FF0028F8D1AD
:1037080034B1A41BA40003E03E4600E004460125B2
:103718003378502B01D0702B2AD173782B2B08D0FB
:103728002D2B03D0711C4FF0000905E04FF0010963
:1037380001E04FF00009B11C0878FFF76FFF431E46
:10374800DBB2182B14D8A0F1100211F8010FFFF703
:1037580065FF431EDBB2182B04D80A2303FB0202C1
:10376800103AF2E7B9F1000F00D05242144400E0D9
:103778003146CAF800102DB1BBF1000F14BF00206C
:1037880006207CE12946F31B013B072B02DD0131B2
:103798005B10FAE7029800F028FA4FF00009054696
:1037A800CB46019B00F1140AC3F10103CDF810A028
:1037B8000893B7422FD2731E0593079A16F8013C57
:1037C80093420BD0BBF1200F16D1049BC3F8009095
:1037D80004334FF000090493CB460DE0059B089A8B
:1037E80013449F42EED81846019A03990993FFF7AC
:1037F800A1F8099B68B1E5E716F8010CFFF70EFF81
:1038080000F00F0000FA0BF0059B49EA00090BF1E4
:10381800040B1E46CDE7049840F8049BCAEB000051
:10382800801028614701484600F0A4FAD8F80060E3
:10383800381AB04226DD871B3946284600F09BFD22
:10384800C8B17B1E591103F01F024FF001095AF845
:10385800211009FA02F20A420ED04B4502DC4FF061
:10386800020909E0B91E284600F085FD0028F6D0B7
:103878004FF0030900E0814639462846FFF798FED5
:103888003C440CE009DA371A29463A46029800F017
:10389800A5FB0546E41B00F1140A4FF00009D8F80F
:1038A80008309C4208DD0298294600F0D3F9149AA2
:1038B80000231360A320E2E0D8F80400844253DA1E
:1038C800041BA6422EDCD8F80C30022B1AD0032B8E
:1038D8001CD0012B1DD1A6421BD1012E0BDCD8F820
:1038E8000430069A6220136001232B61CAF8003065
:1038F800149B1D60C3E0711E284600F03CFD0028A3
:10390800EDD106E0159B002BE9D002E0159B002BBA
:10391800E5D10298294600F09DF9149A0023136016
:103928005020ACE0671EB9F1000F06D13FB139460F
:10393800284600F020FD814601E04FF001097A1188
:10394800012307F01F0703FA07F75AF82230214628
:103958001F42284618BF49F00209361BFFF728FE08
:103968000227D8F8044000E00127B9F1000F00F061
:103978008180D8F80C30022B0ED0032B10D0012BED
:1039880076D119F0020F73D0DAF8000049EA00097D
:1039980019F0010F07D16BE0159BC3F101031593D3
:1039A800159B002B64D0D5F810A005F114034FEA3D
:1039B8008A0903EB090100201A68B2F1FF3F02D01F
:1039C80001321A6020E043F8040B9942F4D8AB683E
:1039D8009A4512DB69680298013100F006F98346BE
:1039E8002A6905F10C01023292000C30FEF75EFFE5
:1039F8002946029800F02EF95D462B695A1C2A6167
:103A080005EB830301225A61022F05F1140211D13B
:103A1800D8F80030013B9E4227D17111012306F0EE
:103A28001F0603FA06F652F821301E420CBF022781
:103A380001271AE02B699A450ADA01212846FFF77F
:103A4800B7FDD8F8083001349C423FF72CAF0BE0A3
:103A580016F01F0608D0914459F8040C00F08AF9B2
:103A6800C6F12006B042E8DB012747F0200701E055
:103A780047F010073846149B1D60069B1C600BB06E
:103A8800BDE8F08FC2F10802920070B5C2F12006BD
:103A98004368056803FA06F42C43D340046040F8F1
:103AA800043F8842F4D370BD30B5036811F8014B68
:103AB80001334CB11A78A2F14105192D98BF203273
:103AC800A242F3D0002030BD0360012030BD0B6856
:103AD8002DE9F04F5E1102EB860613F01F0318BFA5
:103AE8000436351F174600228246A8462C469146C2
:103AF80085B0D0F800B0019346F8042C00921BF86A
:103B0800011F00293CD0084603920291FFF786FD69
:103B1800039A00BB0299202916D8009B9945EEDD2F
:103B2800444505D2072A03DC41462046FFF7AAFF91
:103B3800BC4223D90023A4F1040844F8043CCDF87E
:103B4800009044461A46DAE7292948D10BF10103C7
:103B5800CAF8003014E00132082A09F1010906DD2B
:103B6800BC42CCD9002344F8043C0122043C21681F
:103B780000F00F0040EA01102060C0E70822BEE70D
:103B8800B9F1000F2BD0444505D2072A03DC414682
:103B98002046FFF777FFBC420CD93B4654F8042B6C
:103BA800A54243F8042BF9D2002243F8042B9D4286
:103BB800FBD20BE0019B4BB1C3F120024FF0FF3366
:103BC800D34056F8042C134046F8043C2B6843B9FC
:103BD800BD4202D101232B6003E0043DF6E7042037
:103BE80000E0052005B0BDE8F08F70B5456A0446D1
:103BF8000E463DB91020FCF7D9FF6062456085602C
:103C08000560C560656AEB6843B1636ADB6853F8B1
:103C1800260078B1026843F8262017E02122042103
:103C2800204600F0CAFB636AE860DB68002BECD131
:103C3800002070BD012101FA06F56A1D9200204698
:103C480000F0BBFB0028F3D04660856000230361C9
:103C5800C36070BD70B5446A06460D463CB9102075
:103C6800FCF7A4FF7062446084600460C4603DB1E6
:103C7800736A6A68DB6853F82210296043F8225097
:103C880070BD2DE9F04106460C460D691F4601F14D
:103C9800140E0023DEF80000013381B202FB01712B
:103CA800000C0F0C02FB007089B201EB00419D4231
:103CB8004FEA10474EF8041BECDCD7B1A3689D42CD
:103CC80012DB616830460131FFF78FFF80462269B9
:103CD80004F10C01023292000C30FEF7E7FD214698
:103CE8003046FFF7B7FF444604EB850301355F61B3
:103CF80025612046BDE8F0812DE9F84306461546C2
:103D08001F46092208330C4693FBF2F300210122D7
:103D18009A4202DA52000131FAE73046FFF765FFAE
:103D2800089B092D43614FF00103036111DD04F184
:103D38000908C1462C4419F8013B0146303B0A22C8
:103D48003046FFF79EFFA145F5D108EB0504083C76
:103D580001E00A3409252D1B63199F4208DD14F878
:103D6800013B0146303B0A223046FFF78AFFF3E762
:103D7800BDE8F883030C1B0413B90004102300E00A
:103D8800002310F07F4F04BF0002083310F0704F7B
:103D980004BF0001043310F0404F04BF8000023319
:103DA800002803DB420003D5581C704718467047AB
:103DB80020207047036813F007020BD0D90722D4DC
:103DC8009A074BBF5B089B08036003604CBF012048
:103DD8000220704799B209B91B0C102213F0FF0F8B
:103DE80004BF1B0A0832190704BF1B0904329907CC
:103DF80004BF9B080232D90702D45B0805D0013200
:103E0800036010467047002070472020704710B5A7
:103E18000C460121FFF7E9FE01224461026110BD51
:103E28002DE9F74F14460A69236988469A42BEBFAE
:103E38000B46A0461C46D8F81070D4F81090D8F855
:103E48000830D8F8041007EB09069E42C8BF0131B4
:103E5800FFF7CBFE00F114052B4605EB860C00227C
:103E6800634502D243F8042BFAE704F1140208F17F
:103E7800140102EB890301EB87070093009B019271
:103E8800934257D9B2F800B0BBF1000F23D089464E
:103E9800AE464FF0000859F8044BBEF800A0A3B294
:103EA8000BFB03A34FEA144ADEF8004043444FEAF1
:103EB80014480BFB0A84F24604EB13449BB243EA12
:103EC80004434F454FEA14484AF8043B01D9D64603
:103ED800E1E7CEF80480019B0432B3F802A0BAF1FE
:103EE800000F21D02C4689462B684FF00008B9F8FE
:103EF80000E0B4F802B09BB20AFB0EBEA346F04441
:103F080043EA08434BF8043B59F8043BB4F804E08F
:103F18001B0C0AFB03E34F4503EB18434FEA134816
:103F280001D95C46E3E763600435A7E75CF8043D24
:103F380013B9013E002EF9DC066103B0BDE8F08F2D
:103F48002DE9F843154612F0030206460F4607D03E
:103F5800214C013A002354F82220FFF792FE07462D
:103F6800AD1036D0746A3CB91020FCF71FFE7062A1
:103F7800446084600460C460D6F82480D8F808409F
:103F88004CB940F271213046FFF741FF0446002347
:103F9800C8F8080003604FF00008EB070AD5394657
:103FA80022463046FFF73CFF814639463046FFF748
:103FB80051FE4F466D100CD0206808B10446ECE75E
:103FC800224621463046FFF72BFF2060C0F80080CC
:103FD800F4E73846BDE8F88310480A082DE9F047A9
:103FE8000C460746914626694FEA621A56444968C4
:103FF800A368751CAB4202DA01315B00FAE7384668
:10400800FFF7F3FD002380461A4600F114015345DB
:1040180003DA41F823200133F9E72AEAEA73206931
:1040280001EB830319F01F0904F1140101EB800E61
:1040380014D0C9F1200C002208689A4600FA09F049
:10404800024343F8042B51F8042B8E4522FA0CF254
:10405800F2D8CAF8042042B1B51C06E0043B51F876
:10406800042B8E4543F8042FF9D8013D3846C8F88B
:1040780010502146FFF7EEFD4046BDE8F087036982
:104088000A6910B59B1A11D19200143014318318A3
:104098000A4453F8044D52F8041D8C4202D007D349
:1040A800012010BD9842F4D3002010BD184610BD61
:1040B8004FF0FF3010BD2DE9F8430C460746114676
:1040C80020461546FFF7DBFF061E08D13146384665
:1040D800FFF78BFD012303614661BDE8F883BCBF90
:1040E80023462C4638466168BABF1D46012600267D
:1040F800FFF77BFD2B69C660266905F1140904F1F9
:10410800140101EB860709EB830800F114054FF051
:10411800000C51F8042B59F8044B93B29C44A3B2F9
:10412800240CC3EB0C03C4EB124202EB23429BB2F8
:104138004FEA224CC84543EA02428E4645F8042B12
:10414800E7D8BE450ED25EF8041B8AB26244131447
:1041580003EB114392B242EA03424FEA234C45F87B
:10416800042BEEE755F8043D0BB9013EFAE706616A
:10417800BDE8F883104B0B40A3F15073002B02DD10
:104188000020194670475B421B15132B4FF00000A7
:104198004FF0000104DC4FF4002242FA03F17047AB
:1041A800143B1E2B4FF00102CEBF1346C3F11F0371
:1041B80002FA03F3184670470000F07FF8B5056966
:1041C80000F1140606EB850555F8044C2F1F204610
:1041D800FFF7D0FDC0F120030A280B6014DCC0F102
:1041E8000B0E24FA0EF1BE4241F07F5334BF55F84E
:1041F800081C0021153004FA00F021FA0EF143F4EE
:10420800401340EA010223E0BE423ABFA5F1080785
:1042180055F8081C00210B3815D08440C0F1200542
:1042280044F07F5444F44014B74221FA05FE44EAAE
:104238000E038CBF57F8044C002401FA00F0EC4040
:1042480040EA040204E00A4644F07F5343F4401372
:1042580010461946F8BD2DE9F3411C460121904648
:10426800089E099DFFF7C1FCC4F31302C4F30A5466
:1042780007460CB142F480120192B8F1000F19D030
:1042880002A840F8088DFFF795FD009B48B1019AF8
:10429800C0F1200102FA01F10B43C2407B61019297
:1042A80000E07B61019B002B14BF02210121BB614F
:1042B800396107E001A8FFF77DFD019B01217B61C2
:1042C8003961203034B1A4F2334404443460C0F17D
:1042D800350009E0A0F2324007EB8103306018692D
:1042E800FFF748FDC0EB41102860384602B0BDE832
:1042F800F0812DE9F743884669468146FFF75EFF5E
:104308000D46044601A94046FFF758FF0F460646EA
:10431800D9F81030D8F8102020469A1A9DE80A00DB
:10432800C91A01EB4213002BCCBF05EB0355A7EBD1
:10433800035732463B462946FDF73CFE03B0BDE82D
:10434800F083013910B549111469013102F11403E0
:1043580000EB810103EB8404A342024604D253F824
:10436800042B40F8042BF7E700238A4202D242F8D4
:10437800043BFAE710BD00F1140200694B119842A2
:1043880010B50CDB0CDD11F01F0109D052F82340E9
:1043980024FA01F000FA01F18C420CD100E0034646
:1043A80002EB8303934204D953F8041D0029F9D082
:1043B80001E0002010BD012010BD38B502FB01F45A
:1043C8002146FCF70BFC054618B122460021FEF7F2
:1043D80078FA284638BD00001D000A085D000A0862
:1043E80089000A088D000A0800000000626F7474D2
:1043F8006F6E6500736F676C69610054656D7072EC
:104408006561747572612061747475616C6500739F
:104418006574536F676C69610052656C6179004916
:104428006E76616C69642072656164696E6700000C
:104438000000000000000000F50B0A08F70B0A084E
:104448006C6E00666E00636F646500646574616914
:104458006C000D0A00253031307520005D200025E4
:1044680064002C200028293A2000205B00636F6438
:1044780065203D200025690064657461696C7320BE
:104488003D2000626175640053657269616C005576
:10449800534253657269616C3100747970650070BC
:1044A8006172616D00636D6400696400686E640028
:1044B8007374726D0066696C74006C766C0061646C
:1044C8006448616E646C65720072656D6F766548EC
:1044D800616E646C657200656E756D48616E646CC2
:1044E800657273004A534F4E53747265616D4C6F19
:1044F8006748616E646C657200617070006E6F6E03
:104508006500747261636500696E666F0077617239
:104518006E006572726F720070616E696300616C23
:104528006C005A00252B3033643A2530327500254B
:10453800592D256D2D25645425483A254D3A255386
:10454800257A0061736374696D65000000000000DE
:104558000000000033100A0823100A0825100A0872
:104568000000000000000000ED100A083D110A08D4
:104578004B110A08490D0A0829110A08EF100A0800
:1045880005110A0837110A081B110A08E9100A0858
:10459800000000000000000095120A08E5120A0851
:1045A800F3120A08490D0A08A9120A08CB120A08C8
:1045B800B7120A08DF120A0897120A089B120A089B
:1045C800000000000000000099130A08E3130A081D
:1045D800BB130A089B130A08C3130A08CB130A085B
:1045E800D3130A08DB130A080000000000000000CB
:1045F800B3140A08A9140A089F140A081D140A0803
:104608001F0E0A0893140A0887140A087F140A0858
:1046180075140A086B140A0827140A080000000019
:1046280000000000D1140A08DB140A08E5140A087F
:10463800EF140A08F9140A0805150A0811150A08DA
:104648001D150A0825150A082F150A0839150A081C
:104658000000000000000000000000000000000052
:104668000000000000000000000000000000000042
:104678000000000000000000000000000000000032
:104688000000000000000000000000000000000022
:104698000000000000000000000000000000000012
:1046A8000000000000000000000000000000000002
:1046B8004300504F534958002E00000035000000B9
:1046C800CEFBFFFFCB03000001000000000000004C
:1046D8006E6600696E69747900616E0034000000CE
:1046E800CEFBFFFFCB03000001000000000000002C
:1046F800BC89D897B2D29C3C33A7A8D523F64939B0
:104708003DA7F444FD0FA5329D978CCF08BA5B25D1
:10471800436FAC6428066811000000000000F03FF9
:104728000000000000002440000000000000594084
:104738000000000000408F40000000000088C340D7
:1047480000000000006AF8400000000080842E414C
:1047580000000000D01263410000000084D7974198
:104768000000000065CDCD41000000205FA002429E
:10477800000000E876483742000000A2941A6D4213
:10478800000040E59C30A2420000901EC4BCD64206
:1047980000003426F56B0C430080E03779C34143B1
:1047A80000A0D8855734764300C84E676DC1AB4327
:1047B800003D9160E458E143408CB5781DAF154445
:1047C80050EFE2D6E41A4B4492D54D06CFF0804420
:1047D800F64AE1C7022DB544B49DD9794378EA4435
:1047E8000080E03779C34143176E05B5B5B89346E5
:1047F800F5F93FE9034F384D321D30F94877825AB1
:104808003CBF737FDD4F15750500000019000000DF
:104818007D00000091020A08F9050A08FD050A084A
:1048280035080A08350C0A082D0E0A083D0E0A0834
:10483800750E0A08BD140A0889150A08A5160A087B
:10484800E9160A0869170A08ED170A08B1180A08CC
:0848580075190A0800000000B8
:044860000000000054
:104864000D0000000C0000000E0000004B450A087B
:104874000000000058460A0878460A0898460A08C4
:104884000000000000000000000000000000000024
:10489400B8460A0800000000000000000000000004
:1048A4000000000000000000000000000000000004
:1048B40000000000000000000000000000000000F4
:1048C40000000000000000000000000000000000E4
:1048D40010030020C0460A085C440A085C440A0825
:1048E4005C440A085C440A085C440A085C440A08FC
:1048F4005C440A085C440A085C440A08FFFFFFFFA2
:0C490400FFFFFFFFFFFFFFFFFFFF0000B1
:10491000FFFFFFFF00000102030405060708090A64
:104920000B0C0D0E0F101112131415161718191A5F
:084930001B1C1D1E1F202800A6
:044938007856341267
:04000005080A0018CD
:00000001FF
