:02000004080AE8
:1000000000000A0814170A0800000600060005018F
:080010000402BD040000000021
:10001800A4130A0809480A4908B5884205D0094ABC
:10002800824202D0121A01F067F90748074A0021F4
:10003800121A01F06CF9064808BD00BF0003002041
:1000480084160A086803002068030020FC080020C2
:10005800FC08002070B500F047FC074B074C1E4613
:10006800E41AA4080025A54204D056F8253098477C
:100078000135F8E770BD00BF40160A0878160A086F
:1000880000F012B808B500F01DF8BDE8084000F00F
:10009800EDBB00F0B7BA0078B0FA80F040097047BD
:1000A800012303707047000008B500F01DFD4FF4F0
:1000B800165100F0FFFCBDE80840014800F0EEB81A
:1000C8006C03002013B5052000F042FF044600F041
:1000D8000BFD21460A2200F054FB642000F074FB5B
:1000E800012C4FF0000208BF1346009207BF1946C3
:1000F800FF22FF231146024800F087F802B010BD26
:100108006C03002010B5084C00F0E6F80322022129
:100118002046012300F00EF82046BDE81040034AAF
:10012800034900F083BF00BF6C0300206803002070
:1001380057010A0810B50446017042708370012106
:1001480003EB430001F0C2F86060204610BD10B513
:100158000446406800F056FA204610BD10B5044623
:100168000021007800F0DBFE142000F0F5F820787C
:10017800012100F0D4FEBDE81040142000F0ECB8D6
:1001880070B506460D46082415F0800F14BF0121EE
:100198000021707800F0C3FE013C3046FFF7DEFF17
:1001A8006D0014F0FF04EDB2EED170BDF8B516463F
:1001B8000D4604461F4613F0800F14BFC021E021EE
:1001C8005A0658BF41F01001330658BF41F00801E4
:1001D800700658BF41F004012A0658BF41F00201D9
:1001E8006B0658BF41F001012046FFF7C9FF3946A9
:1001F8002046FFF7C5FF31462046FFF7C1FF2946D5
:100208002046BDE8F840FFF7BBBF2DE9F04704469C
:100218000E460021904699469DF820A0FFF7B0FFB2
:1002280000212046FFF7ACFF00212046FFF7A8FF7A
:1002380000212046FFF7A4FF002506EB4607A27819
:10024800EBB29A4218D9B3420AD1626802F8078021
:1002580062683A4482F8019062683A4482F802A0DF
:10026800606803EB430142189378415C527820465A
:10027800FFF79CFF0135E2E720460021FFF780FFEA
:1002880020460021FFF77CFF20460021FFF778FF7A
:100298002046BDE8F0470021FFF772BF73B504465A
:1002A8000121007800F02AFE00250121607800F085
:1002B80025FE2E46A378E9B28B4205F1010506D941
:1002C800002300961A462046FFF79FFFF2E702B088
:1002D80070BD00F001B8000008B5024B1B681B6830
:1002E800019308BDB001060808B5024B1B689B685E
:1002F800019308BDB001060808B5024B1B68DB680E
:10030800019308BDB001060808B5024B1B681B69BC
:10031800019308BDB001060808B5024B1B685B696C
:10032800019308BDB001060808B5024B1B68DB69DC
:10033800019308BDB401060808B5024B1B681B6A87
:10034800019308BDB401060808B5024B1B685B6839
:10035800019308BD9C01060808B5024B1B68DB68C1
:10036800019308BD9C01060808B5024B1B685B6930
:10037800019308BD9C01060808B5024B1B681B6B5E
:10038800019308BDD001060808B5024B1B689B699C
:10039800019308BDC401060808B5024B1B685B6AD7
:1003A800019308BDC401060808B5024B1B689B6A87
:1003B800019308BDC401060808B5024B1B68DB6A37
:1003C800019308BDC401060808B5024B1B681B6BE6
:1003D800019308BDC401060808B5024B1B685B6B96
:1003E800019308BDC401060808B5024B1B689B6B46
:1003F800019308BDC401060808B5024B1B681B6CB5
:10040800019308BDC401060808B5024B1B681B6EA2
:10041800019308BDAC01060808B5024B1B685B6E6A
:10042800019308BDAC01060808B5024B1B689B6E1A
:10043800019308BDAC01060808B5024B1B68DB6ECA
:10044800019308BDAC01060808B5024B1B681B6F79
:10045800019308BDAC01060808B5024B1B685B6F29
:10046800019308BDAC01060808B5034B1B68D3F817
:100478008030019308BD0000AC01060808B5024BA6
:100488001B681B68019308BDD801060808B5024B14
:100498001B685B68019308BDD801060808B5024BC4
:1004A8001B681B69019308BDD801060808B5024BF3
:1004B8001B685B69019308BDD801060808B5024BA3
:1004C8001B689B69019308BDD801060808B5024B53
:1004D8001B68DB69019308BDD801060808B5024B03
:1004E8001B681B6A019308BDD801060808B5024BB2
:1004F8001B689B6C019308BDC001060808B5024B38
:100508001B685B68019308BDA401060808B5024B87
:100518001B685B69019308BDA401060808B5034B75
:100528001B68D3F89030019308BD0000A4010608A9
:1005380008B5034B1B68D3F89C30019308BD000035
:10054800A401060808B5024B1B685B68019308BD47
:10055800C801060808B5024B1B689B68019308BDD3
:10056800C801060808B5024B1B68DB68019308BD83
:10057800C801060808B5024B1B681B69019308BD32
:10058800C801060808B5024B1B685B69019308BDE2
:10059800C801060808B5024B1B689B69019308BD92
:1005A800C801060808B5024B1B68DB69019308BD42
:1005B800C801060808B5024B1B681B6A019308BDF1
:1005C800C801060808B5024B1B681B6B019308BDE0
:1005D800C801060808B5024B1B685B6B019308BD90
:1005E800C801060808B5024B1B68DB6B019308BD00
:1005F800CC01060808B5024B1B681B68019308BDAF
:10060800A001060808B5024B1B685B68019308BD8A
:10061800A001060808B5024B1B681B6B019308BDB7
:10062800A0010608704710B50446102100F003FD2C
:10063800204610BD70B504460E46074B00250360E2
:1006480040F80C5FFFF798FE30462671FFF76CFE06
:10065800A560204670BD00BFC0130A080079FFF7E7
:100668006BBE00004FF6FF72034B002018705880D5
:100678009A80FFF743BF00BF74030020F8B5064611
:100688000D468F180024BD420CD0336815F8011BA5
:100698009B6830469847002801DB0444F3E7002CA8
:1006A80008BF04462046F8BD70B505460C46084606
:1006B80049B100F06BFE2B68024621462846BDE88A
:1006C8007040DB68184770BD03689B68184738B5E9
:1006D8000D210546FFF7F8FF0A2104462846FFF7D3
:1006E800F3FF204438BD012A98BF0A2230B50B46D3
:1006F8008BB000218DF824100DF12304B3FBF2F523
:1007080005FB1233DBB2092B94BF30333733DBB22E
:10071800214604F801392B46002DEFD1FFF7C4FF1D
:100728000BB030BD10B422B90368C9B29B6810BCC5
:100738001847D2B210BCFFF7D6BFFFF7F3BF2DE9B9
:10074800F04107460E4615462AB9BDE8F041036850
:10075800C9B29B6818470A2A02D1002901DA04E0C5
:10076800D2B2BDE8F041FFF7BEBF2D21FFF7ACFFC5
:100778002A46044671423846FFF7B5FF2044BDE8D3
:10078800F08138B50546FFF7DAFF04462846FFF73B
:100798009EFF204438BD00231A4619464068FFF7DB
:1007A800F1BE0000014A024B1A60704783140A0820
:1007B8007C030020024B1A68024B1A60704700BF86
:1007C80000030020800300200021FFF79FBE10B522
:1007D8008368044613B1032201469847204610BD9A
:1007E80010B50446FFF7F3FF204610BD0348002369
:1007F8008360034A034900F019BC00BF840300204A
:1008080068030020E9070A0808B5144B33B100F063
:100818006BF903681B699847002816DC104B33B145
:1008280000F020FA03681B699847002810DC0D4B7C
:100838000BB1AFF300800C4B7BB100F091F903686A
:100848001B699847002806DC08BDAFF30080E5E780
:10085800AFF30080EBE7AFF3008008BD00000000B5
:1008680000000000000000000000000008B5FFF7CD
:10087800CBFFFFF779FD014B186008BD2808002061
:100888000248034A0349121A00F036BD00400240EC
:100898000440024080160A0807B5002300931A4650
:1008A8006FF07701FFF744FE03B05DF804FB00002A
:1008B80007B543880A2B08D0502B09D1094B1B6870
:1008C8003BB103B05DF804EB1847FFF7E5FF06E01E
:1008D800002300931A466FF07701FFF729FE03B053
:1008E8005DF804FB9403002038B5104C104D2368C4
:1008F800AB42104B0CBF012200221A7002D0FFF746
:10090800BFFF2560FFF720FD044600F017FD0A4BE6
:1009180013B12046AFF3008000210748FFF762FEBD
:10092800BDE8384000210548FFF7F8BD0040024007
:100938001E1C279A9803002000000000B9080A0826
:10094800704710B50446182100F075FB204610BD0D
:10095800F8B50F4600F10806051D002416F8011D1C
:100968000A223846FFF7E9FEAE42044407D0002CBD
:10097800F4D02E213846FFF7A7FE0444EEE72046C0
:10098800F8BD000010B50446044B112240F8043BA2
:10099800002100F0BCFC204610BD00BFE0140A088E
:1009A8000346074A10B543F8042B01F1100251F829
:1009B800044B914243F8044BF9D10A781A7010BDE0
:1009C800E0140A08024A4160026004220275704776
:1009D800E0140A0810B59DF8084044EA032343EAE6
:1009E800024242EA016104234160037510BD000020
:1009F80037B5044D05609DF818500095FFF7EAFFDC
:100A080003B030BDE0140A0841747047704708B558
:100A18000021007CFFF752FD30EA200028BF4FF08C
:100A2800FF3008BD08B50121007CFFF747FD30EA1B
:100A3800200028BF4FF0FF3008BD08B5007CFFF745
:100A480035FD20EAE07008BD08B5007CFFF726FDFB
:100A580020EAE07008BD007CFFF740BD10B50446F1
:100A6800142100F0E8FA204610BD38B50446007C91
:100A78000D46FFF71BFD002801DC607C28B12946E4
:100A8800207CFFF723FD20EAE07038BD10B504464E
:100A9800002363604FF47A73A360054B0846236014
:100AA8000123217463741146FFF7E8FC204610BD4A
:100AB800F4140A080022007CFFF7E8BC10B50446CD
:100AC8001422002100F023FC054B20466360054BEF
:100AD800E36040F2011323818123238210BD00BF0C
:100AE80021040020A003002030B50E4D87B001A8D6
:100AF800FFF7E4FF296811F0010410D12846FFF739
:100B0800CAFA60B101AA21460748FFF7BFFF284685
:100B1800FFF7C6FA054A0649034800F087FA024873
:100B280007B030BD9C030020240500206803002086
:100B3800150A0A0810B504461422002100F0E7FB44
:100B4800054B20466360054BE36040F201132381A7
:100B58008123238210BD00BFD40500203C0500205E
:100B680010B50E4C86B001A8FFF7E4FF2368DB0739
:100B780010D42046FFF78FFA60B101AA0121084876
:100B8800FFF784FF2046FFF78BFA064A0649044818
:100B980000F04CFA024806B010BD00BF380500202E
:100BA800C005002068030020150A0A087047417430
:100BB800704708B5007CFFF71FFC20EAE07008BD0D
:100BC80008B5007CFFF7F0FB20EAE07008BD08B527
:100BD800007CFFF7F9FB30EA200028BF4FF0FF3018
:100BE80008BD08B5007CFFF7E7FB30EA200028BF06
:100BF8004FF0FF3008BD007CFFF7EEBB10B5044690
:100C0800142100F018FA204610BD70B5457C044642
:100C18000E4625B9007CFFF7EFFB002805DD3146BD
:100C2800207CBDE87040FFF7B7BB284670BD0000C8
:100C380010B5044608461146002262604FF47A72E5
:100C4800A260054A20742260012262741A46FFF7E6
:100C58009BFB204610BD00BF24150A08007CFFF747
:100C6800C3BB000038B50C4D296811F0010411D13F
:100C78002846FFF710FA68B1084A2146084B094888
:100C8800FFF7D6FF2846FFF70BFA074A074905483A
:100C980000F0CCF9034838BD700700207407002025
:100CA800EC060020D806002068030020B50B0A08CF
:100CB8007047F8B5064615460C468F18BC4206D054
:100CC800336814F8011B9B6830469847F6E72846B6
:100CD800F8BD0022007CFFF797BB0021007CFFF7DE
:100CE8009BBB0021007CFFF79FBB0021007CFFF726
:100CF800A3BB0021007CFFF7A7BB10B50446142155
:100D080000F099F9204610BD10B5044608464FF486
:100D18007A73A360044B0021207461602360FFF79D
:100D2800A3FB204610BD00BF54150A080021007C13
:100D3800FFF792BB002211464068FFF71BBCF0B5D5
:100D4800164689B011220F460446002103A800F078
:100D5800DEFA304600F01AFB0025009581B27B6868
:100D680003AA3046FFF7C2FB20B129462046FFF709
:100D780029FE03E003A92046FFF712FE204609B02A
:100D8800F0BD002211464068FFF714BC002211464E
:100D98004068FFF71FBC00224068FFF713BC002221
:100DA80081F001014068FFF7FDBB00231A46194690
:100DB8004068FFF7EFBB002211464068FFF7CABB47
:100DC800002202214068FFF7CDBB00231A46406885
:100DD800FFF7B8BB024B04225A60024A1A607047F8
:100DE800F80700207C150A0800231A464068FFF718
:100DF800A9BB002202214068FFF7B4BB00221146BC
:100E08004068FFF7A7BB002211464068FFF7B2BB56
:100E180000231A4619464068FFF7B4BB00231A4658
:100E280019464068FFF7B6BB002281F0010140680F
:100E3800FFF7B8BB00224068FFF7C4BB0022114689
:100E48004068FFF7C7BB002211464068FFF7B2BBF6
:100E580070B516468EB0044608A8FFF793FD112218
:100E6800002103A800F053FA304600F08FFA00255D
:100E78000A4B009581B25B6803AA3046FFF736FB40
:100E880020B129462046FFF79DFD03E003A920462F
:100E9800FFF786FD20460EB070BD00BFF8070020A2
:100EA800024B034A1A6000225A607047000800206B
:100EB800B0150A0810B504460F48FFF7CFFB28B154
:100EC800A4F10D03022B01D8002010BD00F08EF80C
:100ED800FFF72CFF08B1012CF6D9FFF7C3FEFFF787
:100EE800BDFE18B1A4F11203012BEDD9172C8CBF4C
:100EF8000020012010BD00BF08080020172838B5C1
:100F080004460D460AD8FF2908D0FFF7D3FF28B1B9
:100F180029462046BDE83840FFF7E6B938BD38B560
:100F280004460D46FFF7E8F9FF2810D0062804D834
:100F38004D2323FA00F0C30709D42046FFF7BAFF70
:100F480028B129462046BDE83840FFF7DDB938BD4D
:100F580010B50446FFF7D0F90438C0B2012808D903
:100F68002046FFF7A7FF20B12046BDE81040FFF755
:100F7800D3B9002010BD000070B50C4C0C4E0D4DBF
:100F880000212046FFF756FB20460B4C32462946E7
:100F980000F04CF801212046FFF74CFB3246294669
:100FA8002046BDE8704000F041B800BF08080020A6
:100FB800680300202D060A081808002013B5084CFD
:100FC80000231A46194600932046FFF711FD2046D4
:100FD800044A054902B0BDE8104000F027B800BF38
:100FE8002C0800206803002049090A0838B50B4D71
:100FF800296811F001040FD12846FFF74CF858B1C1
:1010080021460748FFF780FE2846FFF749F8054ABA
:101018000549034800F00AF8014838BD4408002093
:101028004808002068030020B90C0A080B4601464E
:10103800184600F053B9FFF72CB80000184B1A688F
:10104800D1075CBF01221A60164B1A68D2075CBF31
:1010580001221A60144B1A68D0075CBF01221A607B
:10106800124B1A68D1075CBF01221A60104B1A682C
:10107800D2075CBF01221A600E4B1A68D0075CBF0A
:1010880001221A600C4B1A68D1075CBF01221A6052
:101098000A4B1A68D2075CBF01221A60704700BF6A
:1010A8007808002074080020700800206C080020D0
:1010B8006808002064080020600800205C08002000
:1010C800244B1A68D0075CBF01221A60224B1A68A9
:1010D800D1075CBF01221A60204B1A68D2075CBF97
:1010E80001221A601E4B1A68D0075CBF01221A60E1
:1010F8001C4B1A68D1075CBF01221A601A4B1A6888
:10110800D2075CBF01221A60184B1A68D0075CBF6F
:1011180001221A60164B1A68D1075CBF01221A60B7
:10112800144B1A68D2075CBF01221A60124B1A6866
:10113800D0075CBF01221A60104B1A68D1075CBF48
:1011480001221A600E4B1A68D2075CBF01221A608E
:10115800704700BFA8080020A4080020A0080020AD
:101168009C0800209808002094080020900800207F
:101178008C080020880800208408002080080020AF
:101188007C080020244B1A68D0075CBF01221A6033
:10119800224B1A68D1075CBF01221A60204B1A68DB
:1011A800D2075CBF01221A601E4B1A68D0075CBFC9
:1011B80001221A601C4B1A68D1075CBF01221A6011
:1011C8001A4B1A68D2075CBF01221A60184B1A68BA
:1011D800D0075CBF01221A60164B1A68D1075CBFA2
:1011E80001221A60144B1A68D2075CBF01221A60E8
:1011F800124B1A68D0075CBF01221A60104B1A689C
:10120800D1075CBF01221A600E4B1A68D2075CBF77
:1012180001221A60704700BFD8080020D4080020B7
:10122800D0080020CC080020C8080020C4080020EE
:10123800C0080020BC080020B8080020B40800201E
:10124800B0080020AC080020184B1A68D1075CBF12
:1012580001221A60164B1A68D2075CBF01221A6075
:10126800144B1A68D0075CBF01221A60124B1A6827
:10127800D1075CBF01221A60104B1A68D2075CBF05
:1012880001221A600E4B1A68D0075CBF01221A604F
:101298000C4B1A68D1075CBF01221A600A4B1A6806
:1012A800D2075CBF01221A60704700BFF80800200F
:1012B800F4080020F0080020EC080020E8080020CE
:1012C800E4080020E0080020DC080020024B0A4661
:1012D8000146186800F023B86403002010B5054CD7
:1012E80013462CB10A4601460220AFF3008010BD18
:1012F800204610BD0000000010B5431E0A4491426C
:1013080004D011F8014B03F8014FF8E710BD03466C
:101318000244934202D003F8011BFAE7704738B53C
:1013280002FB01F42146FFF775F9054618B122467C
:101338000021FFF7ECFF284638BD000038B5124BF6
:1013480005461C68A36BD3B91820FFF753F943F27D
:101358000E33A06303804AF6CD33438041F2342331
:1013680083804EF26D63C3804DF6EC6303810523E1
:1013780043810B23838101220023C0E90423A36B4B
:1013880000221D615A6138BD64030020034613F82A
:10139800012B002AFBD1181A013870471D000A08D2
:1013A8005D000A0889000A088D000A08000000008C
:1013B80000000000000000002D060A082F060A0899
:1013C80066006C6E00666E00636F64650064657429
:1013D80061696C000D0A00253031307520005D20F0
:1013E800002564002C200028293A2000205B006397
:1013F8006F6465203D200025690064657461696C2F
:1014080073203D2000626175640053657269616CE8
:101418000055534253657269616C31007479706587
:1014280000706172616D00636D6400696400686ECC
:1014380064007374726D0066696C74006C766C007D
:1014480061646448616E646C65720072656D6F7684
:101458006548616E646C657200656E756D48616E95
:10146800646C657273004A534F4E53747265616DB4
:101478004C6F6748616E646C657200617070006ED5
:101488006F6E6500747261636500696E666F0077E0
:1014980061726E006572726F720070616E696300CE
:1014A800616C6C005A00252B3033643A2530327554
:1014B8000025592D256D2D25645425483A254D3A8A
:1014C8002553257A0061736374696D650000000017
:1014D800000000000000000059090A0849090A082C
:1014E8004B090A080000000000000000150A0A085D
:1014F800650A0A08730A0A0885060A08510A0A08CA
:10150800170A0A082D0A0A085F0A0A08430A0A087D
:10151800110A0A080000000000000000B50B0A08C4
:10152800050C0A08130C0A0885060A08C90B0A08DC
:10153800EB0B0A08D70B0A08FF0B0A08B70B0A08B7
:10154800BB0B0A080000000000000000B90C0A08E4
:10155800030D0A08DB0C0A08BB0C0A08E30C0A088E
:10156800EB0C0A08F30C0A08FB0C0A080000000040
:1015780000000000D30D0A08C90D0A08BF0D0A08AB
:101588003D0D0A089F070A08B30D0A08A70D0A08A7
:101598009F0D0A08950D0A088B0D0A08470D0A08C1
:1015A8000000000000000000F10D0A08FB0D0A0809
:1015B800050E0A080F0E0A08190E0A08250E0A0851
:1015C800310E0A083D0E0A08450E0A084F0E0A0891
:1015D800590E0A080000000000000000000000008A
:1015E80000000000000000000000000000000000F3
:1015F80000000000000000000000000000000000E3
:1016080000000000000000000000000000000000D2
:1016180000000000000000000000000000000000C2
:1016280000000000000000000000000000000000B2
:1016380000000000430000000D010A08DB020A0850
:101648006D060A08AD070A08BD070A08F5070A0863
:10165800DD0D0A08A90E0A08810F0A08C50F0A0835
:1016680045100A08C9100A088D110A0851120A08FB
:0816780000000000000000006A
:041680000000000066
:10168400CD140A0800000000DC150A08FC150A083D
:101694001C160A0800000000000000000000000002
:1016A400000000003C160A080000000000000000D2
:1016B4000000000000000000000000000000000026
:1016C4000000000000000000000000000000000016
:1016D4000000000000000000000000000000000006
:0816E4000000000004030020D7
:1016EC00FFFFFFFF00000102030405060708090ABB
:1016FC000B0C0D0E0F101112131415161718191AB6
:08170C001B1C1D1E1F202800FC
:0417140078563412BD
:04000005080A0018CD
:00000001FF
