:02000004080AE8
:1000000000000A08E4170A080000060006000501BF
:080010000402BD040000000021
:1000180034140A0809480A4908B5884205D0094A2B
:10002800824202D0121A01F0AFF90748074A0021AC
:10003800121A01F0B4F9064808BD00BF00030020F9
:1000480054170A0868030020680300200C090020E0
:100058000C09002070B500F08BFC074B074C1E46BE
:10006800E41AA4080025A54204D056F8253098477C
:100078000135F8E770BD00BF14170A084C170A08C5
:1000880000F012B808B500F01DF8BDE8084000F00F
:1000980031BC00F0F9BA0078B0FA80F04009704736
:1000A800012303707047000008B500F061FD4FF4AC
:1000B800165100F043FDBDE80840014800F030B992
:1000C8006C030020F7B50A2000F086FF264C274D68
:1000D80020600B2000F080FF28600F2000F07CFFDC
:1000E800234E244F306000F089F93B68C01A43F66C
:1000F8009723984223D900F03BFD1F4900F026FBC7
:1001080000F036FD0A22216800F081FB00F030FD86
:100118001A4900F01BFB00F02BFD0A22296800F0A9
:1001280076FB00F025FD164900F010FB00F020FDDD
:100138000A22316800F06BFB00F060F93860216832
:10014800102033682A6891FBF0F193FBF0F392FBDF
:10015800F0F2C9B20091DBB2D2B20021094800F036
:1001680096F803B0F0BD00BF7C0300208003002098
:10017800780300207403002048140A085D140A0854
:1001880074140A086C03002010B5084C00F0E6F857
:10019800032202212046012300F00EF82046BDE884
:1001A8001040034A034900F089BF00BF6C030020D8
:1001B80068030020DB010A0810B50446017042708C
:1001C8008370012103EB430001F0C8F8606020460A
:1001D80010BD10B50446406800F056FA204610BD20
:1001E80010B504460021007800F0DDFE142000F070
:1001F800FDF82078012100F0D6FEBDE8104014205B
:1002080000F0F4B870B506460D46082415F0800FC6
:1002180014BF01210021707800F0C5FE013C304672
:10022800FFF7DEFF6D0014F0FF04EDB2EED170BDF4
:10023800F8B516460D4604461F4613F0800F14BF46
:10024800C021E0215A0658BF41F01001330658BFBB
:1002580041F00801700658BF41F004012A0658BF52
:1002680041F002016B0658BF41F001012046FFF73B
:10027800C9FF39462046FFF7C5FF31462046FFF73C
:10028800C1FF29462046BDE8F840FFF7BBBF2DE96E
:10029800F04704460E460021904699469DF820A056
:1002A800FFF7B0FF00212046FFF7ACFF00212046F2
:1002B800FFF7A8FF00212046FFF7A4FF002506EB63
:1002C8004607A278EBB29A4218D9B3420AD16268BB
:1002D80002F8078062683A4482F8019062683A44FA
:1002E80082F802A0606803EB430142189378415CEE
:1002F80052782046FFF79CFF0135E2E720460021AF
:10030800FFF780FF20460021FFF77CFF20460021F1
:10031800FFF778FF2046BDE8F0470021FFF772BFDE
:1003280073B504460121007800F02CFE0025012158
:10033800607800F027FE2E46A378E9B28B4205F1DB
:10034800010506D9002300961A462046FFF79FFFAD
:10035800F2E702B070BD00F001B8000008B5024B2A
:100368001B681B68019308BDB001060808B5024B5D
:100378001B685B68019308BDB001060808B5024B0D
:100388001B689B68019308BDB001060808B5024BBD
:100398001B68DB68019308BDB001060808B5024B6D
:1003A8001B681B69019308BDB001060808B5024B1C
:1003B8001B681B6B019308BDB001060808B5024B0A
:1003C8001B68DB69019308BDB401060808B5024B38
:1003D8001B681B6A019308BDB401060808B5024BE7
:1003E8001B685B68019308BD9C01060808B5024BB1
:1003F8001B68DB68019308BD9C01060808B5024B21
:100408001B685B69019308BD9C01060808B5024B8F
:100418001B681B6B019308BDD001060808B5024B89
:100428001B689B69019308BDC401060808B5024B07
:100438001B685B6A019308BDC401060808B5024B36
:100448001B689B6A019308BDC401060808B5024BE6
:100458001B68DB6A019308BDC401060808B5024B96
:100468001B681B6B019308BDC401060808B5024B45
:100478001B685B6B019308BDC401060808B5024BF5
:100488001B689B6B019308BDC401060808B5024BA5
:100498001B681B6C019308BDC401060808B5024B14
:1004A8001B681B6E019308BDAC01060808B5024B1A
:1004B8001B685B6E019308BDAC01060808B5024BCA
:1004C8001B689B6E019308BDAC01060808B5024B7A
:1004D8001B68DB6E019308BDAC01060808B5024B2A
:1004E8001B681B6F019308BDAC01060808B5024BD9
:1004F8001B685B6F019308BDAC01060808B5034B88
:100508001B68D3F88030019308BD0000AC010608D1
:1005180008B5024B1B681B68019308BDD801060883
:1005280008B5024B1B685B68019308BDD801060833
:1005380008B5024B1B681B69019308BDD801060862
:1005480008B5024B1B685B69019308BDD801060812
:1005580008B5024B1B689B69019308BDD8010608C2
:1005680008B5024B1B68DB69019308BDD801060872
:1005780008B5024B1B681B6A019308BDD801060821
:1005880008B5024B1B689B6C019308BDC0010608A7
:1005980008B5024B1B685B68019308BDA4010608F7
:1005A80008B5034B1B68D3F89030019308BD0000D1
:1005B800A401060808B5034B1B68D3F89C300193C7
:1005C80008BD0000A401060808B5024B1B685B685B
:1005D800019308BDC801060808B5024B1B689B6853
:1005E800019308BDC801060808B5024B1B68DB6803
:1005F800019308BDC801060808B5024B1B681B69B2
:10060800019308BDC801060808B5024B1B685B6961
:10061800019308BDC801060808B5024B1B689B6911
:10062800019308BDC801060808B5024B1B68DB69C1
:10063800019308BDC801060808B5024B1B681B6A70
:10064800019308BDC801060808B5024B1B681B6B5F
:10065800019308BDC801060808B5024B1B685B6B0F
:10066800019308BDC801060808B5024B1B68DB6B7F
:10067800019308BDCC01060808B5024B1B681B682E
:10068800019308BDA001060808B5024B1B685B680A
:10069800019308BDA001060808B5024B1B681B6B37
:1006A800019308BDA0010608704710B50446102143
:1006B80000F009FD204610BD70B504460E46074BF4
:1006C8000025036040F80C5FFFF7A0FE3046267156
:1006D800FFF774FEA560204670BD00BF94140A0899
:1006E8000079FFF773BE00004FF6FF72034B00203E
:1006F800187058809A80FFF74BBF00BF8403002012
:10070800F8B506460D468F180024BD420CD0336854
:1007180015F8011B9B6830469847002801DB044404
:10072800F3E7002C08BF04462046F8BD70B505461F
:100738000C46084649B100F071FE2B680246214676
:100748002846BDE87040DB68184770BD08B5FFF75C
:10075800EDFF08BD03689B68184738B50D210546AD
:10076800FFF7F8FF0A2104462846FFF7F3FF204465
:1007780038BD012A98BF0A2230B50B468BB000213C
:100788008DF824100DF12304B3FBF2F505FB1233A9
:10079800DBB2092B94BF30333733DBB2214604F880
:1007A80001392B46002DEFD1FFF7C0FF0BB030BD4C
:1007B80010B422B90368C9B29B6810BC1847D2B2FA
:1007C80010BCFFF7D6BFFFF7F3BF2DE9F04107468E
:1007D8000E4615462AB9BDE8F0410368C9B29B68C0
:1007E80018470A2A02D1002901DA04E0D2B2BDE88A
:1007F800F041FFF7BEBF2D21FFF7ACFF2A460446A4
:1008080071423846FFF7B5FF2044BDE8F08138B59E
:100818000546FFF7DAFF04462846FFF79EFF204407
:1008280038BD00231A4619464068FFF7EDBE0000A0
:10083800014A024B1A60704757150A088C030020BA
:10084800024B1A68024B1A60704700BF0003002071
:100858009003002010B58368044613B103220146B3
:100868009847204610BD10B50446FFF7F3FF204611
:1008780010BD0000034800238360034A034900F0C9
:100888001DBC00BF94030020680300206F080A08FD
:1008980008B5144B33B100F06BF903681B6998472E
:1008A800002816DC104B33B100F020FA03681B69EE
:1008B8009847002810DC0D4B0BB1AFF300800C4BB0
:1008C8007BB100F091F903681B699847002806DCA2
:1008D80008BDAFF30080E5E7AFF30080EBE7AFF3C7
:1008E800008008BD000000000000000000000000BB
:1008F8000000000008B5FFF7CBFFFFF77FFD014BB5
:10090800186008BD380800200248034A0349121A33
:1009180000F03ABD004002400440024050170A0867
:1009280007B5002300931A466FF07701FFF742FEE0
:1009380003B05DF804FB000007B543880A2B08D014
:10094800502B09D1094B1B683BB103B05DF804EB90
:100958001847FFF7E5FF06E0002300931A466FF0FB
:100968007701FFF727FE03B05DF804FBA40300201E
:1009780038B5104C104D2368AB42104B0CBF012208
:1009880000221A7002D0FFF7BFFF2560FFF726FD8F
:10099800044600F01BFD0A4B13B12046AFF300805C
:1009A80000210748FFF760FEBDE8384000210548F0
:1009B800FFF7F6BD004002401E1C279AA80300203E
:1009C8000000000041090A08704710B504461821C4
:1009D80000F079FB204610BDF8B50F4600F1080677
:1009E800051D002416F8011D0A223846FFF7EBFE04
:1009F800AE42044407D0002CF4D02E213846FFF72D
:100A0800A9FE0444EEE72046F8BD000010B50446F0
:100A1800044B112240F8043B002100F0C0FC2046A2
:100A280010BD00BFB4150A080346074A10B543F8BD
:100A3800042B01F1100251F8044B914243F8044B86
:100A4800F9D10A781A7010BDB4150A08024A416033
:100A58000260042202757047B4150A0810B59DF8A3
:100A6800084044EA032343EA024242EA01610423BC
:100A78004160037510BD000037B5044D05609DF851
:100A880018500095FFF7EAFF03B030BDB4150A0807
:100A980041747047704708B50021007CFFF758FD86
:100AA80030EA200028BF4FF0FF3008BD08B501210B
:100AB800007CFFF74DFD30EA200028BF4FF0FF30E3
:100AC80008BD08B5007CFFF73BFD20EAE07008BDD3
:100AD80008B5007CFFF72CFD20EAE07008BD007C1B
:100AE800FFF746BD10B50446142100F0ECFA204685
:100AF80010BD38B50446007C0D46FFF721FD0028DF
:100B080001DC607C28B12946207CFFF729FD20EA1A
:100B1800E07038BD10B50446002363604FF47A7363
:100B2800A360054B084623600123217463741146B2
:100B3800FFF7EEFC204610BDC8150A080022007C0D
:100B4800FFF7EEBC10B504461422002100F027FC84
:100B5800054B20466360054BE36040F20113238197
:100B68008123238210BD00BF31040020B003002080
:100B780030B50E4D87B001A8FFF7E4FF296811F0E2
:100B8800010410D12846FFF786FA60B101AA214670
:100B98000748FFF7BFFF2846FFF782FA054A0649CC
:100BA800034800F08BFA024807B030BDAC030020C0
:100BB80034050020680300209D0A0A0810B5044681
:100BC8001422002100F0EBFB054B20466360054B27
:100BD800E36040F2011323818123238210BD00BF0B
:100BE800E40500204C05002010B50E4C86B001A885
:100BF800FFF7E4FF2368DB0710D42046FFF74BFA22
:100C080060B101AA01210848FFF784FF2046FFF7D9
:100C180047FA064A0649044800F050FA024806B066
:100C280010BD00BF48050020D00500206803002043
:100C38009D0A0A0870474174704708B5007CFFF7A1
:100C480025FC20EAE07008BD08B5007CFFF7F6FB3C
:100C580020EAE07008BD08B5007CFFF7FFFB30EA2A
:100C6800200028BF4FF0FF3008BD08B5007CFFF713
:100C7800EDFB30EA200028BF4FF0FF3008BD007CB4
:100C8800FFF7F4BB10B50446142100F01CFA204607
:100C980010BD70B5457C04460E4625B9007CFFF7AB
:100CA800F5FB002805DD3146207CBDE87040FFF7E4
:100CB800BDBB284670BD000010B504460846114665
:100CC800002262604FF47A72A260054A20742260A2
:100CD800012262741A46FFF7A1FB204610BD00BF2F
:100CE800F8150A08007CFFF7C9BB000038B50C4DA1
:100CF800296811F0010411D12846FFF7CCF968B131
:100D0800084A2146084B0948FFF7D6FF2846FFF74F
:100D1800C7F9074A0749054800F0D0F9034838BD24
:100D28008007002084070020FC060020E806002039
:100D3800680300203D0C0A087047F8B506461546BA
:100D48000C468F18BC4206D0336814F8011B9B6808
:100D580030469847F6E72846F8BD0022007CFFF7A2
:100D68009DBB0021007CFFF7A1BB0021007CFFF7A1
:100D7800A5BB0021007CFFF7A9BB0021007CFFF781
:100D8800ADBB10B50446142100F09DF9204610BDF6
:100D980010B5044608464FF47A73A360044B00214B
:100DA800207461602360FFF7A9FB204610BD00BFD7
:100DB80028160A080021007CFFF798BB002211467C
:100DC8004068FFF719BCF0B5164689B011220F46E6
:100DD8000446002103A800F0E2FA304600F01EFBAA
:100DE8000025009581B27B6803AA3046FFF7C8FB4F
:100DF80020B129462046FFF729FE03E003A9204633
:100E0800FFF712FE204609B0F0BD002211464068E7
:100E1800FFF712BC002211464068FFF71DBC0022F4
:100E28004068FFF711BC002281F001014068FFF71C
:100E3800FBBB00231A4619464068FFF7EDBB0022AA
:100E480011464068FFF7C8BB002202214068FFF73F
:100E5800CBBB00231A464068FFF7B6BB024B0422FF
:100E68005A60024A1A6070470808002050160A089B
:100E780000231A464068FFF7A7BB002202214068FA
:100E8800FFF7B2BB002211464068FFF7A5BB00225E
:100E980011464068FFF7B0BB00231A461946406860
:100EA800FFF7B2BB00231A4619464068FFF7B4BBE8
:100EB800002281F001014068FFF7B6BB00224068BC
:100EC800FFF7C2BB002211464068FFF7C5BB0022EE
:100ED80011464068FFF7B0BB70B516468EB00446A1
:100EE80008A8FFF793FD1122002103A800F057FA84
:100EF800304600F093FA00250A4B009581B25B68F2
:100F080003AA3046FFF73CFB20B129462046FFF7ED
:100F18009DFD03E003A92046FFF786FD20460EB09D
:100F280070BD00BF08080020024B034A1A60002267
:100F38005A6070471008002084160A0810B5044645
:100F48000F48FFF7CDFB28B1A4F10D03022B01D800
:100F5800002010BD00F092F8FFF72CFF08B1012C1B
:100F6800F6D9FFF7C3FEFFF7BDFE18B1A4F11203CF
:100F7800012BEDD9172C8CBF0020012010BD00BF1C
:100F880018080020172838B504460D460AD8FF2946
:100F980008D0FFF7D3FF28B129462046BDE83840DE
:100FA800FFF7ECB938BD38B504460D46FFF7EEF942
:100FB800FF2810D0062804D84D2323FA00F0C307D1
:100FC80009D42046FFF7BAFF28B129462046BDE8D4
:100FD8003840FFF7E3B938BD10B5044609289CBF6F
:100FE8000A34A4B22046FFF7A9FF50B103212046D6
:100FF800FFF7BCF9032804D12046BDE81040FFF7ED
:10100800D5B9002010BD000070B50C4C0C4E0D4D2C
:1010180000212046FFF750FB20460B4C324629465C
:1010280000F04CF801212046FFF746FB32462946DE
:101038002046BDE8704000F041B800BF1808002005
:1010480068030020B1060A082808002013B5084CD8
:1010580000231A46194600932046FFF70DFD204647
:10106800044A054902B0BDE8104000F027B800BFA7
:101078003C08002068030020D1090A0838B50B4D48
:10108800296811F001040FD12846FFF704F858B178
:1010980021460748FFF77CFE2846FFF701F8054A76
:1010A8000549034800F00AF8014838BD54080020F3
:1010B8005808002068030020410D0A080B46014625
:1010C800184600F053B9FEF7E4BF0000184B1A6841
:1010D800D1075CBF01221A60164B1A68D2075CBFA1
:1010E80001221A60144B1A68D0075CBF01221A60EB
:1010F800124B1A68D1075CBF01221A60104B1A689C
:10110800D2075CBF01221A600E4B1A68D0075CBF79
:1011180001221A600C4B1A68D1075CBF01221A60C1
:101128000A4B1A68D2075CBF01221A60704700BFD9
:101138008808002084080020800800207C080020FF
:101148007808002074080020700800206C0800202F
:10115800244B1A68D0075CBF01221A60224B1A6818
:10116800D1075CBF01221A60204B1A68D2075CBF06
:1011780001221A601E4B1A68D0075CBF01221A6050
:101188001C4B1A68D1075CBF01221A601A4B1A68F7
:10119800D2075CBF01221A60184B1A68D0075CBFDF
:1011A80001221A60164B1A68D1075CBF01221A6027
:1011B800144B1A68D2075CBF01221A60124B1A68D6
:1011C800D0075CBF01221A60104B1A68D1075CBFB8
:1011D80001221A600E4B1A68D2075CBF01221A60FE
:1011E800704700BFB8080020B4080020B0080020ED
:1011F800AC080020A8080020A4080020A0080020AF
:101208009C080020980800209408002090080020DE
:101218008C080020244B1A68D0075CBF01221A6092
:10122800224B1A68D1075CBF01221A60204B1A684A
:10123800D2075CBF01221A601E4B1A68D0075CBF38
:1012480001221A601C4B1A68D1075CBF01221A6080
:101258001A4B1A68D2075CBF01221A60184B1A6829
:10126800D0075CBF01221A60164B1A68D1075CBF11
:1012780001221A60144B1A68D2075CBF01221A6057
:10128800124B1A68D0075CBF01221A60104B1A680B
:10129800D1075CBF01221A600E4B1A68D2075CBFE7
:1012A80001221A60704700BFE8080020E408002007
:1012B800E0080020DC080020D8080020D40800201E
:1012C800D0080020CC080020C8080020C40800204E
:1012D800C0080020BC080020184B1A68D1075CBF62
:1012E80001221A60164B1A68D2075CBF01221A60E5
:1012F800144B1A68D0075CBF01221A60124B1A6897
:10130800D1075CBF01221A60104B1A68D2075CBF74
:1013180001221A600E4B1A68D0075CBF01221A60BE
:101328000C4B1A68D1075CBF01221A600A4B1A6875
:10133800D2075CBF01221A60704700BF080900206D
:101348000409002000090020FC080020F8080020FB
:10135800F4080020F0080020EC080020024B0A46A0
:101368000146186800F023B86403002010B5054C46
:1013780013462CB10A4601460220AFF3008010BD87
:10138800204610BD0000000010B5431E0A449142DB
:1013980004D011F8014B03F8014FF8E710BD0346DC
:1013A8000244934202D003F8011BFAE7704738B5AC
:1013B80002FB01F42146FFF76FF9054618B12246F2
:1013C8000021FFF7ECFF284638BD000038B5124B66
:1013D80005461C68A36BD3B91820FFF74DF943F2F3
:1013E8000E33A06303804AF6CD33438041F23423A1
:1013F80083804EF26D63C3804DF6EC630381052351
:1014080043810B23838101220023C0E90423A36BBA
:1014180000221D615A6138BD64030020034613F899
:10142800012B002AFBD1181A013870471D000A0841
:101438005D000A0889000A088D000A0800000000FB
:10144800506F74656E7A696F6D6574726F20626C27
:1014580075203D2000506F74656E7A696F6D6574F4
:10146800726F20726F73736F203D2000506F746528
:101478006E7A696F6D6574726F2076657264652027
:101488003D2000000000000000000000B1060A082E
:10149800B3060A0866006C6E00666E00636F6465CA
:1014A8000064657461696C000D0A0025303130757F
:1014B80020005D20002564002C200028293A200007
:1014C800205B00636F6465203D200025690064652A
:1014D8007461696C73203D20006261756400536516
:1014E8007269616C0055534253657269616C3100D1
:1014F8007479706500706172616D00636D64006974
:101508006400686E64007374726D0066696C7400C0
:101518006C766C0061646448616E646C657200721C
:10152800656D6F766548616E646C657200656E7591
:101538006D48616E646C657273004A534F4E537404
:101548007265616D4C6F6748616E646C65720061AD
:101558007070006E6F6E6500747261636500696E0D
:10156800666F007761726E006572726F72007061EB
:101578006E696300616C6C005A00252B3033643A45
:10158800253032750025592D256D2D2564542548A3
:101598003A254D3A2553257A0061736374696D6560
:1015A800000000000000000000000000E1090A0837
:1015B800D1090A08D3090A08000000000000000049
:1015C8009D0A0A08ED0A0A08FB0A0A0809070A0818
:1015D800D90A0A089F0A0A08B50A0A08E70A0A087F
:1015E800CB0A0A08990A0A08000000000000000057
:1015F8003D0C0A088D0C0A089B0C0A0809070A0802
:10160800510C0A08730C0A085F0C0A08870C0A08B0
:101618003F0C0A08430C0A08000000000000000004
:10162800410D0A088B0D0A08630D0A08430D0A08C4
:101638006B0D0A08730D0A087B0D0A08830D0A084A
:1016480000000000000000005B0E0A08510E0A08A6
:10165800470E0A08C50D0A082B080A083B0E0A0897
:101668002F0E0A08270E0A081D0E0A08130E0A086C
:10167800CF0D0A080000000000000000790E0A08DB
:10168800830E0A088D0E0A08970E0A08A10E0A088A
:10169800AD0E0A08B90E0A08C50E0A08CD0E0A08CA
:1016A800D70E0A08E10E0A0800000000000000003A
:1016B8000000000000000000000000000000000022
:1016C8000000000000000000000000000000000012
:1016D8000000000000000000000000000000000002
:1016E80000000000000000000000000000000000F2
:1016F80000000000000000000000000000000000E2
:1017080000000000000000004300000091010A08EA
:101718005F030A08F1060A0839080A0849080A088E
:101728007D080A08650E0A08310F0A0811100A0810
:1017380055100A08D5100A0859110A081D120A0876
:08174800E1120A080000000094
:041750000000000095
:10175400A1150A0800000000B0160A08D0160A08ED
:10176400F0160A080000000000000000000000005D
:101774000000000010170A0800000000000000002C
:101784000000000000000000000000000000000055
:101794000000000000000000000000000000000045
:1017A4000000000000000000000000000000000035
:0817B400000000000403002006
:1017BC00FFFFFFFF00000102030405060708090AEA
:1017CC000B0C0D0E0F101112131415161718191AE5
:0817DC001B1C1D1E1F2028002C
:0417E40078563412ED
:04000005080A0018CD
:00000001FF
