:02000004080AE8
:1000000000000A08E4120A080000060006000501C4
:080010000402350800000000A5
:04001800E0100A08E2
:10001C0009480A4908B5884205D0094A824202D0EB
:10002C00121A01F007F80748074A0021121A01F0CA
:10003C000FF8064808BD00BF0000002054120A0843
:10004C0068000020680000205005002050050020AA
:10005C0070B500F019FC0025054E064CA41BA40835
:10006C00A54200D170BD56F8043B98470135F7E71F
:10007C002C120A084C120A0800F014B808B500F04B
:10008C001FF8BDE8084000F0C1BB00F0B1BA00F0A9
:10009C00B7BA0078B0FA80F04009704701230370BA
:1000AC007047000008B500F0EFFC4FF4165100F05B
:1000BC00D1FCBDE80840014800F0F2B87000002007
:1000CC0007B500F0E1FC03685B6998470E4BC0B2C2
:1000DC007228187009D10023FF22009319460B488F
:1000EC0000F096F803B05DF804FB622804D1FF23FE
:1000FC00009300231A46F1E76728F3D10022FF236F
:10010C0011460092EBE700BF6C000020700000204D
:10011C0010B5074C032202212046012300F00EF8F3
:10012C002046BDE81040034A034900F063BF00BFFE
:10013C00700000206800002063010A0810B5044616
:10014C00017042708370012103EB430000F05CFFEF
:10015C006060204610BD10B50446406800F050FAAF
:10016C00204610BD10B504460021007800F0D1FEE9
:10017C00142000F0CFF82078012100F0CAFEBDE871
:10018C001040142000F0C6B870B506460C46082581
:10019C0023064CBF01210021707800F0BAFE013D0E
:1001AC003046FFF7DFFF640015F0FF05E4B2EFD136
:1001BC0070BD13F0800FF8B50D46164614BFC02164
:1001CC00E02104461F465A0658BF41F01001330681
:1001DC0058BF41F00801700658BF41F004012A06CF
:1001EC0058BF41F002016B0658BF41F00101204697
:1001FC00FFF7CAFF39462046FFF7C6FF31462046B7
:10020C00FFF7C2FF29462046BDE8F840FFF7BCBF08
:10021C002DE9F04704460F460021904699469DF87B
:10022C0020A0FFF7B1FF00212046FFF7ADFF002112
:10023C002046FFF7A9FF00212046FFF7A5FF002667
:10024C00A378F5B2AB4219D905EB4500AF4200F1EA
:10025C00010200F1020308D1616801F800806168B5
:10026C0001F80290616801F803A061680136CB5C6B
:10027C008A5C095C2046FFF79CFFE1E720460021E1
:10028C00FFF782FF20460021FFF77EFF204600216A
:10029C00FFF77AFF2046BDE8F0470021FFF774BF57
:1002AC0073B5044600250121007800F021FE0121E0
:1002BC00607800F01DFE2E46A378E9B28B4207D978
:1002CC00002320461A460096FFF7A2FF0135F3E7FC
:1002DC0002B070BD08B5024B1B689B68019308BD4A
:1002EC00B001060808B5024B1B68DB68019308BD1A
:1002FC00B001060808B5024B1B681B69019308BDC9
:10030C00B001060808B5024B1B685B68019308BD79
:10031C009C01060808B5024B1B68DB68019308BDFD
:10032C009C01060808B5024B1B685B69019308BD6C
:10033C009C01060808B5024B1B685B6C019308BD59
:10034C00D001060808B5024B1B689B6C019308BDD5
:10035C00D001060808B5024B1B689B69019308BDC8
:10036C00C401060808B5024B1B685B6A019308BD03
:10037C00C401060808B5024B1B689B6A019308BDB3
:10038C00C401060808B5024B1B68DB6A019308BD63
:10039C00C401060808B5024B1B681B6B019308BD12
:1003AC00C401060808B5024B1B685B6B019308BDC2
:1003BC00C401060808B5024B1B689B6B019308BD72
:1003CC00C401060808B5024B1B681B6C019308BDE1
:1003DC00C401060808B5024B1B681B6E019308BDCF
:1003EC00AC01060808B5024B1B685B6E019308BD97
:1003FC00AC01060808B5024B1B689B6E019308BD47
:10040C00AC01060808B5024B1B68DB6E019308BDF6
:10041C00AC01060808B5024B1B681B6F019308BDA5
:10042C00AC01060808B5024B1B685B6F019308BD55
:10043C00AC01060808B5034B1B68D3F88030019358
:10044C0008BD0000AC01060808B5024B1B68DB694F
:10045C00019308BDB401060808B5024B1B681B6A62
:10046C00019308BDB401060808B5024B1B681B6854
:10047C00019308BDD801060808B5024B1B685B68E0
:10048C00019308BDD801060808B5024B1B681B690F
:10049C00019308BDD801060808B5024B1B685B69BF
:1004AC00019308BDD801060808B5024B1B689B696F
:1004BC00019308BDD801060808B5024B1B68DB691F
:1004CC00019308BDD801060808B5024B1B681B6ACE
:1004DC00019308BDD801060808B5024B1B689B6C3C
:1004EC00019308BDC001060808B5024B1B685B6888
:1004FC00019308BDA401060808B5034B1B68D3F88B
:10050C009030019308BD0000A401060808B5034B08
:10051C001B68D3F89C30019308BD0000A4010608A9
:10052C0008B5024B1B685B68019308BDC80106083F
:10053C0008B5024B1B689B68019308BDC8010608EF
:10054C0008B5024B1B68DB68019308BDC80106089F
:10055C0008B5024B1B681B69019308BDC80106084E
:10056C0008B5024B1B685B69019308BDC8010608FE
:10057C0008B5024B1B689B69019308BDC8010608AE
:10058C0008B5024B1B68DB69019308BDC80106085E
:10059C0008B5024B1B681B6A019308BDC80106080D
:1005AC0008B5024B1B681B6B019308BDC8010608FC
:1005BC0008B5024B1B685B6B019308BDC8010608AC
:1005CC0008B5024B1B681B6C019308BDC8010608DB
:1005DC0008B5024B1B685B6C019308BDC80106088B
:1005EC0008B5024B1B68DB6B019308BDCC010608F8
:1005FC0008B5024B1B681B68019308BDA0010608D7
:10060C0008B5024B1B685B68019308BDA001060886
:10061C0008B5024B1B681B6B019308BDA0010608B3
:10062C0008B5024B1B685B6C019308BDA001060862
:10063C0070B5002604460D4640F8086FFFF77AFEA9
:10064C0028462570FFF700FF2046666070BD10B588
:10065C000446006818B1FFF7D3FF0023236010BDD8
:10066C0010B50446FFF7F3FF204610BD0222002010
:10067C0010B5084B084C1A60084B2060A080A07184
:10068C00A360FFF731FF2046BDE81040044A05493E
:10069C0000F0B0BC84000020780000200000FFFFB8
:1006AC00680000206D060A08F8B506460D460024C1
:1006BC008F18BD420CD0336830469B6815F8011B6F
:1006CC009847031E01DB1C44F3E7002C08BF1C46B3
:1006DC002046F8BD70B505460C46084649B100F0F9
:1006EC00F1FC2B68024621462846BDE87040DB68C9
:1006FC00184770BD03689B6818470023012A98BFF0
:10070C000A2230B58BB00C468DF8243009A9254649
:10071C00B4FBF2F404FB1253DBB2092B94BF30335D
:10072C003733DBB2AA4201F8013DF0D9FFF7D2FF13
:10073C000BB030BD002340681A461946FFF710BFB6
:10074C00014B024A1A60704788000020F4100A0816
:10075C00024B1A68024B1A60704700BF0000002061
:10076C008C00002010B58368044613B103220146A7
:10077C009847204610BD10B50446FFF7F3FF2046FE
:10078C0010BD000000230348034A0449836000F0B5
:10079C0031BC00BF900000206800002083070A08CD
:1007AC00014B1860704700BF0400002008B5134BC4
:1007BC0043B100F069F903681B699847002801DD13
:1007CC00AFF300800E4B43B100F016FA03681B69BF
:1007DC009847002801DDAFF300800A4B0BB1AFF353
:1007EC000080094B43B100F08DF903681B699847F1
:1007FC00002801DDAFF3008008BD00BF0000000041
:10080C0000000000000000000000000008B5FFF729
:10081C00CDFFFFF787FD014B186008BD1C050020BC
:10082C000248034A0349121A00F004BC004002407B
:10083C000440024050120A08002307B51A466FF014
:10084C0077010093FFF762FE03B05DF804FB000034
:10085C0007B543880A2B08D0502B0BD1094B1B68CA
:10086C004BB103B05DF804EB1847FFF7E5FF03B09D
:10087C005DF804FB00231A466FF077010093FFF735
:10088C0045FEF4E7A400002038B5124C00211248B4
:10089C00FFF7C6FE114D2368AB420CBF01220022AC
:1008AC000F4B1A7002D0FFF7BBFF2560FFF72AFD34
:1008BC00044600F0E3FB0B4B13B12046AFF3008072
:1008CC0000210848FFF78CFEBDE83840002106489F
:1008DC00FFF712BE00400240AD070A081E1C279A03
:1008EC00A0000020000000005D080A08704710B549
:1008FC000446182100F083FB204610BDF8B50E46C7
:10090C00002400F10807051D17F8011D0A223046C6
:10091C00FFF7F3FEAF42044401D12046F8BD002C92
:10092C00F2D02E213046FFF7E5FE0444ECE7000040
:10093C0010B50446044B1122002140F8043B00F092
:10094C0087FB204610BD00BF1C110A080346074A4E
:10095C0010B543F8042B01F1100251F8044B9142ED
:10096C0043F8044BF9D10A781A7010BD1C110A080F
:10097C00024AC0E900210422027570471C110A08C2
:10098C0010B59DF8084044EA0324042344EA0244C9
:10099C0044EA01644460037510BD000037B5044D92
:1009AC0005609DF818500095FFF7EAFF03B030BDC5
:1009BC001C110A0841747047704708B50021007C6F
:1009CC00FFF772FD40EAE07008BD08B50121007C1C
:1009DC00FFF76AFD40EAE07008BD08B5007CFFF740
:1009EC005BFD20EAE07008BD08B5007CFFF74CFD0C
:1009FC0020EAE07008BD38B50446007C0D46FFF7D0
:100A0C004BFD002801DC607C28B12946207CFFF7D7
:100A1C0053FD20EAE07038BD007CFFF755BD10B5E2
:100A2C000446142100F0EBFA204610BD10B54FF42B
:100A3C007A73044608460021C4E90113044B207460
:100A4C002360012311466374FFF70EFD204610BD91
:100A5C0030110A080022007CFFF70EBD10B50446C9
:100A6C001422002100F0F4FA054B20466360054B7C
:100A7C00E36040F2011323818123238210BD00BF68
:100A8C00D8000020D901002030B50F4D87B001A847
:100A9C00FFF7E4FF2978BFF35B8F11F0010410D14D
:100AAC002846FFF7F6FA60B1214601AA0748FFF77E
:100ABC00BDFF2846FFF7F2FA054A0649034800F045
:100ACC0099FA024807B030BDA8000020B000002001
:100ADC0068000020C5090A0810B50446142200213C
:100AEC0000F0B6FA054B20466360054BE36040F21C
:100AFC00011323818123238210BD00BF5A020020E1
:100B0C005B03002010B50F4C86B001A8FFF7E4FF83
:100B1C002378BFF35B8FDB0710D42046FFF7B9FABD
:100B2C0060B1012101AA0848FFF780FF2046FFF7BA
:100B3C00B5FA064A0649044800F05CFA024806B0C9
:100B4C0010BD00BFAC000020C400002068000020D5
:100B5C00C5090A0870474174704708B5007CFFF757
:100B6C0031FC20EAE07008BD08B5007CFFF702FC00
:100B7C0020EAE07008BD08B5007CFFF70BFC40EAEA
:100B8C00E07008BD08B5007CFFF7FCFB40EAE070A4
:100B9C0008BD007CFFF706BC70B5467C04460D46CC
:100BAC002EB12946207CBDE87040FFF7DBBB007CF2
:100BBC00FFF708FC0028F4DC304670BD10B5044685
:100BCC00142100F01CFA204610BD00004FF0000C60
:100BDC0010B50446084611464FF47A72C4E901C2B6
:100BEC00044A20742260012262741A46FFF7B2FB99
:100BFC00204610BD60110A0838B50D4D2978BFF399
:100C0C005B8F11F0010411D12846FFF742FA68B14D
:100C1C002146084A084B0948FFF7D8FF2846FFF73A
:100C2C003DFA074A0749054800F0E4F9034838BD86
:100C3C00DC030020E003002064040020E804002012
:100C4C0068000020610B0A087047F8B50646154687
:100C5C000C468F18BC4206D0336830469B6814F89B
:100C6C00011B9847F6E72846F8BD0022007CFFF7E9
:100C7C00B1BB0021007CFFF7B5BB0021007CFFF766
:100C8C00B9BB0021007CFFF7BDBB0021007CFFF746
:100C9C00C1BB10B50446142100F0B1F9204610BDBB
:100CAC0010B54FF47A73044608460021C4E90113C9
:100CBC00034B114623602074FFF7BCFB204610BD8C
:100CCC0090110A08002240681146FFF741BCF0B5AC
:100CDC00154689B011220E460446002103A800F0E7
:100CEC00B7F9284600F0EEF9002781B27368284660
:100CFC00009703AAFFF7F0FB30B139462046FFF707
:100D0C0037FE204609B0F0BD204603A9FFF71EFEB2
:100D1C00F7E7002240681146FFF73ABC0022406812
:100D2C001146FFF745BC00224068FFF739BC002292
:100D3C00406881F00101FFF723BC002340681A468C
:100D4C001946FFF715BC002240681146FFF7F0BBAF
:100D5C00002202214068FFF7F3BB002340681A46CB
:100D6C00FFF7DEBB0422024B5A60024A1A6070473E
:100D7C00FC040020B8110A08002340681A46FFF74B
:100D8C00CFBB002202214068FFF7DABB002240688B
:100D9C001146FFF7CDBB002240681146FFF7D8BBC8
:100DAC00002340681A461946FFF7DABB0023406857
:100DBC001A461946FFF7DCBB00214068FFF700BC60
:100DCC0000214068FFF704BC0022406881F001015B
:100DDC00FFF7D6BB00224068FFF7E2BB0022406859
:100DEC001146FFF7E5BB002240681146FFF7D0BB68
:100DFC0070B515468EB0044608A8FFF799FD112270
:100E0C00002103A800F024F90026284600F05AF926
:100E1C000A4B009681B25B68284603AAFFF75CFB7D
:100E2C0030B131462046FFF7A3FD20460EB070BD11
:100E3C00204603A9FFF78AFDF7E700BFFC0400205A
:100E4C00024B034A1A6000225A60704704050020C6
:100E5C00F4110A0810B50446806808B1FFF772FA5D
:100E6C00204610BD172870B5044601D9002070BD6E
:100E7C00A0F10D03022B0BD9012826D800F092F813
:100E8C000021007CFFF7CEFA80F00100C0B2EEE743
:100E9C00134E3178BFF35B8F11F001050FD1304643
:100EAC00FFF7F7F858B129460E48FFF7C1FB30465B
:100EBC00FFF7F4F80C4A0D490A4800F09BF8094B6F
:100ECC001878FFF7C9FA0028D0D1123C012C05D8AC
:100EDC00FFF792FE007CFFF76DFAD5E70120C6E71D
:100EEC000C0500201005002068000020610E0A0887
:100EFC00172838B504460D460AD8FF2908D0FFF745
:100F0C00B1FF28B129462046BDE83840FFF7E2B9C9
:100F1C0038BD38B504460D46FFF7E4F9FF2810D06C
:100F2C00062804D84D2323FA00F0C30709D4204621
:100F3C00FFF798FF28B129462046BDE83840FFF757
:100F4C00D9B938BD002313B5074C1A4619462046AB
:100F5C000093FFF723FD2046044A054902B0BDE883
:100F6C00104000F047B800BF2005002068000020AA
:100F7C00F9080A08002370B5202543801423084E75
:100F8C0004460380314685600561284600F039F837
:100F9C0031466060284600F034F8E060204670BDB1
:100FAC0028120A0830B50F4D87B02978BFF35B8F34
:100FBC0011F0010413D12846FFF76BF878B101A8A2
:100FCC00FFF7D8FF214601AA0748FFF769FE28461C
:100FDC00FFF764F8054A0649034800F00BF802488D
:100FEC0007B030BD380500203C050020680000200B
:100FFC00550C0A080B460146184600F00DB8FFF7D1
:10100C0046B8FFF742B80000024B0A460146186882
:10101C0000F026B80400002010B50446044813461E
:10102C0020B10A4602202146AFF3008010BD00BF5C
:10103C00000000000A44914200F1FF3300D17047D8
:10104C0010B511F8014B914203F8014FF9D110BDC5
:10105C0003460244934200D1704703F8011BF9E7A1
:10106C0038B502FB01F52946FFF7D2FA044618B150
:10107C002A460021FFF7ECFF204638BD38B50D4B52
:10108C0004461D68AB6B7BB91820FFF7B1FA0A4A0E
:10109C000A4BA863C0E90023094B012283600B2390
:1010AC0083810023C0E904230022AB6B1C615A61CD
:1010BC0038BD00BF040000200E33CDAB34126DE6FA
:1010CC00ECDE0500034613F8012B002AFBD1181A9D
:1010DC00013870471D000A085D000A0885000A08DF
:1010EC0089000A08000000006170700025592D2548
:1010FC006D2D25645425483A254D3A2553257A0003
:10110C0061736374696D65000000000000000000ED
:10111C0009090A08F9080A08FB080A080000000077
:10112C0000000000C5090A082B0A0A08030A0A086D
:10113C00B5060A08F5090A08C7090A08D7090A08F2
:10114C00250A0A08E7090A08C1090A080000000074
:10115C0000000000610B0A08C90B0A08A50B0A085D
:10116C00B5060A08750B0A08910B0A08830B0A08C6
:10117C009F0B0A08630B0A08670B0A0800000000A3
:10118C0000000000550C0A089F0C0A08770C0A088E
:10119C00570C0A087F0C0A08870C0A088F0C0A08DF
:1011AC00970C0A080000000000000000670D0A08F8
:1011BC005D0D0A08530D0A08D10C0A0841070A08EC
:1011CC00470D0A08C50D0A08CD0D0A083B0D0A0883
:1011DC00330D0A08290D0A081F0D0A08DB0C0A0832
:1011EC000000000000000000850D0A088F0D0A08A1
:1011FC00990D0A08A30D0A08AD0D0A08B90D0A08C5
:10120C00C50D0A08CD0D0A08D50D0A08E10D0A080E
:10121C00E90D0A08F30D0A08FD0D0A08000000008C
:10122C001D010A0879060A084D070A085D070A0815
:10123C0091070A08710D0A084D0E0A08510F0A0889
:04124C00000000009E
:04125000000000009A
:101254000C110A0808000020000000000000000033
:10126400000000000000000000000000000000007A
:10127400000000000000000000000000000000006A
:10128400000000000000000000000000000000005A
:10129400000000000000000000000000000000004A
:1012A400000000000000000000000000000000003A
:0812B400000000000000000032
:1012BC00FFFFFFFF00000102030405060708090AEF
:1012CC000B0C0D0E0F101112131415161718191AEA
:0812DC001B1C1D1E1F20280031
:0412E40078563412F2
:04000005080A001CC9
:00000001FF
