:02000004080AE8
:1000000000000A0804280A0800000600060005018E
:080010000402BD040000000021
:1000180094200A0809480A4908B5884205D0094ABF
:10002800824202D0121A01F02CFF0748074A002129
:10003800121A01F04CFF064808BD00BF000300205B
:100048006C270A0870030020700300205C09002058
:100058005C09002070B500F0A5FD074B074C1E4653
:10006800E41AA4080025A54204D056F8253098477C
:100078000135F8E770BD00BF24270A085C270A0885
:1000880000F014B808B500F025F8BDE8084000F005
:100098004BBD00F079BB00F07FBB0078B0FA80F070
:1000A80040097047012303707047000008B500F04D
:1000B80079FE4FF4165100F05BFE054800F0C8F9D0
:1000C80000F070FEBDE80840642100F0AFBC00BF3E
:1000D8007403002030B595B000F064FE4C4C014626
:1000E8000EA800F0A5FC0E99204601F04CFA0EA8C7
:1000F80000F09EFB6368002B00F08780454A04A847
:10010800511E029001F06DF901230393029B002513
:100118005D702A4602A9204601F065FA2146034689
:100128002A4608A801F0BAFA2A4602A9204601F090
:100138005AFA4FF0FF33421C21460EA801F0AEFADE
:1001480000F030FE089900F026FC00F02BFE0E9916
:1001580000F021FC0E9801F06BFE2F4C2F49206017
:1001680008A801F045FA014648B922682C4B2D48E9
:100178001A6000782C4BD2B21B7800900EE02B4905
:1001880008A801F035FA014660B92368264A2548CF
:1001980013600078224ADBB212780090244800F0FD
:1001A8000EF929E0234908A801F022FA014648B9C6
:1001B80024681C4B1A4A1C601B4BE4B21B7812784B
:1001C8000094EBE71C4908A801F012FA034648B965
:1001D800134A01461060144A1060124A10600090D9
:1001E8000246DBE700F0DEFD144900F0D4FB00F026
:1001F800D9FD134900F0CFFB0EA801F0AFF808A80D
:1002080001F0ACF802A801F0A9F815B030BD00BFA4
:10021800A8030020A9200A087C03002082210A08DC
:1002280090030020A4030020C0030020CE240A0865
:1002380074030020AA200A08C6210A08AC200A086C
:10024800CA200A08F8B51E4D1E4C00F01FF91E4EB4
:1002580001231E4F03220221284600F045F82246BA
:100268001B49284601F02CF81A4D3146384600F053
:1002780026FB3846184F2246294601F021F8314618
:10028800384600F01CFB22462946384601F018F88B
:100298001248134F00F1080303600023224643600D
:1002A8000372104901F00CF83146384600F007FB9C
:1002B800224629463846BDE8F84001F001B800BF9B
:1002C800740300207003002012210A088003002014
:1002D8000B030A0839080A08C4030020A8030020F1
:1002E8009403002071140A0810B504460170427086
:1002F8008370012103EB430001F09EFD60602046FE
:1003080010BD10B50446406800F046FA204610BDFE
:1003180010B504460021007800F05FFF142000F0BB
:10032800EDF82078012100F058FFBDE810401420B6
:1003380000F0E4B870B506460D46082415F0800FA5
:1003480014BF01210021707800F047FF013C3046BE
:10035800FFF7DEFF6D0014F0FF04EDB2EED170BDC3
:10036800F8B516460D4604461F4613F0800F14BF15
:10037800C021E0215A0658BF41F01001330658BF8A
:1003880041F00801700658BF41F004012A0658BF21
:1003980041F002016B0658BF41F001012046FFF70A
:1003A800C9FF39462046FFF7C5FF31462046FFF70B
:1003B800C1FF29462046BDE8F840FFF7BBBF2DE93D
:1003C800F04704460E460021904699469DF820A025
:1003D800FFF7B0FF00212046FFF7ACFF00212046C1
:1003E800FFF7A8FF00212046FFF7A4FF002506EB32
:1003F8004607A278EBB29A4218D9B3420AD162688A
:1004080002F8078062683A4482F8019062683A44C8
:1004180082F802A0606803EB430142189378415CBC
:1004280052782046FFF79CFF0135E2E7204600217D
:10043800FFF780FF20460021FFF77CFF20460021C0
:10044800FFF778FF2046BDE8F0470021FFF772BFAD
:1004580073B504460121007800F0AEFE00250121A5
:10046800607800F0A9FE2E46A378E9B28B4205F128
:10047800010506D9002300961A462046FFF79FFF7C
:10048800F2E702B070BD00F001B8000008B5024BF9
:100498001B681B68019308BDB001060808B5024B2C
:1004A8001B689B68019308BDB001060808B5024B9C
:1004B8001B68DB68019308BDB001060808B5024B4C
:1004C8001B681B69019308BDB001060808B5024BFB
:1004D8001B68DB69019308BDB401060808B5024B27
:1004E8001B681B6A019308BDB401060808B5024BD6
:1004F8001B685B68019308BD9C01060808B5024BA0
:100508001B68DB68019308BD9C01060808B5024B0F
:100518001B685B69019308BD9C01060808B5024B7E
:100528001B681B6B019308BDD001060808B5024B78
:100538001B689B69019308BDC401060808B5024BF6
:100548001B685B6A019308BDC401060808B5024B25
:100558001B689B6A019308BDC401060808B5024BD5
:100568001B68DB6A019308BDC401060808B5024B85
:100578001B681B6B019308BDC401060808B5024B34
:100588001B685B6B019308BDC401060808B5024BE4
:100598001B689B6B019308BDC401060808B5024B94
:1005A8001B681B6C019308BDC401060808B5024B03
:1005B8001B681B6E019308BDAC01060808B5024B09
:1005C8001B685B6E019308BDAC01060808B5024BB9
:1005D8001B689B6E019308BDAC01060808B5024B69
:1005E8001B68DB6E019308BDAC01060808B5024B19
:1005F8001B681B6F019308BDAC01060808B5024BC8
:100608001B685B6F019308BDAC01060808B5034B76
:100618001B68D3F88030019308BD0000AC010608C0
:1006280008B5024B1B681B68019308BDD801060872
:1006380008B5024B1B685B68019308BDD801060822
:1006480008B5024B1B681B69019308BDD801060851
:1006580008B5024B1B685B69019308BDD801060801
:1006680008B5024B1B689B69019308BDD8010608B1
:1006780008B5024B1B68DB69019308BDD801060861
:1006880008B5024B1B681B6A019308BDD801060810
:1006980008B5024B1B689B6C019308BDC001060896
:1006A80008B5024B1B685B68019308BDA4010608E6
:1006B80008B5034B1B68D3F89030019308BD0000C0
:1006C800A401060808B5034B1B68D3F89C300193B6
:1006D80008BD0000A401060808B5024B1B685B684A
:1006E800019308BDC801060808B5024B1B689B6842
:1006F800019308BDC801060808B5024B1B68DB68F2
:10070800019308BDC801060808B5024B1B681B69A0
:10071800019308BDC801060808B5024B1B685B6950
:10072800019308BDC801060808B5024B1B689B6900
:10073800019308BDC801060808B5024B1B68DB69B0
:10074800019308BDC801060808B5024B1B681B6A5F
:10075800019308BDC801060808B5024B1B681B6B4E
:10076800019308BDC801060808B5024B1B685B6BFE
:10077800019308BDC801060808B5024B1B68DB6B6E
:10078800019308BDCC01060808B5024B1B681B681D
:10079800019308BDA001060808B5024B1B685B68F9
:1007A800019308BDA001060808B5024B1B689B68A9
:1007B800019308BDA001060808B5024B1B68DB6A57
:1007C800019308BDA001060808B5024B1B681B6B06
:1007D800019308BDA0010608704710B50446102112
:1007E80000F073FD204610BD70B504460E46074B59
:1007F8000025036040F80C5FFFF790FE3046267135
:10080800FFF764FEA560204670BD00BFF4200A080B
:100818000079FFF763BE00004FF6FF72034B00201C
:10082800187058809A80FFF73BBF00BFD4030020A0
:1008380010B504460068FFF7AFFF204610BD10B59D
:100848000446006808B1FFF7A7FF00232360A360F0
:10085800636010BD38B504460D4600680131FFF7E6
:10086800A3FF10B184E82100012038BD10B503684A
:10087800044613B143688B4207D22046FFF7EAFFCC
:1008880020B1A3680BB922681370012010BD70B5A0
:100898000E46114604461546FFF7E8FF18B92046EC
:1008A800FFF7CDFF09E02A463146A560206801F030
:1008B800E8FA2268A3680021D154204670BD38B5F3
:1008C8000023044603604360836003730D4639B117
:1008D800084601F043FB294602462046FFF7D7FFAA
:1008E800204638BD70B504460E4609B9002070BDD3
:1008F8006AB18368D5182946FFF7B8FF0028F5D0F4
:100908002068A3683146184401F020FBA560012047
:1009180070BD07B500238DF80410012201A98DF8D8
:100928000530FFF7DFFF03B05DF804FBF8B50646B6
:100938000D468F180024BD420CD0336815F8011BF2
:100948009B6830469847002801DB0444F3E7002CF5
:1009580008BF04462046F8BD70B505460C46084653
:1009680049B101F0FBFA2B68024621462846BDE84A
:100978007040DB68184770BD03689B68184738B536
:100988000D210546FFF7F8FF0A2104462846FFF720
:10099800F3FF204438BD38B50546FFF7DDFF0446B0
:1009A8002846FFF7ECFF204438BD012A98BF0A22E9
:1009B80030B50B468BB000218DF824100DF12304BF
:1009C800B3FBF2F505FB1233DBB2092B94BF3033CE
:1009D8003733DBB2214604F801392B46002DEFD11D
:1009E800FFF7BAFF0BB030BD10B422B90368C9B223
:1009F8009B6810BC1847D2B210BCFFF7D6BFFFF7F0
:100A0800F3BF10B50446FFF781FDE0602368204678
:100A18005B699847002808DAFFF778FDE368C01A91
:100A2800A3689842F2D34FF0FF3010BD8160704741
:100A380038B50D4607490446FFF741FF2846FFF73A
:100A4800E0FF002804DBC1B22046FFF762FFF5E7AC
:100A5800204638BD12210A0800231A461946406864
:100A6800FFF75ABE014A024B1A607047B4210A08C0
:100A7800DC030020024B1A68024B1A60704700BF63
:100A880000030020E003002010B58368044613B17A
:100A9800032201469847204610BD10B50446FFF7CB
:100AA800F3FF204610BD0000034800238360034A7B
:100AB800034900F005BC00BFE403002070030020D8
:100AC800A30A0A0808B5144B33B100F06BF90368A0
:100AD8001B699847002816DC104B33B100F020FA48
:100AE80003681B699847002810DC0D4B0BB1AFF366
:100AF80000800C4B7BB100F091F903681B699847A3
:100B0800002806DC08BDAFF30080E5E7AFF30080FE
:100B1800EBE7AFF3008008BD000000000000000014
:100B2800000000000000000008B5FFF7CBFFFFF74A
:100B3800EDFC014B186008BD880800200248034AF4
:100B48000349121A01F09DB90040024004400240D6
:100B580068270A0807B5002300931A466FF0770143
:100B6800FFF7B0FD03B05DF804FB000007B543884C
:100B78000A2B08D0502B09D1094B1B683BB103B095
:100B88005DF804EB1847FFF7E5FF06E00023009344
:100B98001A466FF07701FFF795FD03B05DF804FB87
:100BA800F403002038B5104C104D2368AB42104BAD
:100BB8000CBF012200221A7002D0FFF7BFFF256088
:100BC800FFF794FC044601F099F90A4B13B120464B
:100BD800AFF3008000210748FFF7CEFDBDE838409D
:100BE80000210548FFF764BD004002401E1C279AFB
:100BF800F803002000000000750B0A08704710B5C4
:100C08000446182100F061FB204610BDF8B50F46D8
:100C180000F10806051D002416F8011D0A223846B1
:100C2800FFF7EDFEAE42044407D0002CF4D02E218D
:100C38003846FFF7A1FE0444EEE72046F8BD000061
:100C480010B50446044B112240F8043B002101F082
:100C58003EF9204610BD00BF10220A080346074A85
:100C680010B543F8042B01F1100251F8044B9142DE
:100C780043F8044BF9D10A781A7010BD10220A08FB
:100C8800024A4160026004220275704710220A0875
:100C980010B59DF8084044EA032343EA024242EAB9
:100CA800016104234160037510BD000037B5044D90
:100CB80005609DF818500095FFF7EAFF03B030BDB6
:100CC80010220A0841747047704708B50021007C5B
:100CD800FFF7C6FC30EA200028BF4FF0FF3008BD00
:100CE80008B50121007CFFF7BBFC30EA200028BFD3
:100CF8004FF0FF3008BD08B5007CFFF7A9FC20EADB
:100D0800E07008BD08B5007CFFF79AFC20EAE070A7
:100D180008BD007CFFF7B4BC10B50446142100F0F0
:100D2800D4FA204610BD38B50446007C0D46FFF7BE
:100D38008FFC002801DC607C28B12946207CFFF765
:100D480097FC20EAE07038BD10B5044600236360C4
:100D58004FF47A73A360054B08462360012321747E
:100D680063741146FFF75CFC204610BD24220A0874
:100D78000022007CFFF75CBC10B504461422002159
:100D880001F0A5F8054B20466360054BE36040F28F
:100D9800011323818123238210BD00BF8104002019
:100DA8000004002030B50E4D87B001A8FFF7E4FF1E
:100DB800296811F0010410D12846FFF76EF960B1D7
:100DC80001AA21460748FFF7BFFF2846FFF76AF93F
:100DD800054A0649034800F073FA024807B030BDD7
:100DE800FC0300208405002070030020D10C0A08B1
:100DF80010B504461422002101F069F8054B20467D
:100E08006360054BE36040F2011323818123238251
:100E180010BD00BF340600209C05002010B50E4C04
:100E280086B001A8FFF7E4FF2368DB0710D420464B
:100E3800FFF733F960B101AA01210848FFF784FFE1
:100E48002046FFF72FF9064A0649044800F038FA09
:100E5800024806B010BD00BF9805002020060020FB
:100E680070030020D10C0A0870474174704708B518
:100E7800007CFFF793FB20EAE07008BD08B5007C12
:100E8800FFF764FB20EAE07008BD08B5007CFFF7B7
:100E98006DFB30EA200028BF4FF0FF3008BD08B5D1
:100EA800007CFFF75BFB30EA200028BF4FF0FF30E3
:100EB80008BD007CFFF762BB10B50446142100F0A2
:100EC80004FA204610BD70B5457C04460E4625B987
:100ED800007CFFF763FB002805DD3146207CBDE878
:100EE8007040FFF72BBB284670BD000010B50446C4
:100EF80008461146002262604FF47A72A260054AE1
:100F080020742260012262741A46FFF70FFB204604
:100F180010BD00BF54220A08007CFFF737BB000051
:100F280038B50C4D296811F0010411D12846FFF796
:100F3800B4F868B1084A2146084B0948FFF7D6FFBC
:100F48002846FFF7AFF8074A0749054800F0B8F9FF
:100F5800034838BDD0070020D40700204C070020E4
:100F68003807002070030020710E0A087047F8B592
:100F7800064615460C468F18BC4206D0336814F84E
:100F8800011B9B6830469847F6E72846F8BD0022C3
:100F9800007CFFF70BBB0021007CFFF70FBB002193
:100FA800007CFFF713BB0021007CFFF717BB002173
:100FB800007CFFF71BBB10B50446142100F085F92F
:100FC800204610BD10B5044608464FF47A73A36056
:100FD800044B0021207461602360FFF717FB204653
:100FE80010BD00BF84220A080021007CFFF706BB61
:100FF800002211464068FFF787BBF0B5164689B056
:1010080011220F460446002103A800F060FF304675
:1010180000F0A4FF0025009581B27B6803AA304642
:10102800FFF736FB20B129462046FFF729FE03E0EB
:1010380003A92046FFF712FE204609B0F0BD0022A2
:1010480011464068FFF780BB002211464068FFF751
:101058008BBB00224068FFF77FBB002281F00101B3
:101068004068FFF769BB00231A4619464068FFF736
:101078005BBB002211464068FFF736BB0022022105
:101088004068FFF739BB00231A464068FFF724BBC6
:10109800024B04225A60024A1A607047580800201E
:1010A800AC220A0800231A464068FFF715BB002245
:1010B80002214068FFF720BB002211464068FFF775
:1010C80013BB002211464068FFF71EBB00231A46D7
:1010D80019464068FFF720BB00231A4619464068A6
:1010E800FFF722BB002281F001014068FFF724BB13
:1010F80000224068FFF730BB002211464068FFF726
:1011080033BB002211464068FFF71EBB70B5164678
:101118008EB0044608A8FFF793FD1122002103A80A
:1011280000F0D5FE304600F019FF00250A4B009567
:1011380081B25B6803AA3046FFF7AAFA20B12946B4
:101148002046FFF79DFD03E003A92046FFF786FD33
:1011580020460EB070BD00BF58080020024B034A5D
:101168001A6000225A60704760080020E0220A08CE
:1011780010B504460F48FFF74BFB28B1A4F10D0347
:10118800022B01D8002010BD00F07AF8FFF72CFFE1
:1011980008B1012CF6D9FFF7C3FEFFF7BDFE18B161
:1011A800A4F11203012BEDD9172C8CBF00200120CC
:1011B80010BD00BF68080020172838B504460D4642
:1011C8000AD8FF2908D0FFF7D3FF28B129462046BF
:1011D800BDE83840FFF762B938BD38B504460D465A
:1011E800FFF764F9FF2810D0062804D84D2323FA06
:1011F80000F0C30709D42046FFF7BAFF28B12946F3
:101208002046BDE83840FFF759B938BD70B50C4CD9
:101218000C4E0D4D00212046FFF7E6FA20460B4CF8
:101228003246294600F04CF801212046FFF7DCFA47
:10123800324629462046BDE8704000F041B800BF5C
:101248006808002070030020E1070A0878080020D9
:1012580013B5084C00231A46194600932046FFF799
:1012680025FD2046044A054902B0BDE8104000F0BB
:1012780027B800BF8C08002070030020050C0A085E
:1012880038B50B4D296811F001040FD12846FEF737
:1012980004FF58B121460748FFF794FE2846FEF799
:1012A80001FF054A0549034800F00AF8014838BD1E
:1012B800A4080020A808002070030020750F0A0861
:1012C8000B460146184600F0BFBDFEF7E4BE08B560
:1012D800FFF772FA08B5FFF76FFA0FB480B582B05E
:1012E80000AF07F1100454F8045B284600F036FEFE
:1012F80000F20E2323F00703ADEB030D00F5007198
:1013080023462A4668467C6000F028FAFFF754FA1C
:101318000AB100F0A7BD104670470AB100F0B1BD90
:101328007047000008B50B68B3F1004F02D30A48B4
:10133800FFF7D0FF934209D95200934206D2B2F187
:10134800004F2ABF6FF000430A600B600868BDE8D1
:1013580008400130FEF79DBE0C230A08034653F8E7
:10136800080B984201D0FEF796BE7047436810B547
:101378009942144604D90A4602482146FFF7ADFFB0
:10138800084610BD24230A0810B544686FF00040D1
:10139800001B0144914202D21846FFF79BFF10BD83
:1013A80002688A4206D84368D018814294BF002058
:1013B8000120704701207047012A10B502D10A7830
:1013C800027010BDFFF7A9FF10BD012A30B402D189
:1013D8000B78037003E012B130BC00F05DBD30BC87
:1013E800704708B5521AFFF7E7FF08BD2DE9F34724
:1013F8000A9D994643681746C1EB03082B449B1A7C
:10140800C2EB08080268019300F108039A420E46ED
:1014180014BF82680F2201A90446FFF783FF8246A2
:101428001EB132462168FFF7C7FFB9F1000F06D099
:101438002DB12A4649460AEB0600FFF7BDFFB8F171
:10144800000F07D021683744701942463944504488
:10145800FFF7B2FF2046FFF781FF019BC4F800A009
:10146800A36002B0BDE8F08710B50446FFF776FF29
:10147800204610BD2DE9F347164681460A9C0F46C3
:1014880098463146374B2246FFF77EFF4B4653F8C6
:10149800085BD9F804109D4204EB010A18BFD9F87B
:1014A8000830C6EB0A0A08BF0F23534530D3C91BBF
:1014B8003D4448468F1B4146FFF772FF58B137B18C
:1014C800A64204D03A46A9192819FFF77EFFECB3C3
:1014D800224641460DE0B4B3A64221D322464146F6
:1014E8002846FFF772FF2EE0984504D32246A11B39
:1014F8004144284609E0C8EB0306324641462846DF
:10150800FFF763FFA21B2919A819FFF755FF1DE074
:1015180000944346324639464846FFF767FF15E0D0
:1015280037B13A46A9192819FFF74FFFA6420DD23D
:10153800AB1908EB04029342D6D32246414628460B
:10154800FFF743FF02E00FB1A642EAD14846D9F8B7
:1015580000300022C9F804A003F80A2002B0BDE850
:10156800F08700BFFB230A0837B5044608460D4636
:1015780000F0F4FC2B460090626800212046FFF73B
:1015880079FF03B030BD08B5FFF7EEFF08BD2DE9C0
:10159800F84314468846426833B9A2422CBF204615
:1015A8004FF0FF30BDE8F883934216D80668D71A83
:1015B80026445D1E01F10109A7420ED316F8013B2E
:1015C80098F800209A420CD12A4649463046FFF73F
:1015D8009FFE30B92046BDE8F8834FF0FF30BDE8E4
:1015E800F8830134E8E708B50AC9FFF7D0FF08BD5A
:1015F800F8B54568064608460F4600F0AFFC854238
:1016080004462A46394628BF02463068FFF780FE5E
:1016180000B9281BF8BD000073B5044616460D46F0
:1016280001B9BAB9731B0F2B019307D9002201A97D
:101638002046FFF777FE019B2060A36032462946CB
:101648002068FFF7CEFE019B226800216360D15419
:1016580002B070BD0148FFF73AFE00BF67240A08D0
:10166800F8B50D4616461F4600F108030446036008
:101678003146094A2846FFF779FE29686A68014415
:10168800921B20464FF00003BA4294BF8A18CA1929
:10169800FFF7C2FF2046F8BD91240A0870B50D4631
:1016A800044611462846064A1E46FFF75FFE3346A3
:1016B800024629462046FFF7D3FF204670BD00BFEB
:1016C800AC240A08804680B59CB000AF0E1A6C2284
:1016D8000E49381D00F0D5FB06F17A0323F0070305
:1016E800ADEB030D6B22391D684600F0CAFB751C73
:1016F800324641460DF16B0000F0C3FB6D440023F8
:1017080085F86A306846FFF7E2FD00BFD0240A0872
:101718002DE9F04184B0012304AF88B0029302237D
:1017280001930D4B06461B680AA8009300238846C0
:1017380000F0FAF8404504AD044607D8C0F1180196
:1017480002462944304600F09CFB01E04FF0FF348C
:101758002046BD46BDE8F081040300202DE9F04194
:10176800064615460446013947182A78A2B3BC42F2
:101778002ED2252A23D16A78732A05D07A2A0ED048
:10178800252A1CD101351AE0191D1B68013B13F8E5
:10179800012FD2B1BC421BD004F8012BF7E7AA787D
:1017A800752A0CD11A68391B204603F10408FFF783
:1017B800AFFF00280CDD044403354346D5E72A78FB
:1017C800013404F8012C0135CFE702350B46CCE78C
:1017D80021463046FFF776FF2270A01BBDE8F08156
:1017E800184B1A68D1075CBF01221A60164B1A6899
:1017F800D2075CBF01221A60144B1A68D0075CBF7D
:1018080001221A60124B1A68D1075CBF01221A60C4
:10181800104B1A68D2075CBF01221A600E4B1A6877
:10182800D0075CBF01221A600C4B1A68D1075CBF55
:1018380001221A600A4B1A68D2075CBF01221A609B
:10184800704700BFD8080020D4080020D008002026
:10185800CC080020C8080020C4080020C0080020C8
:10186800BC080020244B1A68D0075CBF01221A600C
:10187800224B1A68D1075CBF01221A60204B1A68F4
:10188800D2075CBF01221A601E4B1A68D0075CBFE2
:1018980001221A601C4B1A68D1075CBF01221A602A
:1018A8001A4B1A68D2075CBF01221A60184B1A68D3
:1018B800D0075CBF01221A60164B1A68D1075CBFBB
:1018C80001221A60144B1A68D2075CBF01221A6001
:1018D800124B1A68D0075CBF01221A60104B1A68B5
:1018E800D1075CBF01221A600E4B1A68D2075CBF91
:1018F80001221A60704700BF08090020040900206F
:1019080000090020FC080020F8080020F408002046
:10191800F0080020EC080020E8080020E408002077
:10192800E0080020DC0800202DE9F04114469DF86D
:1019380020201D460746DDF81880079BB2B10646F1
:10194800204629460A22002300F0E2F8424413798F
:10195800204606F8013D294600230A2200F0D8F85F
:1019680004460D4654EA0503EAD129E003F04A0289
:10197800402A10D1064604F0070343441B79EA08BD
:1019880006F8013DE30843EA45731C46154654EA48
:101998000503F0D114E0064613F4804F14BF142257
:1019A8000422424404F00F03D35C290906F8013DE0
:1019B800230943EA05731C460D4654EA0503F1D191
:1019C800B81BBDE8F0810000244B1A68D0075CBF43
:1019D80001221A60224B1A68D1075CBF01221A60E3
:1019E800204B1A68D2075CBF01221A601E4B1A6886
:1019F800D0075CBF01221A601C4B1A68D1075CBF74
:101A080001221A601A4B1A68D2075CBF01221A60B9
:101A1800184B1A68D0075CBF01221A60164B1A6867
:101A2800D1075CBF01221A60144B1A68D2075CBF49
:101A380001221A60124B1A68D0075CBF01221A6093
:101A4800104B1A68D1075CBF01221A600E4B1A6846
:101A5800D2075CBF01221A60704700BF3809002016
:101A680034090020300900202C0900202809002012
:101A780024090020200900201C0900201809002042
:101A880014090020100900200C090020184B1A68BE
:101A9800D1075CBF01221A60164B1A68D2075CBFD7
:101AA80001221A60144B1A68D0075CBF01221A6021
:101AB800124B1A68D1075CBF01221A60104B1A68D2
:101AC800D2075CBF01221A600E4B1A68D0075CBFB0
:101AD80001221A600C4B1A68D1075CBF01221A60F8
:101AE8000A4B1A68D2075CBF01221A60704700BF10
:101AF8005809002054090020500900204C090020F2
:101B08004809002044090020400900203C09002021
:101B180053B94AB9002908BF00281CBF4FF0FF314C
:101B28004FF0FF3000F082B9ADF1080C6DE904CE3A
:101B380000F006F8DDF804E0DDE9022304B07047A0
:101B48002DE9F04F8C460C460546099E002B4FD1D7
:101B58008A4217466BD9B2FA82FEBEF1000F0BD04B
:101B6800CEF1200520FA05F501FA0EF345EA030C3B
:101B780002FA0EF700FA0EF5390CBCFBF1F0BAB216
:101B880001FB10C300FB02F84FEA154C4CEA034472
:101B9800A04509D9E41900F1FF3380F02881A04558
:101BA80040F2258102383C44C8EB0404B4FBF1F34D
:101BB80001FB134C03FB02F2ACB244EA0C418A422B
:101BC80009D9C91903F1FF3480F00F818A4240F224
:101BD8000C81023B39448A1A43EA00400021002E56
:101BE80063D022FA0EF2002386E80C00BDE8F08FDD
:101BF8008B4207D9002E56D0002186E811000846EE
:101C0800BDE8F08FB3FA83F1002940F09380A34236
:101C180002D3824200F2FE80851A64EB03039C46DD
:101C28000120002E41D086E82010BDE8F08F12B9BF
:101C38000127B7FBF2F7B7FA87FEBEF1000F36D1DE
:101C4800E41B4FEA17481FFA87F90121B4FBF8F3A0
:101C580008FB134409FB03F24FEA154C4CEA044411
:101C6800A24207D9E41903F1FF3002D2A24200F2DE
:101C7800D3800346A41AB4FBF8F008FB104809FB0C
:101C880000F9ACB244EA0842914507D9D21900F1EB
:101C9800FF3402D2914500F2BA802046C9EB020215
:101CA80040EA03409BE731463046BDE8F08F07FA2B
:101CB8000EF7CEF1200C24FA0CF34FEA1748B3FBC9
:101CC800F8FA1FFA87F908FB1A3520FA0CFC04FA0F
:101CD8000EF40AFB09FB4CEA040C4FEA1C4242EAE8
:101CE80005439B4500FA0EF50AD9DB190AF1FF32C4
:101CF80080F08B809B4540F28880AAF1020A3B4421
:101D0800CBEB0303B3FBF8F008FB103300FB09F43B
:101D18001FFA8CFC4CEA03439C4207D9DB1900F1FB
:101D2800FF326ED29C426CD902383B441C1B40EAFD
:101D38000A418BE7C1F1200E8B4022FA0EFC4CEAD7
:101D4800030C24FA0EF74FEA1C49B7FBF9FA1FFAFD
:101D58008CF309FB1A7720FA0EF88C400AFB03F57E
:101D680048EA04044FEA144848EA0747BD4202FA21
:101D780001F200FA01FB09D917EB0C070AF1FF3051
:101D880041D2BD423FD9AAF1020A67447F1BB7FB83
:101D9800F9F509FB157705FB03F3A4B244EA0747F5
:101DA800BB4208D917EB0C0705F1FF3027D2BB421D
:101DB80025D9023D674445EA0A40A0FB0289FF1A7B
:101DC8004F4545464C4614D329D066B3BBEB0503B3
:101DD80067EB040707FA0EFECB40CF404EEA030339
:101DE80086E888000021BDE8F08F2346F3E6184610
:101DF800DAE6B8EB020569EB0C040138E5E70546BD
:101E0800D9E7104692E78246C0E7924678E702385B
:101E18003A4443E7084604E7023B3C442AE7C34503
:101E2800E7D33C46D1E73146BDE8F08F704700BFA5
:101E38000A22002100F020B9024B0A460146186820
:101E480000F04DB86C03002010B5054C13462CB1BA
:101E58000A4601460220AFF3008010BD204610BD9F
:101E68000000000010B501390244904207D010F874
:101E7800013B11F8014FA342F7D0181B10BD0020F9
:101E880010BD10B5431E0A44914204D011F8014B0D
:101E980003F8014FF8E710BD884210B501EB0203C3
:101EA80001D8421E0BE09842FBD28118D21AD342C5
:101EB80004D013F8014D01F8014DF8E710BD99421F
:101EC80004D011F8014B02F8014FF8E710BD0346A2
:101ED8000244934202D003F8011BFAE7704738B571
:101EE80002FB01F42146FEF76FFC054618B12246B5
:101EF8000021FFF7ECFF284638BD000038B5124B2B
:101F080005461C68A36BD3B91820FEF73DFC43F2C5
:101F18000E33A06303804AF6CD33438041F2342365
:101F280083804EF26D63C3804DF6EC630381052315
:101F380043810B23838101220023C0E90423A36B7F
:101F480000221D615A6138BD6C030020034611F858
:101F5800012B03F8012B002AF9D17047034613F827
:101F6800012B002AFBD1181A013870472DE9F047D8
:101F78000F4680463F48D0F800903D4615F8014B83
:101F880009EB0400407800F0080000F0FF0608B1F3
:101F98002F46F2E72D2C03D1BD1C7C78012603E0E7
:101FA8002B2C04BF7C78BD1C13B1102B0AD15BE02D
:101FB800302C57D1287800F0DF0058284DD16C78A4
:101FC80010230235002E14BF4FF0004C6FF0004C68
:101FD800BCFBF3FA0027384603FB1ACC09EB040EC6
:101FE8009EF801E01EF0040F01D0303C0BE01EF01B
:101FF800030E1BD0BEF1010F0CBF4FF0370E4FF090
:10200800570ECEEB0404A34210DDB7F1FF3F0AD010
:10201800504506D801D1644503DC03FB0040012785
:1020280001E04FF0FF3715F8014BD7E77B1C0CD1C7
:10203800002E4FF0220314BF4FF000406FF0004015
:10204800C8F800302AB9BDE8F08706B1404272B13D
:1020580007B1691E1160BDE8F0873024002BB1D1AB
:102068000823AFE70A23ADE7302CA3D0AAE7BDE8E1
:10207800F08700BF0803002013460A4601460248BD
:102088000068FFF773BF00BF6C0300201D000A083B
:102098005D000A0889000A088D000A08000000008F
:1020A8003D0062004572726F72652C20636F6D612E
:1020B8006E646920646973706F6E6962696C693AED
:1020C80020007220524F53534F2C206220424C550F
:1020D8002C20672056455244452C206F20535045EC
:1020E800474E49000000000000000000E1070A0810
:1020F800E3070A0866006C6E00666E00636F64652D
:102108000064657461696C000D0A00253031307512
:1021180020005D20002564002C200028293A20009A
:10212800205B00636F6465203D20002569006465BD
:102138007461696C73203D200062617564005365A9
:102148007269616C0055534253657269616C310064
:102158007479706500706172616D00636D64006808
:102168006E64007374726D0066696C74006C766CD2
:102178000061646448616E646C65720072656D6FBD
:10218800766548616E646C657200656E756D486150
:102198006E646C657273004A534F4E537472656176
:1021A8006D4C6F6748616E646C6572006170700099
:1021B8006E6F6E6500747261636500696E666F00AC
:1021C8007761726E006572726F720070616E69631A
:1021D80000616C6C005A00252B3033643A2530328C
:1021E800750025592D256D2D25645425483A254D12
:1021F8003A2553257A0061736374696D65000000A0
:102208000000000000000000150C0A08050C0A0870
:10221800070C0A080000000000000000D10C0A08A2
:10222800210D0A082F0D0A0835090A080D0D0A089C
:10223800D30C0A08E90C0A081B0D0A08FF0C0A0847
:10224800CD0C0A080000000000000000710E0A080A
:10225800C10E0A08CF0E0A0835090A08850E0A08B1
:10226800A70E0A08930E0A08BB0E0A08730E0A087E
:10227800770E0A080000000000000000750F0A0829
:10228800BF0F0A08970F0A08770F0A089F0F0A0856
:10229800A70F0A08AF0F0A08B70F0A0800000000C6
:1022A800000000008F100A0885100A087B100A0831
:1022B800F90F0A08610A0A086F100A0863100A0869
:1022C8005B100A0851100A0847100A0803100A0888
:1022D8000000000000000000AD100A08B7100A084E
:1022E800C1100A08CB100A08D5100A08E1100A081C
:1022F800ED100A08F9100A0801110A080B110A085A
:1023080015110A0862617369635F737472696E6795
:102318003A3A5F4D5F6372656174650025733A20D0
:102328005F5F706F7320287768696368206973201E
:10233800257A7529203E20746869732D3E73697A61
:102348006528292028776869636820697320257AB9
:1023580075290062617369635F737472696E673AA5
:102368003A61743A205F5F6E202877686963682055
:10237800697320257A7529203E3D20746869732D7C
:102388003E73697A65282920287768696368206917
:102398007320257A75290062617369635F737472AB
:1023A800696E673A3A657261736500626173696361
:1023B8005F737472696E673A3A5F4D5F7265706CED
:1023C8006163655F6175780062617369635F7374E7
:1023D80072696E673A3A696E736572740062617306
:1023E80069635F737472696E673A3A7265706C619B
:1023F80063650062617369635F737472696E673ADB
:102408003A5F4D5F7265706C616365006261736904
:10241800635F737472696E673A3A61737369676E62
:102428000062617369635F737472696E673A3A61D7
:102438007070656E640062617369635F737472695A
:102448006E673A3A636F70790062617369635F73AC
:102458007472696E673A3A636F6D70617265006293
:10246800617369635F737472696E673A3A5F4D5F4F
:10247800636F6E737472756374206E756C6C206E06
:102488006F742076616C69640062617369635F735D
:102498007472696E673A3A62617369635F737472E2
:1024A800696E670062617369635F737472696E67EE
:1024B8003A3A73756273747200737472696E673A2C
:1024C8003A737472696E67006E6F7420656E6F750B
:1024D800676820737061636520666F7220666F722B
:1024E8006D617420657870616E73696F6E20285015
:1024F8006C65617365207375626D69742066756CAF
:102508006C20627567207265706F72742061742028
:10251800687474703A2F2F6763632E676E752E6F19
:1025280072672F627567732E68746D6C293A0A207A
:10253800202020002D2B785830313233343536376F
:102548003839616263646566303132333435363721
:102558003839414243444546002D2B7858303132B2
:1025680033343536373839616263646566414243CE
:10257800444546002D30313233343536373839004A
:10258800474D540048535400414B53540050535442
:10259800004D535400435354004553540041535481
:1025A800004E535400434554004953540045455484
:1025B800004A5354000020202020202020202028DA
:1025C80028282828202020202020202020202020E3
:1025D800202020202020881010101010101010101B
:1025E800101010101010040404040404040404045B
:1025F80010101010101010414141414141010101DA
:1026080001010101010101010101010101010101B2
:1026180001101010101010424242424242020202BF
:102628000202020202020202020202020202020282
:102638000210101010200000000000000000000030
:102648000000000000000000000000000000000082
:102658000000000000000000000000000000000072
:102668000000000000000000000000000000000062
:102678000000000000000000000000000000000052
:102688000000000000000000000000000000000042
:102698000000000000000000000000000000000032
:1026A8000000000000000000000000000000000022
:1026B8000000000000000000000000000000000012
:1026C8000000000000000000000000000000000002
:1026D80000000000000000000000000000000000F2
:1026E80000000000000000000000000000000000E2
:1026F80000000000000000000000000000000000D2
:1027080000000000000000000000000000000000C1
:102718000000000000000000430000004D020A080D
:102728008F040A0821080A086D0A0A087D0A0A089F
:10273800B10A0A0899100A0865110A0815120A0848
:1027480059120A08E9170A086D180A08D1190A085F
:08275800951A0A0800000000B8
:08276000E8F3FF7F0100000017
:04276800000000006D
:10276C00FE210A083C250A08BD250A0800000000C5
:10277C00C0260A08E0260A0800270A080000000004
:10278C0000000000000000000000000020270A08E4
:10279C00000000000000000000000000000000002D
:1027AC00000000000000000000000000000000001D
:1027BC00000000000000000000000000000000000D
:1027CC000000000000000000000000000C030020CE
:1027DC00FFFFFFFF00000102030405060708090ABA
:1027EC000B0C0D0E0F101112131415161718191AB5
:0827FC001B1C1D1E1F202800FC
:0428040078563412BC
:04000005080A0018CD
:00000001FF
