:02000004080AE8
:1000000000000A08084C0A08000006000600050166
:080010000402BD040000000021
:1000180080430A0809480A4908B5884205D0094AB0
:10002800824202D0121A04F086F80748074A0021D3
:10003800121A04F0A6F8064808BD00BF0003002005
:100048006C4B0A087403002078030020000A002083
:10005800000A002070B501F09FFC074B074C1E46B4
:10006800E41AA4080025A54204D056F8253098477C
:100078000135F8E770BD00BF0C4B0A08584B0A0859
:1000880000F0C8B908B500F06FF8BDE8084001F005
:1000980045BC01F07DB901F083B90078B0FA80F071
:1000A80040097047012303707047000070B5294D5F
:1000B800016892B0284602F054FC6B68002B45D0CA
:1000C800254A02A8511E009002F079FB009B0026E9
:1000D8000124019432465E706946284602F071FC9C
:1000E80029460346324606A802F0C6FC324669464F
:1000F800284602F066FC294602194FF0FF330CA887
:1001080002F0BAFC0C9803F0EDFF144D1449286076
:1001180006A802F05BFC68B92A68124B0CA81A60A2
:1001280002F00AFB06A802F007FB684602F004FB8F
:1001380020460CE00CA802F0FFFA06A802F0FCFA30
:10014800684602F0F9FA4FF0FF3000E0012012B0E3
:1001580070BD00BF1C04002095430A08400400201D
:1001680096430A08000300202DE9F04F9BB000F0E9
:1001780081FF8C4D2B68C01A41F28733984240F2B8
:10018800E380894800F08CFA03F014F8874F884E12
:10019800C7E90001844800F09FFA03F00BF8C6E9AC
:1001A8000001844800F018FF03F004F8824CDFF8DF
:1001B80050A2C4E900017F4800F002FF02F0FAFFF4
:1001C80080468946D7E900017C4B0022C3E90089B3
:1001D8007B4B03F043F803F0DBFA02F0D9FF00226F
:1001E800774B03F065F90022754BCAE90001D6E99F
:1001F800000103F033F803F0CBFA02F0C9FF002244
:100208006F4B03F055F9DFF8FCB100226C4BCBE9DA
:100218000001D4E9000103F021F803F0B9FA02F073
:10022800B7FF0022664B03F043F9664E0022644B89
:10023800C6E900014046494603F010F803F0A8FA61
:1002480002F0A6FF00225E4B03F032F95E4FDFF8A2
:10025800B881C7E900015D4800F0CAFB02F0AAFFB7
:100268005B4B0022C3E90001554B02F0F7FF03F096
:100278008FFA02F08DFF0022514B03F019F9062482
:10028800C8E90001534906A801F0B9F9DBE90023E0
:10029800009402A801F0F1F902A906A801F01AFADF
:1002A8004D4901F023FADAE90023814600940AA8AF
:1002B80001F0E3F90AA9484601F00CFA474901F0B0
:1002C80015FA81460094D8E900230EA801F0D5F963
:1002D8000EA9484601F0FEF9414901F007FA8046A7
:1002E8000094D7E9002312A801F0C7F912A94046E3
:1002F80001F0F0F93B4901F0F9F907460094D6E915
:10030800002316A801F0B9F916A9384601F0E2F958
:10031800354901F0EBF90146344801F083F916A894
:1003280001F026F912A801F023F90EA801F020F92E
:100338000AA801F01DF902A801F01AF906A801F0AF
:1003480017F900F097FE286000F094FE284A136819
:100358001546C01A274B1B6898421FD3234B2649C2
:100368001A68264B16A81B788DF800303C2301F03C
:1003780091FC179C7CB16368013B63605BB923689F
:1003880020469B689847A368013BA3601BB9236874
:100398002046DB68984700F06DFE28601BB0BDE87A
:1003A800F08F00BF70040020E403002068040020E0
:1003B8001004002050040020A0030020380400206E
:1003C800000059406004002090030020A80300208A
:1003D800080400209E430A08B5430A08C8430A08CF
:1003E800D8430A08F2430A0808440A08E803002028
:1003F80074040020000300205B440A08180400204D
:1004080098030020880300204804002000230922C4
:1004180000F09EBF08B501F077FE4FF4165101F0C9
:1004280059FE284800F06EFA02F016F901462648EF
:1004380000F0C4F8642001F00FFA234800F08CF9AA
:1004480022492348FFF7E2FF22492348FFF7DEFF4E
:1004580022492348FFF7DAFF22492348FFF7D6FF4E
:1004680022492348FFF7D2FF224A2349234801F0B3
:1004780006FB4421224800F024FD02F0EDF8014675
:10048800204800F0D4FA28B901F03EFE1E4901F0D8
:1004980078F9FEE700211B4800F066FA03211948A5
:1004A80000F059FA42F21071164800F0A9FB44F620
:1004B8002061144800F0A8FBBDE80840012111485C
:1004C80000F043BA7C030020E403002098030020D6
:1004D8000A440A088803002019440A086004002016
:1004E8002B440A089003002038440A0848040020D6
:1004F80048440A0854440A08B5000A085B1A0A085E
:1005080050040020A803002063440A08F8B51D4BD6
:1005180001241D4D1C7000F06DFD23461B4C032269
:100528000221284600F03AF922461949284602F0E5
:10053800B3F8184800F003FA174800F08BFC174886
:10054800174F00F10803174D03600023436003723F
:100558002246154902F0A0F8144E3946284601F003
:100568004EF82846124D2246314602F095F8394693
:10057800284601F044F8224631462846BDE8F840AE
:1005880002F08AB8180400207C03002078030020B9
:10059800BF070A08A8030020500400201C040020FC
:1005A800DE440A08E80300204D280A0879150A08DD
:1005B800F80300200368C9B29B6818470160084621
:1005C80001F0D8BE10B504464021006801F0EDFEE8
:1005D800E7212068FFF7EEFF206801F0EDFE012219
:1005E8004021206801F0D8FE206803685B699847BD
:1005F800C0B210BD42EA01220749172322FA03F0CC
:10060800C00703F1FF3348BF4A40072B4FEA5101A7
:10061800F4D1D0B2704700BF0080980070B506468C
:100628000C460068402101F0C0FE3068214603688E
:100638000A249B689847306801F0BEFE0A2001F042
:100648000BF9013C03224021306801F0A5FE14F0AB
:10065800FF0402D00328F1D102E040F2E63070BD79
:10066800306803685B699847054630682D0203685F
:1006780005F47F455B69984704463068E4B203682F
:100688002C435B6998472146C2B23046FFF7B2FF58
:1006980018B924F0030080B270BD40F2E73070BD95
:1006A80008B5F521FFF7BAFFA0F2E6339BB2012B9C
:1006B80002D803F0BBF908BD02F06AFD0022044B22
:1006C80002F0CCFD03F0ACF8024903F0FDF808BDD8
:1006D80000405F3F0000C04008B5F321FFF79EFFD0
:1006E800A0F2E6339BB2012B02D803F09FF908BDB4
:1006F80002F04EFD08A3D3E9002302F0AFFD03F09A
:100708008FF802F057FD06A3D3E9002302F0F2FBAD
:1007180003F086F808BD00BFD7A3703D0AF7653F10
:10072800CDCCCCCCCC6C474038B50D46144601F046
:10073800EBFC294601F012F81CB101F0E5FC044974
:1007480002E001F0E1FC0349BDE8384001F019B8C6
:1007580077440A087B440A0838B50446FFF732FF95
:10076800054600F0400209492046FFF7DDFF05F085
:10077800040220460649FFF7D7FF05F0020220468B
:10078800BDE838400349FFF7CFBF00BF7E440A08E1
:100798008F440A08A0440A0800F02CBC10B504468F
:1007A800017042708370012103EB430003F09EFC4B
:1007B8006060204610BD10B50446406800F0F0FDAA
:1007C800204610BD10B504460021007801F0F1FE66
:1007D800142000F047FC2078012101F0EAFEBDE872
:1007E8001040142000F03EBC70B506460D460824A3
:1007F80015F0800F14BF01210021707801F0D9FE97
:10080800013C3046FFF7DEFF6D0014F0FF04EDB247
:10081800EED170BDF8B516460D4604461F4613F0D6
:10082800800F14BFC021E0215A0658BF41F01001C3
:10083800330658BF41F00801700658BF41F0040163
:100848002A0658BF41F002016B0658BF41F001016A
:100858002046FFF7C9FF39462046FFF7C5FF314656
:100868002046FFF7C1FF29462046BDE8F840FFF7BC
:10087800BBBF2DE9F04704460E4600219046994635
:100888009DF820A0FFF7B0FF00212046FFF7ACFF3E
:1008980000212046FFF7A8FF00212046FFF7A4FF0C
:1008A800002506EB4607A278EBB29A4218D9B34264
:1008B8000AD1626802F8078062683A4482F80190B7
:1008C80062683A4482F802A0606803EB4301421868
:1008D8009378415C52782046FFF79CFF0135E2E7A8
:1008E80020460021FFF780FF20460021FFF77CFF0C
:1008F80020460021FFF778FF2046BDE8F047002199
:10090800FFF772BF73B504460121007801F040FE7D
:1009180000250121607801F03BFE2E46A378E9B25C
:100928008B4205F1010506D9002300961A46204698
:10093800FFF79FFFF2E702B070BD00F05BBB7047A6
:1009480081F00101C06900F0DDB9006A00F0DAB990
:10095800406A00F0D7B9806A00F0D4B908B5806A57
:1009680000F0C1F9C0B208BDC06A00F0CBB908B543
:10097800C06A00F0B8F9C0B208BD38B505460C46E3
:10098800FFF7F5FF022809D0032804D001280BD16E
:100998004FF07C5104E04FF0814101E04FF082417B
:1009A800204603F09BF804462846FFF7D7FF013896
:1009B8000B281BD8DFE800F00E11141A1A1A1A09AE
:1009C8001A1A1A064FF081410CE02146204602F01F
:1009D8007DFF0AE04FF07C5104E04FF07A5101E0CE
:1009E8004FF07851204603F079F80446204638BD88
:1009F80010B50446406800F055F903F017F80146B1
:100A08002046FFF7BAFF02F0D5FB05A3D3E9002380
:100A180002F024FC02F004FF10BD00BFAFF3008019
:100A280092CB7F48BF7DAD3F006B00F06BB973B5CB
:100A380004460C200E46FFF72CFB054618B132463B
:100A4800102100F07BF9A563284600F08EF90546D1
:100A5800002800F0D2801020FFF71BFB064638B1B3
:100A6800012300228DE80C00A16B022300F0D2F8CC
:100A780026601020FFF70DFB064638B1002301223F
:100A8800009301920223A16B00F0C4F8E6601020E5
:100A9800FFF7FFFA064640B1002201238DE80C005B
:100AA80002231A46A16B00F0B5F826611020FFF763
:100AB800F0FA064648B100234FF0010C8DE8081003
:100AC80003220223A16B00F0A5F866611020FFF74E
:100AD800E0FA064648B100234FF0010E8DE80840C1
:100AE80004220223A16B00F095F866601020FFF73E
:100AF800D0FA064640B1002101238DE80A000522FC
:100B08000223A16B00F086F8A6601020FFF7C1FA57
:100B1800064640B1002201238DE80C00A16B022398
:100B2800062200F077F8A6610820FFF7B2FA064619
:100B380020B100230122216800F0D0F8E6610820E6
:100B4800FFF7A7FA064620B101231A46216800F0EC
:100B5800C5F826620820FFF79CFA064620B1042350
:100B68000222216800F0BAF866620820FFF791FABD
:100B7800064620B106230422216800F0AFF8A662D9
:100B88000820FFF786FA064620B10B2302222168C7
:100B980000F0A4F8E6620820FFF77BFA064620B1C9
:100BA80000230122616900F099F826630820FFF705
:100BB80070FA064620B101230222616900F08EF81E
:100BC800002120466663FFF7BBFE00212046FFF7A1
:100BD800BCFE00212046FFF7BBFE00212046FFF7A0
:100BE800C3FE00212046FFF7B6FE00212046FFF78E
:100BF8001BFF01212046FFF7A3FE284602B070BD67
:100C08000022006900F023B80022C06800F01FB875
:100C180000F0F0B910B5016082809DF80C109DF8C5
:100C28000820C1710272837110BD1FB583888DF8C9
:100C38000C301B128DF80D30C379019303AB009370
:100C48000068012300F09DF805B05DF804FB70B45E
:100C580002B98279042A12D800F1090425468318BA
:100C6800984208D0067A0EB9217000E01972090A74
:100C78000134013BF4E7294670BCFFF7D6BF0020DA
:100C880070BC704713B50446838804F8093F0023F5
:100C98008DE80C000B4601222146006800F0C1F8DF
:100CA80002B010BD38B500F1090482792146054625
:100CB800FFF7E8FF78B12146AB7900202B44AB421F
:100CC8000BD02A7A00020AB91A7A00E00A7810438F
:100CD800013B0131F3E74FF0FF3038BD10B501603B
:100CE8000271437110BD10B504460068FFF7DAFFC2
:100CF80023790122013302FA03F36279013BD040E0
:100D0800184010BD38B5054600680C46FFF7CAFF05
:100D18002B790122013302FA03F36A79013B03FAC2
:100D280002F120EA0101234028689340194382799F
:100D3800BDE83840FFF78BBF00F05CB94260002285
:100D480001700272704710B5037A044613B900F0B7
:100D58000CF848B12178606801F023FB606801F065
:100D68002BFBB0FA80F0400910BD10B5044640686E
:100D780001F000FB012323722046BDE81040FFF775
:100D8800E2BF2DE9F843099D98465319202B0446E4
:100D980089461646089F02D90020BDE8F8830178E5
:100DA800406801F0FEFA85B9606832460368494632
:100DB800DB6898478642EFD14146606801F0F8FA4F
:100DC800B0FA80F04009BDE8F883002FECD06068E5
:100DD8002A4603683946DB6898478542DCD1E3E751
:100DE800202A2DE9F04105468846144613D8017893
:100DF800D2B2406801F0C4FA84420CD10026B7B2DE
:100E0800BC4206F1010609D9686803685B6998471E
:100E180008F80700F3E70020BDE8F0810120BDE8ED
:100E2800F081F7B500241E4601949DF82430009403
:100E38000546089FFFF7A5FF40B13A4631462846C8
:100E4800012303B0BDE8F040FFF7CABF03B0F0BD0F
:100E580000F0D0B870470A44FF2091420ED011F834
:100E6800013B5840082310F0800F4FEA400018BF9C
:100E780080F03100013BC0B2F5D1EEE7704738B5DC
:100E880005460C4601F0E8FB297801F08AFA01F0E2
:100E9800E3FB210AFFF78EFB01F0DEFBE1B2FFF76F
:100EA80089FB01F0D9FBBDE8384001F085BA08B5E7
:100EB80043F2A201FFF7E3FFBDE808400A2000F073
:100EC800CBBC38B50D46044601F0C6FB01F052FA1A
:100ED80020462570FFF7EBFF012038BD0000000019
:100EE80073B504464FF41051FFF7C9FF322000F0E4
:100EF800B3FC01F0B1FB0622217801F04AFA01F0B7
:100F0800ABFB03681B69984706284AD1002501F006
:100F1800A3FB03685B6998470DF805000135062DAA
:100F2800F5D1022269462046FFF795FF9DF8025049
:100F3800854236D102220DF103012046FFF78BFFCF
:100F48009DF8055085422CD1BDF800009DF803603E
:100F580040BA80B202F00CF913A3D3E9002302F0DF
:100F68007DF913A3D3E9002302F0A2FA0022124B61
:100F780001F0C0FF02F054FC9DF80450A06045EA5F
:100F8800062002F0F5F800220C4B02F067F908A3DE
:100F9800D3E9002302F08CFA02F042FC60600120E1
:100FA80000E0002002B070BD0000000000E06540D5
:100FB80000000000E0FFEF4000804640000059407C
:100FC80010B50446FFF78CFF08B1A06810BD0148B2
:100FD80010BD00BF0000C07F10B50446FFF780FFBA
:100FE80008B1606810BD014810BD00BF0000C07F97
:100FF80000F000B808B5024B1B681B68019308BDD8
:10100800B001060808B5024B1B689B68019308BD30
:10101800B001060808B5024B1B68DB68019308BDE0
:10102800B001060808B5024B1B681B69019308BD8F
:10103800B001060808B5024B1B68DB69019308BDBF
:10104800B401060808B5024B1B681B6A019308BD6A
:10105800B401060808B5024B1B685B68019308BD1C
:101068009C01060808B5024B1B68DB68019308BDA4
:101078009C01060808B5024B1B685B69019308BD13
:101088009C01060808B5024B1B681B6B019308BD41
:10109800D001060808B5024B1B689B69019308BD7F
:1010A800C401060808B5024B1B685B6A019308BDBA
:1010B800C401060808B5024B1B689B6A019308BD6A
:1010C800C401060808B5024B1B68DB6A019308BD1A
:1010D800C401060808B5024B1B681B6B019308BDC9
:1010E800C401060808B5024B1B685B6B019308BD79
:1010F800C401060808B5024B1B689B6B019308BD29
:10110800C401060808B5024B1B681B6C019308BD97
:10111800C401060808B5024B1B68DB6C019308BDC7
:10112800AC01060808B5024B1B685B6D019308BD4E
:10113800AC01060808B5024B1B689B6D019308BDFE
:10114800AC01060808B5024B1B68DB6D019308BDAE
:10115800AC01060808B5024B1B681B6E019308BD5D
:10116800AC01060808B5024B1B685B6E019308BD0D
:10117800AC01060808B5024B1B689B6E019308BDBD
:10118800AC01060808B5024B1B68DB6E019308BD6D
:10119800AC01060808B5024B1B681B6F019308BD1C
:1011A800AC01060808B5024B1B685B6F019308BDCC
:1011B800AC01060808B5034B1B68D3F880300193CF
:1011C80008BD0000AC01060808B5024B1B681B6887
:1011D800019308BDD801060808B5024B1B685B6877
:1011E800019308BDD801060808B5024B1B681B69A6
:1011F800019308BDD801060808B5024B1B685B6956
:10120800019308BDD801060808B5024B1B689B6905
:10121800019308BDD801060808B5024B1B68DB69B5
:10122800019308BDD801060808B5024B1B681B6A64
:10123800019308BDD801060808B5024B1B689B6CD2
:10124800019308BDC001060808B5024B1B685B681E
:10125800019308BDA401060808B5024B1B685B6929
:10126800019308BDA401060808B5024B1B68DB6C96
:10127800019308BDA401060808B5024B1B685B6D05
:10128800019308BDA401060808B5034B1B68D3F8F1
:101298009030019308BD0000A401060808B5034B6F
:1012A8001B68D3F89C30019308BD0000A401060810
:1012B80008B5024B1B685B68019308BDC8010608A6
:1012C80008B5024B1B689B68019308BDC801060856
:1012D80008B5024B1B68DB68019308BDC801060806
:1012E80008B5024B1B681B69019308BDC8010608B5
:1012F80008B5024B1B685B69019308BDC801060865
:1013080008B5024B1B689B69019308BDC801060814
:1013180008B5024B1B68DB69019308BDC8010608C4
:1013280008B5024B1B681B6A019308BDC801060873
:1013380008B5024B1B681B6B019308BDC801060862
:1013480008B5024B1B685B6B019308BDC801060812
:1013580008B5024B1B681B68019308BDCC01060841
:1013680008B5024B1B685B68019308BDCC010608F1
:1013780008B5024B1B681B6A019308BDCC0106081F
:1013880008B5024B1B68DB6B019308BDCC0106084E
:1013980008B5024B1B681B68019308BDA00106082D
:1013A80008B5024B1B685B68019308BDA0010608DD
:1013B80008B5024B1B689B68019308BDA00106088D
:1013C80008B5024B1B68DB6A019308BDA00106083B
:1013D80008B5024B1B681B6B019308BDA0010608EA
:1013E800704710B50446102101F05BF9204610BD86
:1013F80070B504460E46074B0025036040F80C5FA5
:10140800FFF740FE30462671FFF714FEA560204620
:1014180070BD00BFC0440A080079FFF713BE000082
:101428004FF6FF72034B0020187058809A80FFF720
:101438000BBF00BF7804002010B5044602F003FF7C
:10144800013823182046984206D20278197800F805
:10145800011B03F80129F6E710BD70B50C46911E73
:10146800222920D82546294610B9234430220EE0E7
:10147800B0FBF2F602FB1600C1B2092805F8011B01
:1014880094BF3031573105F8011C3046EBE79942DB
:1014980002D201F8012BFAE7002320460B70FFF770
:1014A800CBFF204670BD002070BD00002DE9F14F34
:1014B80080460D4617461E46002200234046294610
:1014C80002F03EF920B12D23337005F100450136B5
:1014D800002301240A22D9B28F4202D9544301338E
:1014E800F9E7204601F054FE42462B4601F0B6FECD
:1014F80082468B4602F05AFC8046894601F078FE07
:1015080002460B465046594601F0F4FC0022174BA0
:1015180002F02AF918B118F1010849F10009E51794
:1015280022462B464046494602F028FC01230A225F
:101538003146FFF792FFAFB1304602F084FE2E230A
:1015480033540130064422462B464046494602F0B1
:1015580015FC3B46104631460A2201B0BDE8F04F63
:10156800FFF77BBF01B0BDE8F08F00BF0000E03F90
:1015780010B504460068FFF713FF204610BD10B5EC
:101588000446006808B1FFF70BFF00232360A3603F
:10159800636010BD38B504460D4600680131FFF799
:1015A80007FF10B184E82100012038BD10B5036899
:1015B800044613B143688B4207D22046FFF7EAFF7F
:1015C80020B1A3680BB922681370012010BD70B553
:1015D8000E46114604461546FFF7E8FF18B920469F
:1015E800FFF7CDFF09E02A463146A560206802F0E2
:1015F800A2FD2268A3680021D154204670BD38B5E9
:101608000023044603604360836003730D4639B1C9
:10161800084602F018FE294602462046FFF7D7FF83
:10162800204638BD884210B50B46044607D00968E5
:1016380019B19A68FFF7CBFF01E0FFF7A0FF20463A
:1016480010BD10B504460023036043608360037334
:10165800FFF7E8FF204610BD38B505460C4641B1F6
:10166800084602F0F0FD214602462846FFF7AFFF84
:1016780001E0FFF784FF284638BD10B504468AB05C
:1016880019460023104623606360A36023739DF806
:10169800302001ABFFF70AFF01A92046FFF7DCFF66
:1016A80020460AB010BD70B504460E4609B90020A0
:1016B80070BD6AB18368D5182946FFF777FF0028FF
:1016C800F5D02068A3683146184402F099FDA5605A
:1016D800012070BD10B58A6809680446FFF7E3FF6A
:1016E80010B92046FFF74BFF204610BD38B5044619
:1016F8000D4641B1084602F0A6FD2946024620469D
:10170800FFF7D1FF10B92046FFF739FF204638BD53
:10171800F8B506460D468F180024BD420CD0336834
:1017280015F8011B9B6830469847002801DB0444E4
:10173800F3E7002C08BF04462046F8BD70B50546FF
:101748000C46084649B102F07EFD2B680246214648
:101758002846BDE87040DB68184770BD08B5FFF73C
:10176800EDFF08BD03689B68184738B50D2105468D
:10177800FFF7F8FF0A2104462846FFF7F3FF204445
:1017880038BD38B50546FFF7D9FF04462846FFF7A8
:10179800ECFF204438BD012A98BF0A2230B50B4619
:1017A8008BB000218DF824100DF12304B3FBF2F562
:1017B80005FB1233DBB2092B94BF30333733DBB26E
:1017C800214604F801392B46002DEFD1FFF7B6FF6B
:1017D8000BB030BD10B422B90368C9B29B6810BC05
:1017E8001847D2B210BCFFF7D6BFFFF7F3BF0023EC
:1017F8001A4619464068FFF77BBD38B504680546A8
:101808007CB16368013B63605BB9236820469B68D1
:101818009847A368013BA3601BB923682046DB688F
:101828009847284638BD0B68036013B15A680132DF
:101838005A607047014A024B1A60704780450A088F
:1018480080040020024B1A68024B1A60704700BFE0
:1018580004030020840400200021FFF7FDBC10B51C
:101868008368044613B1032201469847204610BDF9
:1018780010B50446FFF7F3FF204610BD13B50B461D
:10188800044603C88DE8030093E8030084E80300D6
:101898009DE8030083E8030002B010BD034800235D
:1018A8008360034A034900F0F7BE00BF88040020A4
:1018B8007803002079180A0808B5144B33B100F0F2
:1018C80023FC03681B699847002816DC104B33B1CA
:1018D80000F0D8FC03681B699847002810DC0D4B02
:1018E8000BB1AFF300800C4B7BB100F049FC0368EF
:1018F8001B699847002806DC08BDAFF30080E5E7C0
:10190800AFF30080EBE7AFF3008008BD00000000F4
:1019180000000000000000000000000008B5FFF70C
:10192800CBFFFFF7A7FB014B186008BD2C0900206F
:101938000248034A0349121A02F0FDBB0040024064
:1019480004400240684B0A0807B5002300931A4672
:101958006FF07701FFF7A2FC03B05DF804FB00000D
:1019680007B543880A2B08D0502B09D1094B1B68AF
:101978003BB103B05DF804EB1847FFF7E5FF06E05D
:10198800002300931A466FF07701FFF787FC03B036
:101998005DF804FB9804002038B5104C104D2368FE
:1019A800AB42104B0CBF012200221A7002D0FFF785
:1019B800BFFF2560FFF74EFB044602F0F9FB0A4B18
:1019C80013B12046AFF3008000210748FFF7D8FC89
:1019D800BDE8384000210548FFF756BC00400240EA
:1019E8001E1C279A9C0400200000000069190A08A0
:1019F80070470020704710B50446102100F051FED2
:101A0800204610BD08B508B1FFF7F5FF08BD38B589
:101A1800C468ECB12378022B02D1E068FFF7C0FC60
:101A2800656835B12846FFF71AFF1021284600F0EF
:101A380038FEA56835B12846FFF711FF1021284662
:101A480000F02FFE2046BDE83840142100F029BEE2
:101A580038BD10B588B004466846FFF7D0FD694622
:101A680004A8FFF7EEFD04A8A047044604A8FFF762
:101A78007FFD6846FFF77CFD204608B010BDF0B535
:101A880007460E46154685B01024224600216846B2
:101A980002F077FB002269461046ADF80040029735
:101AA80003960195FFF75CFC05B0F0BD13B504463D
:101AB80091E8050000234B600B602060626001A87C
:101AC80001930093FFF799FE204602B010BDF7B5C9
:101AD8000C4606460F4654F8043B02AD45F8083D4F
:101AE800214601A8FFF79FFE29463046FFF7DEFF93
:101AF80001A8FFF782FE2046FFF77FFE384608213F
:101B080000F0CFFD304603B0F0BD826810B50AB9C9
:101B180000F0EAFDC368BDE81040184708B5006842
:101B280000F11001FFF7F1FF08BD826810B50AB98E
:101B380000F0DAFDC368BDE81040184708B5006832
:101B480000F11001FFF7F1FF08BD38B500238360ED
:101B58008B6804460D462BB102229847EB68E36078
:101B6800AB68A360204638BD2DE9F0414FF69C7361
:101B780004684FF0020086B0B1F904208B8000237E
:101B88000F688DF800300B60D4E84F1F994203D1DD
:101B9800C4E8450F002DF7D102D08DF800106CE095
:101BA80014F10C051CBFE7602282BFF35F8F18BFDA
:101BB8001F4601236370BFF35F8F04F10803002001
:101BC80053E8006F43E80002002AF9D1BFF35F8FA2
:101BD800002E52D0FFF748FB20B129463046FFF7C8
:101BE80094FF43E031466846FFF7AFFFE068B4F979
:101BF800105008B102F00CFB04901020ADF81450FE
:101C0800FEF747FA054630B34FF00008C0F80880E1
:101C18001820FEF73EFA0446C0B1C0F80880014615
:101C28006846FFF72BFE029BA268A360039B029203
:101C3800E268E360BDF814300392A3824FF69C7308
:101C4800ADF81430049BCDF8108023610E4B2C6046
:101C5800EB600E4BAB600498FFF7A2FB6846FFF7FA
:101C6800FEFD002229460A48FFF706FB3046FFF72B
:101C7800F6FD1021304600F014FD3846FFF790FBC2
:101C880006B0BDE8F08100BF251B0A08851D0A08BB
:101C9800D9220A082DE9F04F8BB007AD4FF0000BA1
:101CA8000646994614200C230F4690469DF850A0EE
:101CB800C5F804B0C5F808B00793FEF7EAF904467A
:101CC80038B180F800B080F801B0C0F804B0C0F8AE
:101CD80008B00023102003940493FEF7DAF928B122
:101CE800012343608360234BC4600360224B04904C
:101CF80008200893FEF7CDF9044628B1039B04A9F0
:101D080040F8043BFFF78FFD00955FFA8AF34A46D7
:101D1800414638460994FFF72BFBB8B9039B5B781B
:101D280003F0FF0293B94FF69C7305A903A8059227
:101D3800ADF81830FFF718FF0598FFF731FB05A835
:101D48000999FFF7C4FE06A8FFF757FD039B04A9EE
:101D580006A80593FFF767FD05A93046FFF7A6FE1D
:101D680006A8FFF74AFD04A8FFF747FD30460BB069
:101D7800BDE8F08FDC450A08F11E0A08022AF8B50A
:101D8800044606D0032A17D0012A21D10B68036024
:101D98001EE018200E68FEF77CF9054650B1314662
:101DA800FFF7D3FE3069B6F9147008B102F030FAC3
:101DB8002861AF8225600BE004684CB12069FFF709
:101DC800EFFA2046FFF74BFD1821204600F069FC8A
:101DD8000020F8BD38B5002383608B6804460D46A3
:101DE8002BB102229847EB68E360AB68A3602046FA
:101DF80038BD022A70B5044606D0032A11D0012A3C
:101E080018D10B68036015E014200E68FEF741F93D
:101E1800054620B13146FFF7DDFF337C2B74256082
:101E280008E0046834B12046FFF719FD1421204664
:101E380000F037FC002070BDF0B50C46BFF35F8F93
:101E480087B0002350E8006F40E80032002AF9D13B
:101E5800BFF35F8F002E3FD01846FFF705FA0746FD
:101E680020B121463046FFF760FE2EE0314601A83A
:101E7800FFF7B0FF237810208DF81430FEF709F92A
:101E88000546D0B187601420FEF703F9044678B1FF
:101E98008760014601A8FFF7F1FC039BA268A360D5
:101EA800049B0392E268E3609DF814300492237463
:101EB8000A4B2C60EB600A4BAB6001A8FFF7CFFC24
:101EC800002229460748FFF7D7F93046FFF7C7FC35
:101ED8001021304600F0E5FB07B0F0BD451B0A08AD
:101EE800FB1D0A08D9220A0830B5044685B00D46FC
:101EF80068461146FFF7EBFD7CB124B228460DB1C8
:101F080002F086F9029002A96846ADF80C40FFF786
:101F18002BFE0298FFF744FA1DE04FF001020098EB
:101F28008DF80840D0E84F3FA34203D1C0E8412FC5
:101F38000029F7D102D08DF808300CE010F10C011F
:101F48004FF0010318BF0373BFF35F8F043000F82D
:101F5800033CFFF771FF01A8FFF74FFC05B030BD48
:101F6800704710B50446182100F09BFB204610BDB1
:101F7800F8B50F4600F10806051D002416F8011DE6
:101F88000A223846FFF731FCAE42044407D0002C41
:101F9800F4D02E213846FFF7E5FB0444EEE720464F
:101FA800F8BD000010B50446044B112240F8043B6C
:101FB800002102F0E6F8204610BD00BFF8450A08E7
:101FC8000346074A10B543F8042B01F1100251F8F3
:101FD800044B914243F8044BF9D10A781A7010BDAA
:101FE800F8450A08024A41600260042202757047F7
:101FF800F8450A0810B59DF8084044EA032343EA67
:10200800024242EA016104234160037510BD0000E9
:1020180037B5044D05609DF818500095FFF7EAFFA5
:1020280003B030BDF8450A0841747047704708B5D9
:102038000021007CFFF7E8F830EA200028BF4FF0C5
:10204800FF3008BD08B50121007CFFF7DDF830EA54
:10205800200028BF4FF0FF3008BD08B5007CFFF70F
:10206800CBF820EAE07008BD08B5007CFFF7BCF8A3
:1020780020EAE07008BD007CFFF7D6B810B504462A
:10208800142100F00EFB204610BD38B50446007C34
:102098000D46FFF7B1F8002801DC607C28B129461D
:1020A800207CFFF7B9F820EAE07038BD10B5044687
:1020B800002363604FF47A73A360054B08462360DE
:1020C8000123217463741146FFF77EF8204610BD82
:1020D8000C460A080022007CFFF77EB810B50446BB
:1020E8001422002102F04DF8054B20466360054B91
:1020F800E36040F2011323818123238210BD00BFD6
:1021080025050020A404002030B50E4D87B001A895
:10211800FFF7E4FF296811F0010410D12846FDF704
:10212800BCFF60B101AA21460748FFF7BFFF284658
:10213800FDF7B8FF054A0649034800F0ADFA024822
:1021480007B030BDA0040020280600207803002036
:1021580035200A0810B504461422002102F011F8AF
:10216800054B20466360054BE36040F20113238171
:102178008123238210BD00BFD8060020400600201E
:1021880010B50E4C86B001A8FFF7E4FF2368DB0703
:1021980010D42046FDF781FF60B101AA012108484B
:1021A800FFF784FF2046FDF77DFF064A06490448ED
:1021B80000F072FA024806B010BD00BF3C060020CD
:1021C800C40600207803002035200A0870474174AF
:1021D800704708B5007CFEF795FF20EAE07008BD5F
:1021E80008B5007CFEF766FF20EAE07008BD08B578
:1021F800007CFEF76FFF30EA200028BF4FF0FF3069
:1022080008BD08B5007CFEF75DFF30EA200028BF56
:102218004FF0FF3008BD007CFEF764BF10B50446E0
:10222800142100F03EFA204610BD70B5457C0446E6
:102238000E4625B9007CFEF765FF002805DD31460E
:10224800207CBDE87040FEF72DBF284670BD000019
:1022580010B5044608461146002262604FF47A72AF
:10226800A260054A20742260012262741A46FEF7B1
:1022780011FF204610BD00BF3C460A08007CFEF74F
:1022880039BF000038B50C4D296811F0010411D18F
:102298002846FDF702FF68B1084A2146084B09485D
:1022A800FFF7D6FF2846FDF7FDFE074A0749054810
:1022B80000F0F2F9034838BD7408002078080020BF
:1022C800F0070020DC07002078030020D5210A0849
:1022D80010B5836804460BB900F006FAC36898473E
:1022E800A3681BB103222146204698472046BDE833
:1022F8001040102100F0D5B97047F8B506461546CC
:102308000C468F18BC4206D0336814F8011B9B6832
:1023180030469847F6E72846F8BD0022007CFEF7CD
:1023280019BF0021007CFEF71DBF0021007CFEF7CD
:1023380021BF0021007CFEF725BF0021007CFEF7AD
:1023480029BF10B50446142100F0ABF9204610BD92
:1023580010B5044608464FF47A73A360044B002175
:10236800207461602360FEF725FF204610BD00BF82
:102378006C460A0800231A461946007CFEF7CABEB6
:1023880013B50024007C0094FEF7CCFEC0B202B066
:1023980010BD0123FFF7F4BF0123D2B2C9B2FFF782
:1023A800EFBF0022007CFEF7C5BEC9B2FFF7F9BF38
:1023B8000022007CFEF7C6BE0121FFF7F9BF00210D
:1023C800007CFEF7EFBE002211464068FEF788BF8A
:1023D800F0B5164689B011220F460446002103A81D
:1023E80001F0CFFE304601F02EFF0025009581B2A6
:1023F8007B6803AA3046FEF71FFF20B12946204616
:10240800FFF7F0FD03E003A92046FFF7D9FD2046BA
:1024180009B0F0BD002211464068FEF781BF0022D6
:1024280011464068FEF78CBF00224068FEF780BF67
:10243800002281F001014068FEF76ABF00231A46B6
:1024480019464068FEF75CBF002211464068FEF757
:1024580037BF002202214068FEF73ABF00231A4620
:102468004068FEF725BF0000024B04225A60024A6A
:102478001A607047FC08002094460A0800231A4690
:102488004068FEF715BF002202214068FEF720BF12
:10249800002211464068FEF713BF0022114640682B
:1024A800FEF71EBF00231A4619464068FEF720BFF4
:1024B80000231A4619464068FEF722BF002281F021
:1024C80001014068FEF724BF00224068FEF730BFD4
:1024D800002211464068FEF733BF002211464068CB
:1024E800FEF71EBF70B516468EB0044608A8FFF763
:1024F80059FD1122002103A801F043FE304601F0E6
:10250800A2FE00250A4B009581B25B6803AA3046FB
:10251800FEF792FE20B129462046FFF763FD03E04F
:1025280003A92046FFF74CFD20460EB070BD00BF42
:10253800FC080020024B034A1A6000225A607047C8
:1025480004090020C8460A0810B504460F48FEF7DB
:1025580063FF28B1A4F10D03022B01D8002010BDA0
:1025680000F07AF8FFF72BFF08B1012CF6D9FFF736
:1025780089FEFFF783FE18B1A4F11203012BEDD9F0
:10258800172C8CBF0020012010BD00BF0C090020B3
:10259800172838B504460D460AD8FF2908D0FFF792
:1025A800D3FF28B129462046BDE83840FEF72ABDAA
:1025B80038BD38B504460D46FEF72CFDFF2810D06F
:1025C800062804D84D2323FA00F0C30709D420466F
:1025D800FFF7BAFF28B129462046BDE83840FEF784
:1025E80021BD38BD70B50C4C0C4E0D4D0021204658
:1025F800FEF7FEFE20460B4C3246294600F04CF80A
:1026080001212046FEF7F4FE324629462046BDE861
:10261800704000F041B800BF0C090020780300208A
:10262800E9130A081C09002013B5084C00231A46B0
:10263800194600932046FFF7EBFC2046044A05495B
:1026480002B0BDE8104000F027B800BF30090020F4
:1026580078030020691F0A0838B50B4D296811F066
:1026680001040FD12846FDF718FD58B12146074847
:10267800FFF76EFE2846FDF715FD054A0549034894
:1026880000F00AF8014838BD480900204C0900202C
:102698007803002001230A080B460146184601F07A
:1026A8002DBDFDF7F8BC08B5FEF78AFE08B5FEF7A4
:1026B80087FE0FB480B582B000AF07F1100454F85C
:1026C800045B284601F0BFFD00F20E2323F0070348
:1026D800ADEB030D00F5007123462A4668467C6081
:1026E80000F02AFAFEF76CFE08B5FEF769FE0AB19B
:1026F80001F012BD104670470AB101F01CBD7047C9
:1027080008B50B68B3F1004F02D30A48FFF7CEFFB4
:10271800934209D95200934206D2B2F1004F2ABF20
:102728006FF000430A600B600868BDE8084001309C
:10273800FDF7AFBCF4460A08034653F8080B984265
:1027480001D0FDF7A8BC7047436810B599421446FC
:1027580004D90A4602482146FFF7ABFF084610BDD8
:102768000C470A0810B544686FF00040001B01448C
:10277800914202D21846FFF799FF10BD02688A42BB
:1027880006D84368D018814294BF002001207047C2
:1027980001207047012A10B502D10A78027010BDD5
:1027A800FFF7AAFF10BD012A30B402D10B780370DD
:1027B80003E012B130BC01F0C9BC30BC704708B5A9
:1027C800521AFFF7E7FF08BD2DE9F3470A9D99461E
:1027D80043681746C1EB03082B449B1AC2EB080851
:1027E8000268019300F108039A420E4614BF8268FA
:1027F8000F2201A90446FFF783FF82461EB1324625
:102808002168FFF7C7FFB9F1000F06D02DB12A469E
:1028180049460AEB0600FFF7BDFFB8F1000F07D0E5
:10282800216837447019424639445044FFF7B2FFD3
:102838002046FFF781FF019BC4F800A0A36002B007
:10284800BDE8F08710B50446FFF776FF204610BDB7
:102858002DE9F347164681460A9C0F4698463146AD
:10286800374B2246FFF77EFF4B4653F8085BD9F8F3
:1028780004109D4204EB010A18BFD9F80830C6EBD2
:102888000A0A08BF0F23534530D3C91B3D444846A5
:102898008F1B4146FFF772FF58B137B1A64204D0EB
:1028A8003A46A9192819FFF77EFFECB3224641469C
:1028B8000DE0B4B3A64221D3224641462846FFF78D
:1028C80072FF2EE0984504D32246A11B41442846B6
:1028D80009E0C8EB0306324641462846FFF763FF86
:1028E800A21B2919A819FFF755FF1DE000944346BC
:1028F800324639464846FFF767FF15E037B13A4692
:10290800A9192819FFF74FFFA6420DD2AB1908EBFA
:1029180004029342D6D3224641462846FFF743FF96
:1029280002E00FB1A642EAD14846D9F800300022A9
:10293800C9F804A003F80A2002B0BDE8F08700BF78
:10294800E3470A0837B5044608460D4601F07BFC04
:102958002B460090626800212046FFF779FF03B0FC
:1029680030BD08B5FFF7EEFF08BD2DE9F843144662
:102978008846426833B9A2422CBF20464FF0FF3048
:10298800BDE8F883934216D80668D71A26445D1E18
:1029980001F10109A7420ED316F8013B98F800206F
:1029A8009A420CD12A4649463046FFF7A0FE30B974
:1029B8002046BDE8F8834FF0FF30BDE8F8830134C6
:1029C800E8E708B50AC9FFF7D0FF08BDF8B54568BC
:1029D800064608460F4601F036FC854204462A465C
:1029E800394628BF02463068FFF781FE00B9281B28
:1029F800F8BD000073B5044616460D4601B9BAB9CC
:102A0800731B0F2B019307D9002201A92046FFF75A
:102A180077FE019B2060A360324629462068FFF7B5
:102A2800CEFE019B226800216360D15402B070BDC4
:102A38000148FFF738FE00BF4F480A08F8B50D46B1
:102A480016461F4600F10803044603603146094A4A
:102A58002846FFF779FE29686A680144921B2046D8
:102A68004FF00003BA4294BF8A18CA19FFF7C2FF91
:102A78002046F8BD79480A0870B50D460446114647
:102A88002846064A1E46FFF75FFE33460246294699
:102A98002046FFF7D3FF204670BD00BF94480A08C0
:102AA800804680B59CB000AF0E1A6C220E49381DC6
:102AB80001F041FB06F17A0323F00703ADEB030DA8
:102AC8006B22391D684601F036FB751C32464146BB
:102AD8000DF16B0001F02FFB6D44002385F86A307F
:102AE8006846FFF7E0FD00BFB8480A082DE9F04145
:102AF80084B0012304AF88B00293022301930D4BE5
:102B080006461B680AA800930023884600F0FAF8D6
:102B1800404504AD044607D8C0F1180102462944CF
:102B2800304601F008FB01E04FF0FF342046BD4677
:102B3800BDE8F081080300202DE9F041064615465E
:102B48000446013947182A78A2B3BC422ED2252A56
:102B580023D16A78732A05D07A2A0ED0252A1CD167
:102B680001351AE0191D1B68013B13F8012FD2B17A
:102B7800BC421BD004F8012BF7E7AA78752A0CD1C0
:102B88001A68391B204603F10408FFF7AFFF002835
:102B98000CDD044403354346D5E72A78013404F8AC
:102BA800012C0135CFE702350B46CCE721463046EC
:102BB800FFF776FF2270A01BBDE8F081184B1A685A
:102BC800D1075CBF01221A60164B1A68D2075CBF96
:102BD80001221A60144B1A68D0075CBF01221A60E0
:102BE800124B1A68D1075CBF01221A60104B1A6891
:102BF800D2075CBF01221A600E4B1A68D0075CBF6F
:102C080001221A600C4B1A68D1075CBF01221A60B6
:102C18000A4B1A68D2075CBF01221A60704700BFCE
:102C28007C09002078090020740900207009002020
:102C38006C09002068090020640900206009002050
:102C4800244B1A68D0075CBF01221A60224B1A680D
:102C5800D1075CBF01221A60204B1A68D2075CBFFB
:102C680001221A601E4B1A68D0075CBF01221A6045
:102C78001C4B1A68D1075CBF01221A601A4B1A68EC
:102C8800D2075CBF01221A60184B1A68D0075CBFD4
:102C980001221A60164B1A68D1075CBF01221A601C
:102CA800144B1A68D2075CBF01221A60124B1A68CB
:102CB800D0075CBF01221A60104B1A68D1075CBFAD
:102CC80001221A600E4B1A68D2075CBF01221A60F3
:102CD800704700BFAC090020A8090020A409002003
:102CE800A00900209C0900209809002094090020D0
:102CF800900900208C090020880900208409002000
:102D0800800900202DE9F04114469DF820201D4639
:102D18000746DDF81880079BB2B1064620462946CB
:102D28000A22002301F02AF842441379204606F8C3
:102D3800013D294600230A2201F020F804460D46E9
:102D480054EA0503EAD129E003F04A02402A10D1E7
:102D5800064604F0070343441B79EA0806F8013DD8
:102D6800E30843EA45731C46154654EA0503F0D1C7
:102D780014E0064613F4804F14BF14220422424480
:102D880004F00F03D35C290906F8013D230943EA3F
:102D980005731C460D4654EA0503F1D1B81BBDE87E
:102DA800F0810000244B1A68D0075CBF01221A602A
:102DB800224B1A68D1075CBF01221A60204B1A689F
:102DC800D2075CBF01221A601E4B1A68D0075CBF8D
:102DD80001221A601C4B1A68D1075CBF01221A60D5
:102DE8001A4B1A68D2075CBF01221A60184B1A687E
:102DF800D0075CBF01221A60164B1A68D1075CBF66
:102E080001221A60144B1A68D2075CBF01221A60AB
:102E1800124B1A68D0075CBF01221A60104B1A685F
:102E2800D1075CBF01221A600E4B1A68D2075CBF3B
:102E380001221A60704700BFDC090020D809002071
:102E4800D4090020D0090020CC090020C80900209E
:102E5800C4090020C0090020BC090020B8090020CE
:102E6800B4090020B0090020184B1A68D1075CBFCC
:102E780001221A60164B1A68D2075CBF01221A6039
:102E8800144B1A68D0075CBF01221A60124B1A68EB
:102E9800D1075CBF01221A60104B1A68D2075CBFC9
:102EA80001221A600E4B1A68D0075CBF01221A6013
:102EB8000C4B1A68D1075CBF01221A600A4B1A68CA
:102EC800D2075CBF01221A60704700BFFC090020CE
:102ED800F8090020F4090020F0090020EC0900207E
:102EE800E8090020E4090020E009002081F0004101
:102EF80002E000BF83F0004330B54FEA41044FEAD7
:102F0800430594EA050F08BF90EA020F1FBF54EA71
:102F1800000C55EA020C7FEA645C7FEA655C00F00D
:102F2800E2804FEA5454D4EB5555B8BF6D420CDDDE
:102F38002C4480EA020281EA030382EA000083EA61
:102F4800010180EA020281EA0303362D88BF30BD01
:102F580011F0004F4FEA01314FF4801C4CEA113157
:102F680002D0404261EB410113F0004F4FEA0333B6
:102F78004CEA133302D0524263EB430394EA050F41
:102F880000F0A780A4F10104D5F1200E0DDB02FAB0
:102F98000EFC22FA05F2801841F1000103FA0EF244
:102FA800801843FA05F359410EE0A5F120050EF10A
:102FB800200E012A03FA0EFC28BF4CF0020C43FA3B
:102FC80005F3C01851EBE37101F0004507D54FF048
:102FD800000EDCF1000C7EEB00006EEB0101B1F598
:102FE800801F1BD3B1F5001F0CD349085FEA3000DE
:102FF8004FEA3C0C04F101044FEA445212F5800FE9
:1030080080F09A80BCF1004F08BF5FEA500C50F185
:10301800000041EB045141EA050130BD5FEA4C0C68
:10302800404141EB010111F4801FA4F10104E9D1F1
:1030380091F0000F04BF01460020B1FA81F308BFE8
:103048002033A3F10B03B3F120020CDA0C3208DDB4
:1030580002F1140CC2F10C0201FA0CF021FA02F18F
:103068000CE002F11402D8BFC2F1200C01FA02F1FF
:1030780020FA0CFCDCBF41EA0C019040E41AA2BF24
:1030880001EB0451294330BD6FEA04041F3C1CDAEC
:103098000C340EDC04F11404C4F1200220FA04F00C
:1030A80001FA02F340EA030021FA04F345EA0301B6
:1030B80030BDC4F10C04C4F1200220FA02F001FA78
:1030C80004F340EA0300294630BD21FA04F02946FA
:1030D80030BD94F0000F83F4801306BF81F4801193
:1030E8000134013D4EE77FEA645C18BF7FEA655C06
:1030F80029D094EA050F08BF90EA020F05D054EAD8
:10310800000C04BF1946104630BD91EA030F1EBFDC
:103118000021002030BD5FEA545C05D140004941E0
:1031280028BF41F0004130BD14F580043CBF01F5D3
:10313800801130BD01F0004545F0FE4141F47001B9
:103148004FF0000030BD7FEA645C1ABF1946104694
:103158007FEA655C1CBF0B46024650EA013406BF95
:1031680052EA033591EA030F41F4002130BD00BF54
:1031780090F0000F04BF0021704730B54FF4806411
:1031880004F132044FF000054FF0000150E700BF92
:1031980090F0000F04BF0021704730B54FF48064F1
:1031A80004F1320410F0004548BF40424FF00001DE
:1031B8003EE700BF42004FEAE2014FEA31014FEA21
:1031C80002701FBF12F07F4393F07F4F81F0605170
:1031D800704792F0000F14BF93F07F4F704730B5DF
:1031E8004FF4607401F0004521F0004120E700BF72
:1031F80050EA010208BF704730B54FF000050AE0F9
:1032080050EA010208BF704730B511F0004502D5F9
:10321800404261EB41014FF4806404F132045FEAFB
:10322800915C3FF4DCAE4FF003025FEADC0C18BFA0
:1032380003325FEADC0C18BF033202EBDC02C2F196
:10324800200300FA03FC20FA02F001FA03FE40EA28
:103258000E0021FA02F11444C1E600BF70B54FF028
:10326800FF0C4CF4E06C1CEA11541DBF1CEA13550A
:1032780094EA0C0F95EA0C0F00F0DEF82C4481EA72
:10328800030621EA4C5123EA4C5350EA013518BF92
:1032980052EA033541F4801143F4801338D0A0FB7F
:1032A80002CE4FF00005E1FB02E506F00042E0FB2C
:1032B80003E54FF00006E1FB03569CF0000F18BF32
:1032C8004EF0010EA4F1FF04B6F5007F64F54074DA
:1032D80004D25FEA4E0E6D4146EB060642EAC6216D
:1032E80041EA55514FEAC52040EA5E504FEACE2EDA
:1032F800B4F1FD0C88BFBCF5E06F1ED8BEF1004FDD
:1033080008BF5FEA500E50F1000041EB045170BD58
:1033180006F0004646EA010140EA020081EA03019C
:10332800B4EB5C04C2BFD4EB0C0541EA045170BD98
:1033380041F480114FF0000E013C00F3AB8014F112
:10334800360FDEBF002001F0004170BDC4F100045B
:10335800203C35DA0C341BDC04F11404C4F12005DC
:1033680000FA05F320FA04F001FA05F240EA020037
:1033780001F0004221F0004110EBD37021FA04F66D
:1033880042EB06015EEA430E08BF20EAD37070BD27
:10339800C4F10C04C4F1200500FA04F320FA05F086
:1033A80001FA04F240EA020001F0004110EBD37088
:1033B80041F100015EEA430E08BF20EAD37070BDF8
:1033C800C4F1200500FA05F24EEA020E20FA04F3D1
:1033D80001FA05F243EA020321FA04F001F0004180
:1033E80021FA04F220EA020000EBD3705EEA430EF1
:1033F80008BF20EAD37070BD94F0000F0FD101F020
:103408000046400041EB010111F4801F08BF013C58
:10341800F7D041EA060195F0000F18BF704703F096
:103428000046520043EB030313F4801F08BF013D1D
:10343800F7D043EA0603704794EA0C0F0CEA1355D9
:1034480018BF95EA0C0F0CD050EA410618BF52EA93
:103458004306D1D181EA030101F000414FF0000099
:1034680070BD50EA410606BF1046194652EA4306A7
:1034780019D094EA0C0F02D150EA013613D195EA1B
:103488000C0F05D152EA03361CBF104619460AD163
:1034980081EA030101F0004141F0FE4141F470016D
:1034A8004FF0000070BD41F0FE4141F4780170BD5D
:1034B80070B54FF0FF0C4CF4E06C1CEA11541DBFC2
:1034C8001CEA135594EA0C0F95EA0C0F00F0A7F8C4
:1034D800A4EB050481EA030E52EA03354FEA0131F1
:1034E80000F088804FEA03334FF0805545EA131304
:1034F80043EA12634FEA022245EA111545EA1065CC
:103508004FEA00260EF000419D4208BF964244F162
:10351800FD0404F5407402D25B084FEA3202B61A81
:1035280065EB03055B084FEA32024FF480104FF455
:10353800002CB6EB020E75EB030E22BFB61A7546C9
:1035480040EA0C005B084FEA3202B6EB020E75EB5C
:10355800030E22BFB61A754640EA5C005B084FEAC4
:103568003202B6EB020E75EB030E22BFB61A754691
:1035780040EA9C005B084FEA3202B6EB020E75EB9C
:10358800030E22BFB61A754640EADC0055EA060E5D
:1035980018D04FEA051545EA16754FEA06164FEAA0
:1035A800C30343EA52734FEAC2025FEA1C1CC0D14C
:1035B80011F4801F0BD141EA00014FF000004FF0D9
:1035C800004CB6E711F4801F04BF01430020B4F19A
:1035D800FD0C88BFBCF5E06F3FF6AFAEB5EB030C52
:1035E80004BFB6EB020C5FEA500C50F1000041EB4F
:1035F800045170BD0EF0004E4EEA113114EB5C041C
:10360800C2BFD4EB0C0541EA045170BD41F48011EE
:103618004FF0000E013C90E645EA060E8DE60CEAF6
:10362800135594EA0C0F08BF95EA0C0F3FF43BAF13
:1036380094EA0C0F0AD150EA01347FF434AF95EACA
:103648000C0F7FF425AF104619462CE795EA0C0FAE
:1036580006D152EA03353FF4FDAE1046194622E77B
:1036680050EA410618BF52EA43067FF4C5AE50EA55
:1036780041047FF40DAF52EA43057FF4EBAE12E745
:103688004FF0FF3C06E000BF4FF0010C02E000BF26
:103698004FF0010C4DF804CD4FEA410C7FEA6C5C09
:1036A8004FEA430C18BF7FEA6C5C1BD001B050EAAC
:1036B800410C0CBF52EA430C91EA030F02BF90EA97
:1036C800020F0020704710F1000F91EA030F58BF56
:1036D800994208BF90422CBFD8176FEAE37040F0B8
:1036E800010070474FEA410C7FEA6C5C02D150EA56
:1036F800013C07D14FEA430C7FEA6C5CD6D152EA11
:10370800033CD3D05DF8040B704700BF84461046D5
:1037180062468C461946634600E000BF01B5FFF7D4
:10372800B7FF002848BF10F1000F01BD4DF808EDA4
:10373800FFF7F4FF0CBF012000205DF808FB00BF75
:103748004DF808EDFFF7EAFF34BF012000205DF8CF
:1037580008FB00BF4DF808EDFFF7E0FF94BF01201C
:1037680000205DF808FB00BF4DF808EDFFF7CEFF1D
:1037780094BF012000205DF808FB00BF4DF808ED5C
:10378800FFF7C4FF34BF012000205DF808FB00BF2D
:103798004FEA410212F5001215D211D56FF4787371
:1037A800B3EB625212D94FEAC12343F0004343EA14
:1037B800505311F0004F23FA02F018BF40427047EF
:1037C8004FF00000704750EA013005D111F0004079
:1037D80008BF6FF0004070474FF00000704700BF0F
:1037E8004A0011D212F5001211D20DD56FF4787378
:1037F800B3EB62520ED44FEAC12343F0004343EACD
:10380800505323FA02F070474FF00000704750EA17
:10381800013002D14FF0FF3070474FF00000704781
:103828004FEA4102B2F1E04324BFB3F5001CDCF1DA
:10383800FE5C0DD901F0004C4FEAC0024CEA507012
:10384800B2F1004F40EB830008BF20F00100704741
:1038580011F0804F21D113F13872BCBF01F0004044
:10386800704741F480114FEA5252C2F11802C2F176
:10387800200C10FA0CF320FA02F018BF40F00100F7
:103888004FEAC1234FEAD32303FA0CFC40EA0C00A9
:1038980023FA02F34FEA4303CCE77FEA625307D1E6
:1038A80050EA01331EBF4FF0FE4040F4400070471D
:1038B80001F0004040F0FE4040F40000704700BFB7
:1038C80080F0004002E000BF81F0004142001FBFCD
:1038D8005FEA410392EA030F7FEA226C7FEA236CD6
:1038E8006AD04FEA1262D2EB1363C1BFD2184140CB
:1038F80048404140B8BF5B42192B88BF704710F061
:10390800004F40F4000020F07F4018BF404211F003
:10391800004F41F4000121F07F4118BF494292EA6B
:10392800030F3FD0A2F1010241FA03FC10EB0C0097
:10393800C3F1200301FA03F100F0004302D5494224
:1039480060EB4000B0F5000F13D3B0F1807F06D3D1
:1039580040084FEA310102F10102FE2A51D2B1F1C9
:10396800004F40EBC25008BF20F0010040EA0300BE
:103978007047490040EB000010F4000FA2F101026B
:10398800EDD1B0FA80FCACF1080CB2EB0C0200FAF5
:103998000CF0AABF00EBC25052421843BCBFD04043
:1039A8001843704792F0000F81F4000106BF80F4BD
:1039B80000000132013BB5E74FEA41037FEA226C80
:1039C80018BF7FEA236C21D092EA030F04D092F04B
:1039D800000F08BF0846704790EA010F1CBF00207F
:1039E800704712F07F4F04D1400028BF40F00040DC
:1039F800704712F100723CBF00F50000704700F0FC
:103A0800004343F0FE4040F4000070477FEA226222
:103A180016BF08467FEA23630146420206BF5FEAF3
:103A2800412390EA010F40F4800070474FF00003F3
:103A380004E000BF10F0004348BF40425FEA000CBA
:103A480008BF704743F0964301464FF000001CE062
:103A580050EA010208BF70474FF000030AE000BFB8
:103A680050EA010208BF704711F0004302D54042F6
:103A780061EB41015FEA010C02BF84460146002068
:103A880043F0B64308BFA3F18053A3F50003BCFA83
:103A98008CF2083AA3EBC25310DB01FA02FC634430
:103AA80000FA02FCC2F12002BCF1004F20FA02F237
:103AB80043EB020008BF20F00100704702F120022A
:103AC80001FA02FCC2F1200250EA4C0021FA02F28B
:103AD80043EB020008BF20EADC7070474FF0FF0C90
:103AE8001CEAD0521EBF1CEAD15392EA0C0F93EA8B
:103AF8000C0F6FD01A4480EA010C400218BF5FEA2D
:103B080041211ED04FF0006343EA501043EA51119F
:103B1800A0FB01310CF00040B1F5000F3EBF490099
:103B280041EAD3715B0040EA010062F17F02FD2A9D
:103B38001DD8B3F1004F40EBC25008BF20F0010080
:103B4800704790F0000F0CF0004C08BF49024CEA97
:103B5800502040EA51207F3AC2BFD2F1FF0340EA29
:103B6800C250704740F400004FF00003013A5DDC9A
:103B780012F1190FDCBF00F000407047C2F10002DB
:103B8800410021FA02F1C2F1200200FA02FC5FEAC8
:103B9800310040F1000053EA4C0308BF20EADC7012
:103BA800704792F0000F00F0004C02BF400010F484
:103BB800000F013AF9D040EA0C0093F0000F01F031
:103BC800004C02BF490011F4000F013BF9D041EA53
:103BD8000C018FE70CEAD15392EA0C0F18BF93EA55
:103BE8000C0F0AD030F0004C18BF31F0004CD8D17F
:103BF80080EA010000F00040704790F0000F17BF06
:103C080090F0004F084691F0000F91F0004F14D04B
:103C180092EA0C0F01D142020FD193EA0C0F03D1A3
:103C28004B0218BF084608D180EA010000F00040A6
:103C380040F0FE4040F40000704740F0FE4040F481
:103C4800400070474FF0FF0C1CEAD0521EBF1CEA20
:103C5800D15392EA0C0F93EA0C0F69D0A2EB03023E
:103C680080EA010C49024FEA402037D04FF08053D8
:103C780043EA111143EA10130CF000408B4238BF9D
:103C88005B0042F17D024FF4000C8B4224BF5B1AAB
:103C980040EA0C00B3EB510F24BFA3EB510340EAF9
:103CA8005C00B3EB910F24BFA3EB910340EA9C00A7
:103CB800B3EBD10F24BFA3EBD10340EADC001B0117
:103CC80018BF5FEA1C1CE0D1FD2A3FF650AF8B42BB
:103CD80040EBC25008BF20F0010070470CF0004CC8
:103CE8004CEA50207F32C2BFD2F1FF0340EAC250F3
:103CF800704740F400004FF00003013A37E792F0B4
:103D0800000F00F0004C02BF400010F4000F013A11
:103D1800F9D040EA0C0093F0000F01F0004C02BF0C
:103D2800490011F4000F013BF9D041EA0C0195E775
:103D38000CEAD15392EA0C0F08D142027FF47DAF0E
:103D480093EA0C0F7FF470AF084676E793EA0C0FFE
:103D580004D14B023FF44CAF08466EE730F0004CFC
:103D680018BF31F0004CCAD130F000427FF45CAF8C
:103D780031F000437FF43CAF5FE700BF53B94AB965
:103D8800002908BF00281CBF4FF0FF314FF0FF305B
:103D980000F0A6B9ADF1080C6DE904CE00F02AF8E0
:103DA800DDF804E0DDE9022304B07047D0B5002255
:103DB8000E4B06460F46FFF751FAFFF711FD044672
:103DC800FFF7D6F900220A4BFFF748FA02460B46DE
:103DD80030463946FFF78EF8FFF702FD23460022EA
:103DE80042EA000210461946D0BD00BF0000F03D6F
:103DF8000000F0412DE9F04F8C460C460546099E1F
:103E0800002B4FD18A4217466BD9B2FA82FEBEF117
:103E1800000F0BD0CEF1200520FA05F501FA0EF3BC
:103E280045EA030C02FA0EF700FA0EF5390CBCFB52
:103E3800F1F0BAB201FB10C300FB02F84FEA154CCF
:103E48004CEA0344A04509D9E41900F1FF3380F096
:103E58002881A04540F2258102383C44C8EB04047F
:103E6800B4FBF1F301FB134C03FB02F2ACB244EADE
:103E78000C418A4209D9C91903F1FF3480F00F8136
:103E88008A4240F20C81023B39448A1A43EA0040D4
:103E98000021002E63D022FA0EF2002386E80C00DF
:103EA800BDE8F08F8B4207D9002E56D0002186E856
:103EB80011000846BDE8F08FB3FA83F1002940F0FD
:103EC8009380A34202D3824200F2FE80851A64EBFB
:103ED80003039C460120002E41D086E82010BDE84F
:103EE800F08F12B90127B7FBF2F7B7FA87FEBEF1D8
:103EF800000F36D1E41B4FEA17481FFA87F9012152
:103F0800B4FBF8F308FB134409FB03F24FEA154C22
:103F18004CEA0444A24207D9E41903F1FF3002D263
:103F2800A24200F2D3800346A41AB4FBF8F008FBBF
:103F3800104809FB00F9ACB244EA0842914507D998
:103F4800D21900F1FF3402D2914500F2BA8020461E
:103F5800C9EB020240EA03409BE731463046BDE820
:103F6800F08F07FA0EF7CEF1200C24FA0CF34FEA83
:103F78001748B3FBF8FA1FFA87F908FB1A3520FA35
:103F88000CFC04FA0EF40AFB09FB4CEA040C4FEA99
:103F98001C4242EA05439B4500FA0EF50AD9DB1993
:103FA8000AF1FF3280F08B809B4540F28880AAF1AD
:103FB800020A3B44CBEB0303B3FBF8F008FB1033D6
:103FC80000FB09F41FFA8CFC4CEA03439C4207D916
:103FD800DB1900F1FF326ED29C426CD902383B44A7
:103FE8001C1B40EA0A418BE7C1F1200E8B4022FAE4
:103FF8000EFC4CEA030C24FA0EF74FEA1C49B7FBF7
:10400800F9FA1FFA8CF309FB1A7720FA0EF88C409C
:104018000AFB03F548EA04044FEA144848EA07474C
:10402800BD4202FA01F200FA01FB09D917EB0C07AD
:104038000AF1FF3041D2BD423FD9AAF1020A6744D2
:104048007F1BB7FBF9F509FB157705FB03F3A4B252
:1040580044EA0747BB4208D917EB0C0705F1FF30C4
:1040680027D2BB4225D9023D674445EA0A40A0FB56
:104078000289FF1A4F4545464C4614D329D066B3EA
:10408800BBEB050367EB040707FA0EFECB40CF40F6
:104098004EEA030386E888000021BDE8F08F234636
:1040A800F3E61846DAE6B8EB020569EB0C040138CA
:1040B800E5E70546D9E7104692E78246C0E792460B
:1040C80078E702383A4443E7084604E7023B3C44B1
:1040D8002AE7C345E7D33C46D1E73146BDE8F08F30
:1040E800704700BF0A22002100F03CB9024B0A4683
:1040F8000146186800F04DB87003002010B5054C53
:1041080013462CB10A4601460220AFF3008010BDC9
:10411800204610BD0000000010B50139024490424D
:1041280007D010F8013B11F8014FA342F7D0181B34
:1041380010BD002010BD10B5431E0A44914204D0A2
:1041480011F8014B03F8014FF8E710BD884210B58C
:1041580001EB020301D8421E0BE09842FBD2811802
:10416800D21AD34204D013F8014D01F8014DF8E7F3
:1041780010BD994204D011F8014B02F8014FF8E73D
:1041880010BD03460244934202D003F8011BFAE72C
:10419800704738B502FB01F42146FDF719F90546C9
:1041A80018B122460021FFF7ECFF284638BD000071
:1041B80038B5124B05461C68A36BD3B91820FDF718
:1041C800E7F843F20E33A06303804AF6CD33438009
:1041D80041F2342383804EF26D63C3804DF6EC6365
:1041E8000381052343810B23838101220023C0E936
:1041F8000423A36B00221D615A6138BD700300209F
:10420800034611F8012B03F8012B002AF9D1704756
:10421800024B0146186800F003B800BF7003002085
:1042280070B5064608460C4600F00DF8451C2946B0
:104238003046FDF7CDF8064618B12A462146FFF765
:104248007AFF304670BD034613F8012B002AFBD1D4
:10425800181A0138704700002DE9F0470F468046CC
:104268003F48D0F800903D4615F8014B09EB040093
:10427800407800F0080000F0FF0608B12F46F2E78A
:104288002D2C03D1BD1C7C78012603E02B2C04BF08
:104298007C78BD1C13B1102B0AD15BE0302C57D1B0
:1042A800287800F0DF0058284DD16C7810230235AB
:1042B800002E14BF4FF0004C6FF0004CBCFBF3FA1B
:1042C8000027384603FB1ACC09EB040E9EF801E0E0
:1042D8001EF0040F01D0303C0BE01EF0030E1BD083
:1042E800BEF1010F0CBF4FF0370E4FF0570ECEEB5B
:1042F8000404A34210DDB7F1FF3F0AD0504506D8A9
:1043080001D1644503DC03FB0040012701E04FF0C5
:10431800FF3715F8014BD7E77B1C0CD1002E4FF067
:10432800220314BF4FF000406FF00040C8F800307F
:104338002AB9BDE8F08706B1404272B107B1691EDB
:104348001160BDE8F0873024002BB1D10823AFE716
:104358000A23ADE7302CA3D0AAE7BDE8F08700BF59
:104368000C03002013460A46014602480068FFF77E
:1043780073BF00BF700300201D000A085D000A0813
:1043880089000A088D000A08000000003D007075C9
:10439800626C697368007B2274656D706572617404
:1043A8007572615F7465727261223A20002C227501
:1043B8006D69646974615F7465727261223A200084
:1043C8002C226C756D696E6F73697461223A2000D6
:1043D8002C2274656D70657261747572615F616DB0
:1043E8006269656E7465223A20002C22756D6964D5
:1043F8006974615F616D6269656E7465223A200057
:104408007D00556D69646974C3A02054657272613A
:104418000054656D706572617475726120546572BF
:10442800726100556D69646974C3A020416D6200B2
:1044380054656D706572617475726120416D6200BA
:104448004C756D696E6F736974C3A00056616C6FAB
:104458007269205075626C6973680053656E736F7A
:104468007265206E6F6E2074726F7661746F00795A
:104478006573006E6F00456E64206F66206261741C
:10448800746572793A200048656174657220656EBA
:1044980061626C65643A200044697361626C6520EE
:1044A8004F54502072656C6F61643A200000000020
:1044B8000000000000000000E9130A08EB130A08D6
:1044C80066006C6E00666E00636F646500646574F8
:1044D80061696C000D0A00253031307520005D20BF
:1044E800002564002C200028293A2000205B006366
:1044F8006F6465203D200025690064657461696CFE
:1045080073203D2000626175640053657269616CB7
:104518000055534253657269616C31007479706556
:1045280000706172616D00636D6400686E64007391
:1045380074726D0066696C74006C766C00616464FA
:1045480048616E646C65720072656D6F766548616E
:104558006E646C657200656E756D48616E646C653D
:104568007273004A534F4E53747265616D4C6F6796
:1045780048616E646C657200617070006E6F6E6584
:1045880000747261636500696E666F007761726EB0
:10459800006572726F720070616E696300616C6CA5
:1045A800005A00252B3033643A25303275002559DE
:1045B8002D256D2D25645425483A254D3A2553253A
:1045C8007A0061736374696D650000000000000083
:1045D80000000000F9190A08FF190A08171A0A0842
:1045E8000D1A0A08FB190A08000000000000000064
:1045F800791F0A08691F0A086B1F0A0800000000D3
:104608000000000035200A0885200A0893200A08BF
:1046180019170A0871200A0837200A084D200A08C5
:104628007F200A0863200A0831200A0800000000D9
:1046380000000000D5210A0825220A0833220A08AA
:1046480019170A08E9210A080B220A08F7210A089B
:104658001F220A08D7210A08DB210A0800000000E7
:104668000000000001230A084B230A0823230A0834
:1046780003230A082B230A0833230A083B230A08C2
:1046880043230A08000000000000000065240A080F
:104698005B240A0851240A08CF230A08F7170A08D6
:1046A80045240A0839240A0831240A0827240A0854
:1046B8001D240A08D9230A08000000000000000091
:1046C80085240A088F240A0899240A08A3240A08BA
:1046D800AD240A08B9240A08C5240A08D1240A08FE
:1046E800D9240A08E3240A08ED240A0862617369D8
:1046F800635F737472696E673A3A5F4D5F637265A0
:104708006174650025733A205F5F706F73202877A6
:104718006869636820697320257A7529203E2074AA
:104728006869732D3E73697A652829202877686936
:10473800636820697320257A75290062617369634B
:104748005F737472696E673A3A61743A205F5F6E9C
:104758002028776869636820697320257A7529207D
:104768003E3D20746869732D3E73697A6528292057
:1047780028776869636820697320257A752900623B
:10478800617369635F737472696E673A3A657261DF
:1047980073650062617369635F737472696E673A07
:1047A8003A5F4D5F7265706C6163655F6175780033
:1047B80062617369635F737472696E673A3A696EAE
:1047C800736572740062617369635F737472696E92
:1047D800673A3A7265706C61636500626173696318
:1047E8005F737472696E673A3A5F4D5F7265706C99
:1047F8006163650062617369635F737472696E6790
:104808003A3A61737369676E0062617369635F73D3
:104818007472696E673A3A617070656E64006261BD
:104828007369635F737472696E673A3A636F70791C
:104838000062617369635F737472696E673A3A63A1
:104848006F6D706172650062617369635F73747222
:10485800696E673A3A5F4D5F636F6E737472756322
:1048680074206E756C6C206E6F742076616C696450
:104878000062617369635F737472696E673A3A6262
:10488800617369635F737472696E670062617369EB
:10489800635F737472696E673A3A737562737472A0
:1048A80000737472696E673A3A737472696E67005E
:1048B8006E6F7420656E6F756768207370616365CD
:1048C80020666F7220666F726D6174206578706102
:1048D8006E73696F6E2028506C65617365207375FF
:1048E800626D69742066756C6C20627567207265EC
:1048F800706F727420617420687474703A2F2F6717
:1049080063632E676E752E6F72672F627567732EDD
:1049180068746D6C293A0A20202020002D2B7858C5
:10492800303132333435363738396162636465661D
:1049380030313233343536373839414243444546CD
:10494800002D2B78583031323334353637383961C9
:104958006263646566414243444546002D30313206
:104968003334353637383900474D540048535400EE
:10497800414B535400505354004D53540043535427
:104988000045535400415354004E5354004345547A
:104998000049535400454554004A53540000202010
:1049A80020202020202020282828282820202020D7
:1049B8002020202020202020202020202020881097
:1049C80010101010101010101010101010100404F7
:1049D80004040404040404041010101010101041FE
:1049E800414141414101010101010101010101016F
:1049F8000101010101010101011010101010104204
:104A0800424242424202020202020202020202023E
:104A1800020202020202020202101010102000001C
:104A2800000000000000000000000000000000007E
:104A3800000000000000000000000000000000006E
:104A4800000000000000000000000000000000005E
:104A5800000000000000000000000000000000004E
:104A6800000000000000000000000000000000003E
:104A7800000000000000000000000000000000002E
:104A8800000000000000000000000000000000001E
:104A9800000000000000000000000000000000000E
:104AA80000000000000000000000000000000000FE
:104AB80000000000000000000000000000000000EE
:104AC80000000000000000000000000000000000DE
:104AD80000000000000000000000000000000000CE
:104AE80000000000000000000000000000000000BE
:104AF80000000000000000000000000000000000AE
:104B08004300000015050A08A1070A0843090A0816
:104B1800190C0A08410D0A08590E0A08F90F0A0863
:104B280029140A083D180A084D180A08A5180A0881
:104B380071240A083D250A08ED250A0831260A08C5
:104B4800C52B0A08492C0A08AD2D0A08712E0A0837
:084B5800000000000000000055
:084B60009CF2FF7F0100000040
:044B68000000000049
:104B6C0060EA0000CA450A0824490A08A5490A084F
:104B7C0000000000A84A0A08C84A0A08E84A0A08BD
:104B8C000000000000000000000000000000000019
:104B9C00084B0A08000000000000000000000000A4
:104BAC0000000000000000000000000000000000F9
:104BBC0000000000000000000000000000000000E9
:104BCC0000000000000000000000000000000000D9
:044BDC0010030020A2
:104BE000FFFFFFFF00000102030405060708090A92
:104BF0000B0C0D0E0F101112131415161718191A8D
:084C00001B1C1D1E1F202800D3
:044C08007856341294
:04000005080A0018CD
:00000001FF
